{"abi":[{"type":"constructor","inputs":[{"name":"_token","type":"address","internalType":"contract IVotes"},{"name":"_timelock","type":"address","internalType":"contract TimelockController"}],"stateMutability":"nonpayable"},{"type":"receive","stateMutability":"payable"},{"type":"function","name":"BALLOT_TYPEHASH","inputs":[],"outputs":[{"name":"","type":"bytes32","internalType":"bytes32"}],"stateMutability":"view"},{"type":"function","name":"CLOCK_MODE","inputs":[],"outputs":[{"name":"","type":"string","internalType":"string"}],"stateMutability":"pure"},{"type":"function","name":"COUNTING_MODE","inputs":[],"outputs":[{"name":"","type":"string","internalType":"string"}],"stateMutability":"pure"},{"type":"function","name":"EXTENDED_BALLOT_TYPEHASH","inputs":[],"outputs":[{"name":"","type":"bytes32","internalType":"bytes32"}],"stateMutability":"view"},{"type":"function","name":"cancel","inputs":[{"name":"targets","type":"address[]","internalType":"address[]"},{"name":"values","type":"uint256[]","internalType":"uint256[]"},{"name":"calldatas","type":"bytes[]","internalType":"bytes[]"},{"name":"descriptionHash","type":"bytes32","internalType":"bytes32"}],"outputs":[{"name":"","type":"uint256","internalType":"uint256"}],"stateMutability":"nonpayable"},{"type":"function","name":"castVote","inputs":[{"name":"proposalId","type":"uint256","internalType":"uint256"},{"name":"support","type":"uint8","internalType":"uint8"}],"outputs":[{"name":"","type":"uint256","internalType":"uint256"}],"stateMutability":"nonpayable"},{"type":"function","name":"castVoteBySig","inputs":[{"name":"proposalId","type":"uint256","internalType":"uint256"},{"name":"support","type":"uint8","internalType":"uint8"},{"name":"voter","type":"address","internalType":"address"},{"name":"signature","type":"bytes","internalType":"bytes"}],"outputs":[{"name":"","type":"uint256","internalType":"uint256"}],"stateMutability":"nonpayable"},{"type":"function","name":"castVoteWithReason","inputs":[{"name":"proposalId","type":"uint256","internalType":"uint256"},{"name":"support","type":"uint8","internalType":"uint8"},{"name":"reason","type":"string","internalType":"string"}],"outputs":[{"name":"","type":"uint256","internalType":"uint256"}],"stateMutability":"nonpayable"},{"type":"function","name":"castVoteWithReasonAndParams","inputs":[{"name":"proposalId","type":"uint256","internalType":"uint256"},{"name":"support","type":"uint8","internalType":"uint8"},{"name":"reason","type":"string","internalType":"string"},{"name":"params","type":"bytes","internalType":"bytes"}],"outputs":[{"name":"","type":"uint256","internalType":"uint256"}],"stateMutability":"nonpayable"},{"type":"function","name":"castVoteWithReasonAndParamsBySig","inputs":[{"name":"proposalId","type":"uint256","internalType":"uint256"},{"name":"support","type":"uint8","internalType":"uint8"},{"name":"voter","type":"address","internalType":"address"},{"name":"reason","type":"string","internalType":"string"},{"name":"params","type":"bytes","internalType":"bytes"},{"name":"signature","type":"bytes","internalType":"bytes"}],"outputs":[{"name":"","type":"uint256","internalType":"uint256"}],"stateMutability":"nonpayable"},{"type":"function","name":"clock","inputs":[],"outputs":[{"name":"","type":"uint48","internalType":"uint48"}],"stateMutability":"view"},{"type":"function","name":"eip712Domain","inputs":[],"outputs":[{"name":"fields","type":"bytes1","internalType":"bytes1"},{"name":"name","type":"string","internalType":"string"},{"name":"version","type":"string","internalType":"string"},{"name":"chainId","type":"uint256","internalType":"uint256"},{"name":"verifyingContract","type":"address","internalType":"address"},{"name":"salt","type":"bytes32","internalType":"bytes32"},{"name":"extensions","type":"uint256[]","internalType":"uint256[]"}],"stateMutability":"view"},{"type":"function","name":"execute","inputs":[{"name":"targets","type":"address[]","internalType":"address[]"},{"name":"values","type":"uint256[]","internalType":"uint256[]"},{"name":"calldatas","type":"bytes[]","internalType":"bytes[]"},{"name":"descriptionHash","type":"bytes32","internalType":"bytes32"}],"outputs":[{"name":"","type":"uint256","internalType":"uint256"}],"stateMutability":"payable"},{"type":"function","name":"getVotes","inputs":[{"name":"account","type":"address","internalType":"address"},{"name":"timepoint","type":"uint256","internalType":"uint256"}],"outputs":[{"name":"","type":"uint256","internalType":"uint256"}],"stateMutability":"view"},{"type":"function","name":"getVotesWithParams","inputs":[{"name":"account","type":"address","internalType":"address"},{"name":"timepoint","type":"uint256","internalType":"uint256"},{"name":"params","type":"bytes","internalType":"bytes"}],"outputs":[{"name":"","type":"uint256","internalType":"uint256"}],"stateMutability":"view"},{"type":"function","name":"hasVoted","inputs":[{"name":"proposalId","type":"uint256","internalType":"uint256"},{"name":"account","type":"address","internalType":"address"}],"outputs":[{"name":"","type":"bool","internalType":"bool"}],"stateMutability":"view"},{"type":"function","name":"hashProposal","inputs":[{"name":"targets","type":"address[]","internalType":"address[]"},{"name":"values","type":"uint256[]","internalType":"uint256[]"},{"name":"calldatas","type":"bytes[]","internalType":"bytes[]"},{"name":"descriptionHash","type":"bytes32","internalType":"bytes32"}],"outputs":[{"name":"","type":"uint256","internalType":"uint256"}],"stateMutability":"pure"},{"type":"function","name":"name","inputs":[],"outputs":[{"name":"","type":"string","internalType":"string"}],"stateMutability":"view"},{"type":"function","name":"nonces","inputs":[{"name":"owner","type":"address","internalType":"address"}],"outputs":[{"name":"","type":"uint256","internalType":"uint256"}],"stateMutability":"view"},{"type":"function","name":"onERC1155BatchReceived","inputs":[{"name":"","type":"address","internalType":"address"},{"name":"","type":"address","internalType":"address"},{"name":"","type":"uint256[]","internalType":"uint256[]"},{"name":"","type":"uint256[]","internalType":"uint256[]"},{"name":"","type":"bytes","internalType":"bytes"}],"outputs":[{"name":"","type":"bytes4","internalType":"bytes4"}],"stateMutability":"nonpayable"},{"type":"function","name":"onERC1155Received","inputs":[{"name":"","type":"address","internalType":"address"},{"name":"","type":"address","internalType":"address"},{"name":"","type":"uint256","internalType":"uint256"},{"name":"","type":"uint256","internalType":"uint256"},{"name":"","type":"bytes","internalType":"bytes"}],"outputs":[{"name":"","type":"bytes4","internalType":"bytes4"}],"stateMutability":"nonpayable"},{"type":"function","name":"onERC721Received","inputs":[{"name":"","type":"address","internalType":"address"},{"name":"","type":"address","internalType":"address"},{"name":"","type":"uint256","internalType":"uint256"},{"name":"","type":"bytes","internalType":"bytes"}],"outputs":[{"name":"","type":"bytes4","internalType":"bytes4"}],"stateMutability":"nonpayable"},{"type":"function","name":"proposalDeadline","inputs":[{"name":"proposalId","type":"uint256","internalType":"uint256"}],"outputs":[{"name":"","type":"uint256","internalType":"uint256"}],"stateMutability":"view"},{"type":"function","name":"proposalEta","inputs":[{"name":"proposalId","type":"uint256","internalType":"uint256"}],"outputs":[{"name":"","type":"uint256","internalType":"uint256"}],"stateMutability":"view"},{"type":"function","name":"proposalNeedsQueuing","inputs":[{"name":"id","type":"uint256","internalType":"uint256"}],"outputs":[{"name":"","type":"bool","internalType":"bool"}],"stateMutability":"view"},{"type":"function","name":"proposalProposer","inputs":[{"name":"proposalId","type":"uint256","internalType":"uint256"}],"outputs":[{"name":"","type":"address","internalType":"address"}],"stateMutability":"view"},{"type":"function","name":"proposalSnapshot","inputs":[{"name":"proposalId","type":"uint256","internalType":"uint256"}],"outputs":[{"name":"","type":"uint256","internalType":"uint256"}],"stateMutability":"view"},{"type":"function","name":"proposalThreshold","inputs":[],"outputs":[{"name":"","type":"uint256","internalType":"uint256"}],"stateMutability":"pure"},{"type":"function","name":"proposalVotes","inputs":[{"name":"proposalId","type":"uint256","internalType":"uint256"}],"outputs":[{"name":"againstVotes","type":"uint256","internalType":"uint256"},{"name":"forVotes","type":"uint256","internalType":"uint256"},{"name":"abstainVotes","type":"uint256","internalType":"uint256"}],"stateMutability":"view"},{"type":"function","name":"propose","inputs":[{"name":"targets","type":"address[]","internalType":"address[]"},{"name":"values","type":"uint256[]","internalType":"uint256[]"},{"name":"calldatas","type":"bytes[]","internalType":"bytes[]"},{"name":"description","type":"string","internalType":"string"}],"outputs":[{"name":"","type":"uint256","internalType":"uint256"}],"stateMutability":"nonpayable"},{"type":"function","name":"queue","inputs":[{"name":"targets","type":"address[]","internalType":"address[]"},{"name":"values","type":"uint256[]","internalType":"uint256[]"},{"name":"calldatas","type":"bytes[]","internalType":"bytes[]"},{"name":"descriptionHash","type":"bytes32","internalType":"bytes32"}],"outputs":[{"name":"","type":"uint256","internalType":"uint256"}],"stateMutability":"nonpayable"},{"type":"function","name":"quorum","inputs":[{"name":"blockNumber","type":"uint256","internalType":"uint256"}],"outputs":[{"name":"","type":"uint256","internalType":"uint256"}],"stateMutability":"view"},{"type":"function","name":"quorumDenominator","inputs":[],"outputs":[{"name":"","type":"uint256","internalType":"uint256"}],"stateMutability":"view"},{"type":"function","name":"quorumNumerator","inputs":[{"name":"timepoint","type":"uint256","internalType":"uint256"}],"outputs":[{"name":"","type":"uint256","internalType":"uint256"}],"stateMutability":"view"},{"type":"function","name":"quorumNumerator","inputs":[],"outputs":[{"name":"","type":"uint256","internalType":"uint256"}],"stateMutability":"view"},{"type":"function","name":"relay","inputs":[{"name":"target","type":"address","internalType":"address"},{"name":"value","type":"uint256","internalType":"uint256"},{"name":"data","type":"bytes","internalType":"bytes"}],"outputs":[],"stateMutability":"payable"},{"type":"function","name":"state","inputs":[{"name":"id","type":"uint256","internalType":"uint256"}],"outputs":[{"name":"","type":"uint8","internalType":"enum IGovernor.ProposalState"}],"stateMutability":"view"},{"type":"function","name":"supportsInterface","inputs":[{"name":"interfaceId","type":"bytes4","internalType":"bytes4"}],"outputs":[{"name":"","type":"bool","internalType":"bool"}],"stateMutability":"view"},{"type":"function","name":"timelock","inputs":[],"outputs":[{"name":"","type":"address","internalType":"address"}],"stateMutability":"view"},{"type":"function","name":"token","inputs":[],"outputs":[{"name":"","type":"address","internalType":"contract IERC5805"}],"stateMutability":"view"},{"type":"function","name":"updateQuorumNumerator","inputs":[{"name":"newQuorumNumerator","type":"uint256","internalType":"uint256"}],"outputs":[],"stateMutability":"nonpayable"},{"type":"function","name":"updateTimelock","inputs":[{"name":"newTimelock","type":"address","internalType":"contract TimelockController"}],"outputs":[],"stateMutability":"nonpayable"},{"type":"function","name":"version","inputs":[],"outputs":[{"name":"","type":"string","internalType":"string"}],"stateMutability":"view"},{"type":"function","name":"votingDelay","inputs":[],"outputs":[{"name":"","type":"uint256","internalType":"uint256"}],"stateMutability":"pure"},{"type":"function","name":"votingPeriod","inputs":[],"outputs":[{"name":"","type":"uint256","internalType":"uint256"}],"stateMutability":"pure"},{"type":"event","name":"EIP712DomainChanged","inputs":[],"anonymous":false},{"type":"event","name":"ProposalCanceled","inputs":[{"name":"proposalId","type":"uint256","indexed":false,"internalType":"uint256"}],"anonymous":false},{"type":"event","name":"ProposalCreated","inputs":[{"name":"proposalId","type":"uint256","indexed":false,"internalType":"uint256"},{"name":"proposer","type":"address","indexed":false,"internalType":"address"},{"name":"targets","type":"address[]","indexed":false,"internalType":"address[]"},{"name":"values","type":"uint256[]","indexed":false,"internalType":"uint256[]"},{"name":"signatures","type":"string[]","indexed":false,"internalType":"string[]"},{"name":"calldatas","type":"bytes[]","indexed":false,"internalType":"bytes[]"},{"name":"voteStart","type":"uint256","indexed":false,"internalType":"uint256"},{"name":"voteEnd","type":"uint256","indexed":false,"internalType":"uint256"},{"name":"description","type":"string","indexed":false,"internalType":"string"}],"anonymous":false},{"type":"event","name":"ProposalExecuted","inputs":[{"name":"proposalId","type":"uint256","indexed":false,"internalType":"uint256"}],"anonymous":false},{"type":"event","name":"ProposalQueued","inputs":[{"name":"proposalId","type":"uint256","indexed":false,"internalType":"uint256"},{"name":"etaSeconds","type":"uint256","indexed":false,"internalType":"uint256"}],"anonymous":false},{"type":"event","name":"QuorumNumeratorUpdated","inputs":[{"name":"oldQuorumNumerator","type":"uint256","indexed":false,"internalType":"uint256"},{"name":"newQuorumNumerator","type":"uint256","indexed":false,"internalType":"uint256"}],"anonymous":false},{"type":"event","name":"TimelockChange","inputs":[{"name":"oldTimelock","type":"address","indexed":false,"internalType":"address"},{"name":"newTimelock","type":"address","indexed":false,"internalType":"address"}],"anonymous":false},{"type":"event","name":"VoteCast","inputs":[{"name":"voter","type":"address","indexed":true,"internalType":"address"},{"name":"proposalId","type":"uint256","indexed":false,"internalType":"uint256"},{"name":"support","type":"uint8","indexed":false,"internalType":"uint8"},{"name":"weight","type":"uint256","indexed":false,"internalType":"uint256"},{"name":"reason","type":"string","indexed":false,"internalType":"string"}],"anonymous":false},{"type":"event","name":"VoteCastWithParams","inputs":[{"name":"voter","type":"address","indexed":true,"internalType":"address"},{"name":"proposalId","type":"uint256","indexed":false,"internalType":"uint256"},{"name":"support","type":"uint8","indexed":false,"internalType":"uint8"},{"name":"weight","type":"uint256","indexed":false,"internalType":"uint256"},{"name":"reason","type":"string","indexed":false,"internalType":"string"},{"name":"params","type":"bytes","indexed":false,"internalType":"bytes"}],"anonymous":false},{"type":"error","name":"CheckpointUnorderedInsertion","inputs":[]},{"type":"error","name":"FailedInnerCall","inputs":[]},{"type":"error","name":"GovernorAlreadyCastVote","inputs":[{"name":"voter","type":"address","internalType":"address"}]},{"type":"error","name":"GovernorAlreadyQueuedProposal","inputs":[{"name":"proposalId","type":"uint256","internalType":"uint256"}]},{"type":"error","name":"GovernorDisabledDeposit","inputs":[]},{"type":"error","name":"GovernorInsufficientProposerVotes","inputs":[{"name":"proposer","type":"address","internalType":"address"},{"name":"votes","type":"uint256","internalType":"uint256"},{"name":"threshold","type":"uint256","internalType":"uint256"}]},{"type":"error","name":"GovernorInvalidProposalLength","inputs":[{"name":"targets","type":"uint256","internalType":"uint256"},{"name":"calldatas","type":"uint256","internalType":"uint256"},{"name":"values","type":"uint256","internalType":"uint256"}]},{"type":"error","name":"GovernorInvalidQuorumFraction","inputs":[{"name":"quorumNumerator","type":"uint256","internalType":"uint256"},{"name":"quorumDenominator","type":"uint256","internalType":"uint256"}]},{"type":"error","name":"GovernorInvalidSignature","inputs":[{"name":"voter","type":"address","internalType":"address"}]},{"type":"error","name":"GovernorInvalidVoteType","inputs":[]},{"type":"error","name":"GovernorInvalidVotingPeriod","inputs":[{"name":"votingPeriod","type":"uint256","internalType":"uint256"}]},{"type":"error","name":"GovernorNonexistentProposal","inputs":[{"name":"proposalId","type":"uint256","internalType":"uint256"}]},{"type":"error","name":"GovernorNotQueuedProposal","inputs":[{"name":"proposalId","type":"uint256","internalType":"uint256"}]},{"type":"error","name":"GovernorOnlyExecutor","inputs":[{"name":"account","type":"address","internalType":"address"}]},{"type":"error","name":"GovernorOnlyProposer","inputs":[{"name":"account","type":"address","internalType":"address"}]},{"type":"error","name":"GovernorQueueNotImplemented","inputs":[]},{"type":"error","name":"GovernorRestrictedProposer","inputs":[{"name":"proposer","type":"address","internalType":"address"}]},{"type":"error","name":"GovernorUnexpectedProposalState","inputs":[{"name":"proposalId","type":"uint256","internalType":"uint256"},{"name":"current","type":"uint8","internalType":"enum IGovernor.ProposalState"},{"name":"expectedStates","type":"bytes32","internalType":"bytes32"}]},{"type":"error","name":"InvalidAccountNonce","inputs":[{"name":"account","type":"address","internalType":"address"},{"name":"currentNonce","type":"uint256","internalType":"uint256"}]},{"type":"error","name":"InvalidShortString","inputs":[]},{"type":"error","name":"QueueEmpty","inputs":[]},{"type":"error","name":"QueueFull","inputs":[]},{"type":"error","name":"SafeCastOverflowedUintDowncast","inputs":[{"name":"bits","type":"uint8","internalType":"uint8"},{"name":"value","type":"uint256","internalType":"uint256"}]},{"type":"error","name":"StringTooLong","inputs":[{"name":"str","type":"string","internalType":"string"}]}],"bytecode":{"object":"0x610180604052348015610010575f5ffd5b50604051617691380380617691833981810160405281019061003291906109d3565b80600a836040518060400160405280600c81526020017f4d616c61476f7665726e6f7200000000000000000000000000000000000000008152508061007b61019260201b60201c565b61008e5f836101cf60201b90919060201c565b61012081815250506100aa6001826101cf60201b90919060201c565b6101408181525050818051906020012060e08181525050808051906020012061010081815250504660a081815250506100e761021c60201b60201c565b608081815250503073ffffffffffffffffffffffffffffffffffffffff1660c08173ffffffffffffffffffffffffffffffffffffffff1681525050505080600390816101339190610c4e565b50508073ffffffffffffffffffffffffffffffffffffffff166101608173ffffffffffffffffffffffffffffffffffffffff16815250505061017a8161027660201b60201c565b5061018a8161035060201b60201c565b505050610fd7565b60606040518060400160405280600181526020017f3100000000000000000000000000000000000000000000000000000000000000815250905090565b5f6020835110156101f0576101e9836103ed60201b60201c565b9050610216565b826102008361045260201b60201c565b5f01908161020e9190610c4e565b5060ff5f1b90505b92915050565b5f7f8b73c3c69bb8fe3d512ecc4cf759cc79239f7b179b0ffacaa9a75d522b39400f60e05161010051463060405160200161025b959493929190610d53565b60405160208183030381529060405280519060200120905090565b5f61028561045b60201b60201c565b9050808211156102ce5781816040517f243e54450000000000000000000000000000000000000000000000000000000081526004016102c5929190610da4565b60405180910390fd5b5f6102dd61046360201b60201c565b90506103106102f061049560201b60201c565b6102ff8561049c60201b60201c565b600861050960201b9092919060201c565b50507f0553476bf02ef2726e8ce5ced78d63e26e602e4a2257b1f559418e24b46339978184604051610343929190610da4565b60405180910390a1505050565b7f08f74ea46ef7894f65eabfb5e6e695de773a000b47c529ab559178069b22640160095f9054906101000a900473ffffffffffffffffffffffffffffffffffffffff16826040516103a2929190610dcb565b60405180910390a18060095f6101000a81548173ffffffffffffffffffffffffffffffffffffffff021916908373ffffffffffffffffffffffffffffffffffffffff16021790555050565b5f5f829050601f8151111561043957826040517f305a27a90000000000000000000000000000000000000000000000000000000081526004016104309190610e58565b60405180910390fd5b80518161044590610ea5565b5f1c175f1b915050919050565b5f819050919050565b5f6064905090565b5f610474600861052a60201b60201c565b79ffffffffffffffffffffffffffffffffffffffffffffffffffff16905090565b5f43905090565b5f79ffffffffffffffffffffffffffffffffffffffffffffffffffff80168211156105015760d0826040517f6dfcc6500000000000000000000000000000000000000000000000000000000081526004016104f8929190610f50565b60405180910390fd5b819050919050565b5f5f61051e855f01858561059260201b60201c565b91509150935093915050565b5f5f825f018054905090505f81146105885761055a835f0160018361054f9190610fa4565b61090660201b60201c565b5f0160069054906101000a900479ffffffffffffffffffffffffffffffffffffffffffffffffffff1661058a565b5f5b915050919050565b5f5f5f858054905090505f81111561081e575f6105c1876001846105b69190610fa4565b61090660201b60201c565b6040518060400160405290815f82015f9054906101000a900465ffffffffffff1665ffffffffffff1665ffffffffffff1681526020015f820160069054906101000a900479ffffffffffffffffffffffffffffffffffffffffffffffffffff1679ffffffffffffffffffffffffffffffffffffffffffffffffffff1679ffffffffffffffffffffffffffffffffffffffffffffffffffff168152505090508565ffffffffffff16815f015165ffffffffffff1611156106ac576040517f2520601d00000000000000000000000000000000000000000000000000000000815260040160405180910390fd5b8565ffffffffffff16815f015165ffffffffffff160361073457846106e3886001856106d89190610fa4565b61090660201b60201c565b5f0160066101000a81548179ffffffffffffffffffffffffffffffffffffffffffffffffffff021916908379ffffffffffffffffffffffffffffffffffffffffffffffffffff16021790555061080d565b8660405180604001604052808865ffffffffffff1681526020018779ffffffffffffffffffffffffffffffffffffffffffffffffffff16815250908060018154018082558091505060019003905f5260205f20015f909190919091505f820151815f015f6101000a81548165ffffffffffff021916908365ffffffffffff1602179055506020820151815f0160066101000a81548179ffffffffffffffffffffffffffffffffffffffffffffffffffff021916908379ffffffffffffffffffffffffffffffffffffffffffffffffffff16021790555050505b8060200151859350935050506108fe565b8560405180604001604052808765ffffffffffff1681526020018679ffffffffffffffffffffffffffffffffffffffffffffffffffff16815250908060018154018082558091505060019003905f5260205f20015f909190919091505f820151815f015f6101000a81548165ffffffffffff021916908365ffffffffffff1602179055506020820151815f0160066101000a81548179ffffffffffffffffffffffffffffffffffffffffffffffffffff021916908379ffffffffffffffffffffffffffffffffffffffffffffffffffff16021790555050505f8492509250505b935093915050565b5f825f528160205f2001905092915050565b5f5ffd5b5f73ffffffffffffffffffffffffffffffffffffffff82169050919050565b5f6109458261091c565b9050919050565b5f6109568261093b565b9050919050565b6109668161094c565b8114610970575f5ffd5b50565b5f815190506109818161095d565b92915050565b5f6109918261091c565b9050919050565b5f6109a282610987565b9050919050565b6109b281610998565b81146109bc575f5ffd5b50565b5f815190506109cd816109a9565b92915050565b5f5f604083850312156109e9576109e8610918565b5b5f6109f685828601610973565b9250506020610a07858286016109bf565b9150509250929050565b5f81519050919050565b7f4e487b71000000000000000000000000000000000000000000000000000000005f52604160045260245ffd5b7f4e487b71000000000000000000000000000000000000000000000000000000005f52602260045260245ffd5b5f6002820490506001821680610a8c57607f821691505b602082108103610a9f57610a9e610a48565b5b50919050565b5f819050815f5260205f209050919050565b5f6020601f8301049050919050565b5f82821b905092915050565b5f60088302610b017fffffffffffffffffffffffffffffffffffffffffffffffffffffffffffffffff82610ac6565b610b0b8683610ac6565b95508019841693508086168417925050509392505050565b5f819050919050565b5f819050919050565b5f610b4f610b4a610b4584610b23565b610b2c565b610b23565b9050919050565b5f819050919050565b610b6883610b35565b610b7c610b7482610b56565b848454610ad2565b825550505050565b5f5f905090565b610b93610b84565b610b9e818484610b5f565b505050565b5b81811015610bc157610bb65f82610b8b565b600181019050610ba4565b5050565b601f821115610c0657610bd781610aa5565b610be084610ab7565b81016020851015610bef578190505b610c03610bfb85610ab7565b830182610ba3565b50505b505050565b5f82821c905092915050565b5f610c265f1984600802610c0b565b1980831691505092915050565b5f610c3e8383610c17565b9150826002028217905092915050565b610c5782610a11565b67ffffffffffffffff811115610c7057610c6f610a1b565b5b610c7a8254610a75565b610c85828285610bc5565b5f60209050601f831160018114610cb6575f8415610ca4578287015190505b610cae8582610c33565b865550610d15565b601f198416610cc486610aa5565b5f5b82811015610ceb57848901518255600182019150602085019450602081019050610cc6565b86831015610d085784890151610d04601f891682610c17565b8355505b6001600288020188555050505b505050505050565b5f819050919050565b610d2f81610d1d565b82525050565b610d3e81610b23565b82525050565b610d4d8161093b565b82525050565b5f60a082019050610d665f830188610d26565b610d736020830187610d26565b610d806040830186610d26565b610d8d6060830185610d35565b610d9a6080830184610d44565b9695505050505050565b5f604082019050610db75f830185610d35565b610dc46020830184610d35565b9392505050565b5f604082019050610dde5f830185610d44565b610deb6020830184610d44565b9392505050565b5f82825260208201905092915050565b8281835e5f83830152505050565b5f601f19601f8301169050919050565b5f610e2a82610a11565b610e348185610df2565b9350610e44818560208601610e02565b610e4d81610e10565b840191505092915050565b5f6020820190508181035f830152610e708184610e20565b905092915050565b5f81519050919050565b5f819050602082019050919050565b5f610e9c8251610d1d565b80915050919050565b5f610eaf82610e78565b82610eb984610e82565b9050610ec481610e91565b92506020821015610f0457610eff7fffffffffffffffffffffffffffffffffffffffffffffffffffffffffffffffff83602003600802610ac6565b831692505b5050919050565b5f819050919050565b5f60ff82169050919050565b5f610f3a610f35610f3084610f0b565b610b2c565b610f14565b9050919050565b610f4a81610f20565b82525050565b5f604082019050610f635f830185610f41565b610f706020830184610d35565b9392505050565b7f4e487b71000000000000000000000000000000000000000000000000000000005f52601160045260245ffd5b5f610fae82610b23565b9150610fb983610b23565b9250828203905081811115610fd157610fd0610f77565b5b92915050565b60805160a05160c05160e0516101005161012051610140516101605161665f6110325f395f611c7a01525f612acd01525f612a9201525f61413e01525f61411d01525f61347501525f6134cb01525f6134f4015261665f5ff3fe608060405260043610610275575f3560e01c80637d5e81e21161014e578063b58131b0116100c0578063dd4e2ba511610079578063dd4e2ba514610a80578063deaaa7cc14610aaa578063eb9019d414610ad4578063f23a6e6114610b10578063f8ce560a14610b4c578063fc0c546a14610b885761027c565b8063b58131b01461095c578063bc197c8114610986578063c01f9e37146109c2578063c28bc2fa146109fe578063c59057e414610a1a578063d33219b414610a565761027c565b806397c3d3341161011257806397c3d3341461082c5780639a802a6d14610856578063a7713a7014610892578063a890c910146108bc578063a9a95294146108e4578063ab58fb8e146109205761027c565b80637d5e81e21461071e5780637ecebe001461075a57806384b0196e146107965780638ff262e3146107c657806391ddadf4146108025761027c565b80633e4f49e6116101e757806354fd4d50116101ab57806354fd4d50146105c857806356781388146105f25780635b8d0e0d1461062e5780635f398a141461066a57806360c4247f146106a65780637b3c71d3146106e25761027c565b80633e4f49e6146104ac57806343859632146104e8578063452115d6146105245780634bf5d7e914610560578063544ffc9c1461058a5761027c565b8063150b7a0211610239578063150b7a0214610374578063160cbed7146103b05780632656227d146103ec5780632d63f6931461041c5780632fe3e261146104585780633932abb1146104825761027c565b806301ffc9a71461028057806302a251a3146102bc57806306f3f9e6146102e657806306fdde031461030e578063143489d0146103385761027c565b3661027c57005b5f5ffd5b34801561028b575f5ffd5b506102a660048036038101906102a191906144af565b610bb2565b6040516102b391906144f4565b60405180910390f35b3480156102c7575f5ffd5b506102d0610c93565b6040516102dd9190614525565b60405180910390f35b3480156102f1575f5ffd5b5061030c60048036038101906103079190614568565b610c9c565b005b348015610319575f5ffd5b50610322610cb0565b60405161032f9190614603565b60405180910390f35b348015610343575f5ffd5b5061035e60048036038101906103599190614568565b610d40565b60405161036b9190614662565b60405180910390f35b34801561037f575f5ffd5b5061039a600480360381019061039591906147d1565b610d7b565b6040516103a79190614860565b60405180910390f35b3480156103bb575f5ffd5b506103d660048036038101906103d19190614b0e565b610dfa565b6040516103e39190614525565b60405180910390f35b61040660048036038101906104019190614b0e565b610ef0565b6040516104139190614525565b60405180910390f35b348015610427575f5ffd5b50610442600480360381019061043d9190614568565b6110cd565b60405161044f9190614525565b60405180910390f35b348015610463575f5ffd5b5061046c611103565b6040516104799190614bd5565b60405180910390f35b34801561048d575f5ffd5b50610496611127565b6040516104a39190614525565b60405180910390f35b3480156104b7575f5ffd5b506104d260048036038101906104cd9190614568565b61112f565b6040516104df9190614c61565b60405180910390f35b3480156104f3575f5ffd5b5061050e60048036038101906105099190614c7a565b611140565b60405161051b91906144f4565b60405180910390f35b34801561052f575f5ffd5b5061054a60048036038101906105459190614b0e565b6111a5565b6040516105579190614525565b60405180910390f35b34801561056b575f5ffd5b50610574611265565b6040516105819190614603565b60405180910390f35b348015610595575f5ffd5b506105b060048036038101906105ab9190614568565b6112a2565b6040516105bf93929190614cb8565b60405180910390f35b3480156105d3575f5ffd5b506105dc6112d5565b6040516105e99190614603565b60405180910390f35b3480156105fd575f5ffd5b5061061860048036038101906106139190614d23565b611312565b6040516106259190614525565b60405180910390f35b348015610639575f5ffd5b50610654600480360381019061064f9190614dba565b611341565b6040516106619190614525565b60405180910390f35b348015610675575f5ffd5b50610690600480360381019061068b9190614e9c565b611470565b60405161069d9190614525565b60405180910390f35b3480156106b1575f5ffd5b506106cc60048036038101906106c79190614568565b6114d8565b6040516106d99190614525565b60405180910390f35b3480156106ed575f5ffd5b5061070860048036038101906107039190614f3c565b6115d1565b6040516107159190614525565b60405180910390f35b348015610729575f5ffd5b50610744600480360381019061073f919061504b565b611637565b6040516107519190614525565b60405180910390f35b348015610765575f5ffd5b50610780600480360381019061077b919061511f565b611724565b60405161078d9190614525565b60405180910390f35b3480156107a1575f5ffd5b506107aa61176a565b6040516107bd979695949392919061523b565b60405180910390f35b3480156107d1575f5ffd5b506107ec60048036038101906107e791906152bd565b61180f565b6040516107f99190614525565b60405180910390f35b34801561080d575f5ffd5b506108166118e3565b604051610823919061535d565b60405180910390f35b348015610837575f5ffd5b506108406118ea565b60405161084d9190614525565b60405180910390f35b348015610861575f5ffd5b5061087c60048036038101906108779190615376565b6118f2565b6040516108899190614525565b60405180910390f35b34801561089d575f5ffd5b506108a6611907565b6040516108b39190614525565b60405180910390f35b3480156108c7575f5ffd5b506108e260048036038101906108dd919061542e565b611933565b005b3480156108ef575f5ffd5b5061090a60048036038101906109059190614568565b611947565b60405161091791906144f4565b60405180910390f35b34801561092b575f5ffd5b5061094660048036038101906109419190614568565b611958565b6040516109539190614525565b60405180910390f35b348015610967575f5ffd5b5061097061198e565b60405161097d9190614525565b60405180910390f35b348015610991575f5ffd5b506109ac60048036038101906109a79190615459565b611995565b6040516109b99190614860565b60405180910390f35b3480156109cd575f5ffd5b506109e860048036038101906109e39190614568565b611a15565b6040516109f59190614525565b60405180910390f35b610a186004803603810190610a139190615579565b611a7f565b005b348015610a25575f5ffd5b50610a406004803603810190610a3b9190614b0e565b611b08565b604051610a4d9190614525565b60405180910390f35b348015610a61575f5ffd5b50610a6a611b42565b604051610a779190614662565b60405180910390f35b348015610a8b575f5ffd5b50610a94611b6a565b604051610aa19190614603565b60405180910390f35b348015610ab5575f5ffd5b50610abe611ba7565b604051610acb9190614bd5565b60405180910390f35b348015610adf575f5ffd5b50610afa6004803603810190610af591906155ea565b611bcb565b604051610b079190614525565b60405180910390f35b348015610b1b575f5ffd5b50610b366004803603810190610b319190615628565b611be6565b604051610b439190614860565b60405180910390f35b348015610b57575f5ffd5b50610b726004803603810190610b6d9190614568565b611c66565b604051610b7f9190614525565b60405180910390f35b348015610b93575f5ffd5b50610b9c611c77565b604051610ba99190615716565b60405180910390f35b5f7f65455a86000000000000000000000000000000000000000000000000000000007bffffffffffffffffffffffffffffffffffffffffffffffffffffffff1916827bffffffffffffffffffffffffffffffffffffffffffffffffffffffff19161480610c7c57507f4e2312e0000000000000000000000000000000000000000000000000000000007bffffffffffffffffffffffffffffffffffffffffffffffffffffffff1916827bffffffffffffffffffffffffffffffffffffffffffffffffffffffff1916145b80610c8c5750610c8b82611c9e565b5b9050919050565b5f61b2fa905090565b610ca4611d07565b610cad81611dfc565b50565b606060038054610cbf9061575c565b80601f0160208091040260200160405190810160405280929190818152602001828054610ceb9061575c565b8015610d365780601f10610d0d57610100808354040283529160200191610d36565b820191905f5260205f20905b815481529060010190602001808311610d1957829003601f168201915b5050505050905090565b5f60045f8381526020019081526020015f205f015f9054906101000a900473ffffffffffffffffffffffffffffffffffffffff169050919050565b5f3073ffffffffffffffffffffffffffffffffffffffff16610d9b611ebe565b73ffffffffffffffffffffffffffffffffffffffff1614610de8576040517fe90a651e00000000000000000000000000000000000000000000000000000000815260040160405180910390fd5b63150b7a0260e01b9050949350505050565b5f5f610e0886868686611b08565b9050610e1d81610e186004611ecc565b611ef0565b505f610e2c8288888888611f5b565b90505f8165ffffffffffff1614610eb1578060045f8481526020019081526020015f206001015f6101000a81548165ffffffffffff021916908365ffffffffffff1602179055507f9a2e42fd6722813d69113e7d0079d3d940171428df7373df9c7f7617cfda28928282604051610ea49291906157bc565b60405180910390a1610ee3565b6040517f90884a4600000000000000000000000000000000000000000000000000000000815260040160405180910390fd5b8192505050949350505050565b5f5f610efe86868686611b08565b9050610f1e81610f0e6005611ecc565b610f186004611ecc565b17611ef0565b50600160045f8381526020019081526020015f205f01601e6101000a81548160ff0219169083151502179055503073ffffffffffffffffffffffffffffffffffffffff16610f6a611ebe565b73ffffffffffffffffffffffffffffffffffffffff1614611023575f5f90505b8651811015611021573073ffffffffffffffffffffffffffffffffffffffff16878281518110610fbd57610fbc6157e3565b5b602002602001015173ffffffffffffffffffffffffffffffffffffffff160361101657611015858281518110610ff657610ff56157e3565b5b6020026020010151805190602001206005611f7490919063ffffffff16565b5b806001019050610f8a565b505b6110308187878787612093565b3073ffffffffffffffffffffffffffffffffffffffff1661104f611ebe565b73ffffffffffffffffffffffffffffffffffffffff161415801561107a575061107860056120a7565b155b1561108a576110896005612113565b5b7f712ae1383f79ac853f8d882153778e0260ef8f03b504e2866e0593e04d2b291f816040516110b99190614525565b60405180910390a180915050949350505050565b5f60045f8381526020019081526020015f205f0160149054906101000a900465ffffffffffff1665ffffffffffff169050919050565b7f3e83946653575f9a39005e1545185629e92736b7528ab20ca3816f315424a81181565b5f6001905090565b5f61113982612189565b9050919050565b5f60075f8481526020019081526020015f206003015f8373ffffffffffffffffffffffffffffffffffffffff1673ffffffffffffffffffffffffffffffffffffffff1681526020019081526020015f205f9054906101000a900460ff16905092915050565b5f5f6111b386868686611b08565b90506111c7816111c25f611ecc565b611ef0565b506111d181610d40565b73ffffffffffffffffffffffffffffffffffffffff166111ef61233e565b73ffffffffffffffffffffffffffffffffffffffff161461124e5761121261233e565b6040517f233d98e30000000000000000000000000000000000000000000000000000000081526004016112459190614662565b60405180910390fd5b61125a86868686612345565b915050949350505050565b60606040518060400160405280601d81526020017f6d6f64653d626c6f636b6e756d6265722666726f6d3d64656661756c74000000815250905090565b5f5f5f5f60075f8681526020019081526020015f209050805f015481600101548260020154935093509350509193909250565b60606040518060400160405280600181526020017f3100000000000000000000000000000000000000000000000000000000000000815250905090565b5f5f61131c61233e565b905061133884828560405180602001604052805f81525061235c565b91505092915050565b5f5f6113ce876113c87f3e83946653575f9a39005e1545185629e92736b7528ab20ca3816f315424a8118c8c8c6113778e61237b565b8d8d60405161138792919061583e565b60405180910390208c805190602001206040516020016113ad9796959493929190615865565b604051602081830303815290604052805190602001206123ce565b856123e7565b90508061141257866040517f94ab6c070000000000000000000000000000000000000000000000000000000081526004016114099190614662565b60405180910390fd5b61146289888a89898080601f0160208091040260200160405190810160405280939291908181526020018383808284375f81840152601f19601f8201169050808301925050505050505088612474565b915050979650505050505050565b5f5f61147a61233e565b90506114cc87828888888080601f0160208091040260200160405190810160405280939291908181526020018383808284375f81840152601f19601f8201169050808301925050505050505087612474565b91505095945050505050565b5f5f60085f018054905090505f60085f016001836114f691906158ff565b81548110611507576115066157e3565b5b905f5260205f200190505f815f015f9054906101000a900465ffffffffffff1690505f825f0160069054906101000a900479ffffffffffffffffffffffffffffffffffffffffffffffffffff169050858265ffffffffffff161161158d578079ffffffffffffffffffffffffffffffffffffffffffffffffffff169450505050506115cc565b6115a961159987612571565b60086125ca90919063ffffffff16565b79ffffffffffffffffffffffffffffffffffffffffffffffffffff169450505050505b919050565b5f5f6115db61233e565b905061162c86828787878080601f0160208091040260200160405190810160405280939291908181526020018383808284375f81840152601f19601f8201169050808301925050505050505061235c565b915050949350505050565b5f5f61164161233e565b905061164d81846126ba565b61168e57806040517fd9b395570000000000000000000000000000000000000000000000000000000081526004016116859190614662565b60405180910390fd5b5f6116b482600161169d6118e3565b6116a79190615932565b65ffffffffffff16611bcb565b90505f6116bf61198e565b90508082101561170a578282826040517fc242ee160000000000000000000000000000000000000000000000000000000081526004016117019392919061596b565b60405180910390fd5b6117178888888887612805565b9350505050949350505050565b5f60025f8373ffffffffffffffffffffffffffffffffffffffff1673ffffffffffffffffffffffffffffffffffffffff1681526020019081526020015f20549050919050565b5f6060805f5f5f606061177b612a8a565b611783612ac4565b46305f5f1b5f67ffffffffffffffff8111156117a2576117a16146ad565b5b6040519080825280602002602001820160405280156117d05781602001602082028036833780820191505090505b507f0f00000000000000000000000000000000000000000000000000000000000000959493929190965096509650965096509650965090919293949596565b5f5f61187a846118747ff2aad550cf55f045cb27e9c559f9889fdfb6e6cdaa032301d6ea397784ae51d78989896118458b61237b565b6040516020016118599594939291906159a0565b604051602081830303815290604052805190602001206123ce565b856123e7565b9050806118be57836040517f94ab6c070000000000000000000000000000000000000000000000000000000081526004016118b59190614662565b60405180910390fd5b6118d886858760405180602001604052805f81525061235c565b915050949350505050565b5f43905090565b5f6064905090565b5f6118fe848484612aff565b90509392505050565b5f6119126008612b8a565b79ffffffffffffffffffffffffffffffffffffffffffffffffffff16905090565b61193b611d07565b61194481612bec565b50565b5f61195182612c89565b9050919050565b5f60045f8381526020019081526020015f206001015f9054906101000a900465ffffffffffff1665ffffffffffff169050919050565b5f5f905090565b5f3073ffffffffffffffffffffffffffffffffffffffff166119b5611ebe565b73ffffffffffffffffffffffffffffffffffffffff1614611a02576040517fe90a651e00000000000000000000000000000000000000000000000000000000815260040160405180910390fd5b63bc197c8160e01b905095945050505050565b5f60045f8381526020019081526020015f205f01601a9054906101000a900463ffffffff1663ffffffff1660045f8481526020019081526020015f205f0160149054906101000a900465ffffffffffff16611a7091906159f1565b65ffffffffffff169050919050565b611a87611d07565b5f5f8573ffffffffffffffffffffffffffffffffffffffff16858585604051611ab192919061583e565b5f6040518083038185875af1925050503d805f8114611aeb576040519150601f19603f3d011682016040523d82523d5f602084013e611af0565b606091505b5091509150611aff8282612c93565b50505050505050565b5f84848484604051602001611b209493929190615bee565b604051602081830303815290604052805190602001205f1c9050949350505050565b5f60095f9054906101000a900473ffffffffffffffffffffffffffffffffffffffff16905090565b60606040518060400160405280602081526020017f737570706f72743d627261766f2671756f72756d3d666f722c6162737461696e815250905090565b7ff2aad550cf55f045cb27e9c559f9889fdfb6e6cdaa032301d6ea397784ae51d781565b5f611bde8383611bd9612cb7565b612aff565b905092915050565b5f3073ffffffffffffffffffffffffffffffffffffffff16611c06611ebe565b73ffffffffffffffffffffffffffffffffffffffff1614611c53576040517fe90a651e00000000000000000000000000000000000000000000000000000000815260040160405180910390fd5b63f23a6e6160e01b905095945050505050565b5f611c7082612ccd565b9050919050565b5f7f0000000000000000000000000000000000000000000000000000000000000000905090565b5f7f01ffc9a7000000000000000000000000000000000000000000000000000000007bffffffffffffffffffffffffffffffffffffffffffffffffffffffff1916827bffffffffffffffffffffffffffffffffffffffffffffffffffffffff1916149050919050565b611d0f61233e565b73ffffffffffffffffffffffffffffffffffffffff16611d2d611ebe565b73ffffffffffffffffffffffffffffffffffffffff1614611d8c57611d5061233e565b6040517f47096e47000000000000000000000000000000000000000000000000000000008152600401611d839190614662565b60405180910390fd5b3073ffffffffffffffffffffffffffffffffffffffff16611dab611ebe565b73ffffffffffffffffffffffffffffffffffffffff1614611dfa575f611dcf612d79565b604051611ddd92919061583e565b604051809103902090505b80611df36005612d85565b03611de857505b565b5f611e056118ea565b905080821115611e4e5781816040517f243e5445000000000000000000000000000000000000000000000000000000008152600401611e45929190615c46565b60405180910390fd5b5f611e57611907565b9050611e7e611e646118e3565b611e6d85612eda565b6008612f479092919063ffffffff16565b50507f0553476bf02ef2726e8ce5ced78d63e26e602e4a2257b1f559418e24b46339978184604051611eb1929190615c46565b60405180910390a1505050565b5f611ec7612f62565b905090565b5f816007811115611ee057611edf614bee565b5b60ff166001901b5f1b9050919050565b5f5f611efb8461112f565b90505f5f1b83611f0a83611ecc565b1603611f51578381846040517f31b75e4d000000000000000000000000000000000000000000000000000000008152600401611f4893929190615c6d565b60405180910390fd5b8091505092915050565b5f611f698686868686612f8a565b905095945050505050565b5f825f0160109054906101000a90046fffffffffffffffffffffffffffffffff169050825f015f9054906101000a90046fffffffffffffffffffffffffffffffff166fffffffffffffffffffffffffffffffff16600182016fffffffffffffffffffffffffffffffff1603612015576040517f8acb5f2700000000000000000000000000000000000000000000000000000000815260040160405180910390fd5b81836001015f836fffffffffffffffffffffffffffffffff166fffffffffffffffffffffffffffffffff1681526020019081526020015f208190555060018101835f0160106101000a8154816fffffffffffffffffffffffffffffffff02191690836fffffffffffffffffffffffffffffffff160217905550505050565b6120a08585858585613190565b5050505050565b5f815f015f9054906101000a90046fffffffffffffffffffffffffffffffff166fffffffffffffffffffffffffffffffff16825f0160109054906101000a90046fffffffffffffffffffffffffffffffff166fffffffffffffffffffffffffffffffff16149050919050565b5f815f015f6101000a8154816fffffffffffffffffffffffffffffffff02191690836fffffffffffffffffffffffffffffffff1602179055505f815f0160106101000a8154816fffffffffffffffffffffffffffffffff02191690836fffffffffffffffffffffffffffffffff16021790555050565b5f5f61219483613244565b9050600560078111156121aa576121a9614bee565b5b8160078111156121bd576121bc614bee565b5b146121cb5780915050612339565b5f600a5f8581526020019081526020015f2054905060095f9054906101000a900473ffffffffffffffffffffffffffffffffffffffff1673ffffffffffffffffffffffffffffffffffffffff1663584b153e826040518263ffffffff1660e01b815260040161223a9190614bd5565b602060405180830381865afa158015612255573d5f5f3e3d5ffd5b505050506040513d601f19601f820116820180604052508101906122799190615ccc565b1561228957600592505050612339565b60095f9054906101000a900473ffffffffffffffffffffffffffffffffffffffff1673ffffffffffffffffffffffffffffffffffffffff16632ab0f529826040518263ffffffff1660e01b81526004016122e39190614bd5565b602060405180830381865afa1580156122fe573d5f5f3e3d5ffd5b505050506040513d601f19601f820116820180604052508101906123229190615ccc565b1561233257600792505050612339565b6002925050505b919050565b5f33905090565b5f6123528585858561339b565b9050949350505050565b5f6123718585858561236c612cb7565b612474565b9050949350505050565b5f60025f8373ffffffffffffffffffffffffffffffffffffffff1673ffffffffffffffffffffffffffffffffffffffff1681526020019081526020015f205f815480929190600101919050559050919050565b5f6123e06123da613472565b83613528565b9050919050565b5f5f5f6123f48585613568565b50915091505f600381111561240c5761240b614bee565b5b81600381111561241f5761241e614bee565b5b14801561245757508573ffffffffffffffffffffffffffffffffffffffff168273ffffffffffffffffffffffffffffffffffffffff16145b8061246957506124688686866135bd565b5b925050509392505050565b5f612488866124836001611ecc565b611ef0565b505f61249d86612497896110cd565b85612aff565b90506124ac87878784876136dc565b5f83510361250d578573ffffffffffffffffffffffffffffffffffffffff167fb8e138887d0aa13bab447e82de9d5c1777041ecd21ca36ba824ff1e6c07ddda4888784886040516125009493929190615cf7565b60405180910390a2612564565b8573ffffffffffffffffffffffffffffffffffffffff167fe2babfbac5889a709b63bb7f598b324e08bc5a4fb9ec647fb3cbc9ec07eb8712888784888860405161255b959493929190615d89565b60405180910390a25b8091505095945050505050565b5f65ffffffffffff80168211156125c2576030826040517f6dfcc6500000000000000000000000000000000000000000000000000000000081526004016125b9929190615e21565b60405180910390fd5b819050919050565b5f5f835f018054905090505f5f90505f829050600583111561264e575f6125f0846138cb565b846125fb91906158ff565b9050612609875f01826139c1565b5f015f9054906101000a900465ffffffffffff1665ffffffffffff168665ffffffffffff16101561263c5780915061264c565b6001816126499190615e48565b92505b505b5f61265d875f018785856139d3565b90505f81146126ac5761267e875f0160018361267991906158ff565b6139c1565b5f0160069054906101000a900479ffffffffffffffffffffffffffffffffffffffffffffffffffff166126ae565b5f5b94505050505092915050565b5f5f8251905060348110156126d35760019150506127ff565b5f6014820384015190507f2370726f706f7365723d3078000000000000000000000000000000000000000073ffffffffffffffffffffffffffffffffffffffff19168173ffffffffffffffffffffffffffffffffffffffff19161461273d576001925050506127ff565b5f5f90505f60288461274f91906158ff565b90505b838110156127c9575f5f612782888481518110612772576127716157e3565b5b602001015160f81c60f81b613a48565b915091508161279a57600196505050505050506127ff565b8060ff1660048573ffffffffffffffffffffffffffffffffffffffff16901b1793505050806001019050612752565b508573ffffffffffffffffffffffffffffffffffffffff168173ffffffffffffffffffffffffffffffffffffffff161493505050505b92915050565b5f6128198686868680519060200120611b08565b90508451865114158061282e57508351865114155b8061283957505f8651145b15612882578551845186516040517f447b05d000000000000000000000000000000000000000000000000000000000815260040161287993929190614cb8565b60405180910390fd5b5f60045f8381526020019081526020015f205f0160149054906101000a900465ffffffffffff1665ffffffffffff161461290157806128c08261112f565b5f5f1b6040517f31b75e4d0000000000000000000000000000000000000000000000000000000081526004016128f893929190615c6d565b60405180910390fd5b5f61290a611127565b6129126118e3565b65ffffffffffff166129249190615e48565b90505f61292f610c93565b90505f60045f8581526020019081526020015f20905084815f015f6101000a81548173ffffffffffffffffffffffffffffffffffffffff021916908373ffffffffffffffffffffffffffffffffffffffff16021790555061298f83612571565b815f0160146101000a81548165ffffffffffff021916908365ffffffffffff1602179055506129bd82613adf565b815f01601a6101000a81548163ffffffff021916908363ffffffff1602179055507f7d84a6263ae0d98d3329bd7b46bb4e8d6f98cd35a7adb45c274c8b7fd5ebd5e084868b8b8d5167ffffffffffffffff811115612a1e57612a1d6146ad565b5b604051908082528060200260200182016040528015612a5157816020015b6060815260200190600190039081612a3c5790505b508c89898b612a609190615e48565b8e604051612a7699989796959493929190615f7e565b60405180910390a150505095945050505050565b6060612abf5f7f0000000000000000000000000000000000000000000000000000000000000000613b3690919063ffffffff16565b905090565b6060612afa60017f0000000000000000000000000000000000000000000000000000000000000000613b3690919063ffffffff16565b905090565b5f612b08611c77565b73ffffffffffffffffffffffffffffffffffffffff16633a46b1a885856040518363ffffffff1660e01b8152600401612b4292919061602c565b602060405180830381865afa158015612b5d573d5f5f3e3d5ffd5b505050506040513d601f19601f82011682018060405250810190612b819190616067565b90509392505050565b5f5f825f018054905090505f8114612be257612bb4835f01600183612baf91906158ff565b6139c1565b5f0160069054906101000a900479ffffffffffffffffffffffffffffffffffffffffffffffffffff16612be4565b5f5b915050919050565b7f08f74ea46ef7894f65eabfb5e6e695de773a000b47c529ab559178069b22640160095f9054906101000a900473ffffffffffffffffffffffffffffffffffffffff1682604051612c3e929190616092565b60405180910390a18060095f6101000a81548173ffffffffffffffffffffffffffffffffffffffff021916908373ffffffffffffffffffffffffffffffffffffffff16021790555050565b5f60019050919050565b606082612ca857612ca382613be3565b612cb0565b819050612cb1565b5b92915050565b606060405180602001604052805f815250905090565b5f612cd66118ea565b612cdf836114d8565b612ce7611c77565b73ffffffffffffffffffffffffffffffffffffffff16638e539e8c856040518263ffffffff1660e01b8152600401612d1f9190614525565b602060405180830381865afa158015612d3a573d5f5f3e3d5ffd5b505050506040513d601f19601f82011682018060405250810190612d5e9190616067565b612d6891906160b9565b612d729190616127565b9050919050565b365f5f36915091509091565b5f5f825f015f9054906101000a90046fffffffffffffffffffffffffffffffff169050825f0160109054906101000a90046fffffffffffffffffffffffffffffffff166fffffffffffffffffffffffffffffffff16816fffffffffffffffffffffffffffffffff1603612e24576040517f75e52f4f00000000000000000000000000000000000000000000000000000000815260040160405180910390fd5b826001015f826fffffffffffffffffffffffffffffffff166fffffffffffffffffffffffffffffffff1681526020019081526020015f20549150826001015f826fffffffffffffffffffffffffffffffff166fffffffffffffffffffffffffffffffff1681526020019081526020015f205f905560018101835f015f6101000a8154816fffffffffffffffffffffffffffffffff02191690836fffffffffffffffffffffffffffffffff16021790555050919050565b5f79ffffffffffffffffffffffffffffffffffffffffffffffffffff8016821115612f3f5760d0826040517f6dfcc650000000000000000000000000000000000000000000000000000000008152600401612f36929190616190565b60405180910390fd5b819050919050565b5f5f612f56855f018585613c27565b91509150935093915050565b5f60095f9054906101000a900473ffffffffffffffffffffffffffffffffffffffff16905090565b5f5f60095f9054906101000a900473ffffffffffffffffffffffffffffffffffffffff1673ffffffffffffffffffffffffffffffffffffffff1663f27a0c926040518163ffffffff1660e01b8152600401602060405180830381865afa158015612ff6573d5f5f3e3d5ffd5b505050506040513d601f19601f8201168201806040525081019061301a9190616067565b90505f61302684613f8f565b905060095f9054906101000a900473ffffffffffffffffffffffffffffffffffffffff1673ffffffffffffffffffffffffffffffffffffffff1663b1c5f4278888885f866040518663ffffffff1660e01b815260040161308a9594939291906161fb565b602060405180830381865afa1580156130a5573d5f5f3e3d5ffd5b505050506040513d601f19601f820116820180604052508101906130c99190616275565b600a5f8a81526020019081526020015f208190555060095f9054906101000a900473ffffffffffffffffffffffffffffffffffffffff1673ffffffffffffffffffffffffffffffffffffffff16638f2a0bb08888885f86886040518763ffffffff1660e01b8152600401613142969594939291906162a0565b5f604051808303815f87803b158015613159575f5ffd5b505af115801561316b573d5f5f3e3d5ffd5b50505050613183824261317e9190615e48565b612571565b9250505095945050505050565b60095f9054906101000a900473ffffffffffffffffffffffffffffffffffffffff1673ffffffffffffffffffffffffffffffffffffffff1663e38335e5348686865f6131db88613f8f565b6040518763ffffffff1660e01b81526004016131fb9594939291906161fb565b5f604051808303818588803b158015613212575f5ffd5b505af1158015613224573d5f5f3e3d5ffd5b5050505050600a5f8681526020019081526020015f205f90555050505050565b5f5f60045f8481526020019081526020015f2090505f815f01601e9054906101000a900460ff1690505f825f01601f9054906101000a900460ff16905081156132935760079350505050613396565b80156132a55760029350505050613396565b5f6132af866110cd565b90505f81036132f557856040517f6ad060750000000000000000000000000000000000000000000000000000000081526004016132ec9190614525565b60405180910390fd5b5f6132fe6118e3565b65ffffffffffff16905080821061331c575f95505050505050613396565b5f61332688611a15565b905081811061333e5760019650505050505050613396565b61334788613fac565b1580613359575061335788613ff0565b155b1561336d5760039650505050505050613396565b5f61337789611958565b0361338b5760049650505050505050613396565b600596505050505050505b919050565b5f5f6133a986868686614017565b90505f600a5f8381526020019081526020015f205490505f5f1b81146134655760095f9054906101000a900473ffffffffffffffffffffffffffffffffffffffff1673ffffffffffffffffffffffffffffffffffffffff1663c4d252f5826040518263ffffffff1660e01b81526004016134239190614bd5565b5f604051808303815f87803b15801561343a575f5ffd5b505af115801561344c573d5f5f3e3d5ffd5b50505050600a5f8381526020019081526020015f205f90555b8192505050949350505050565b5f7f000000000000000000000000000000000000000000000000000000000000000073ffffffffffffffffffffffffffffffffffffffff163073ffffffffffffffffffffffffffffffffffffffff161480156134ed57507f000000000000000000000000000000000000000000000000000000000000000046145b1561351a577f00000000000000000000000000000000000000000000000000000000000000009050613525565b6135226140f9565b90505b90565b5f6040517f190100000000000000000000000000000000000000000000000000000000000081528360028201528260228201526042812091505092915050565b5f5f5f60418451036135a8575f5f5f602087015192506040870151915060608701515f1a905061359a8882858561418e565b9550955095505050506135b6565b5f600285515f1b9250925092505b9250925092565b5f5f5f8573ffffffffffffffffffffffffffffffffffffffff1685856040516024016135ea929190616314565b604051602081830303815290604052631626ba7e60e01b6020820180517bffffffffffffffffffffffffffffffffffffffffffffffffffffffff838183161783525050505060405161363c9190616372565b5f60405180830381855afa9150503d805f8114613674576040519150601f19603f3d011682016040523d82523d5f602084013e613679565b606091505b509150915081801561368d57506020815110155b80156136d15750631626ba7e60e01b7bffffffffffffffffffffffffffffffffffffffffffffffffffffffff1916818060200190518101906136cf9190616275565b145b925050509392505050565b5f60075f8781526020019081526020015f209050806003015f8673ffffffffffffffffffffffffffffffffffffffff1673ffffffffffffffffffffffffffffffffffffffff1681526020019081526020015f205f9054906101000a900460ff161561377e57846040517f71c6af490000000000000000000000000000000000000000000000000000000081526004016137759190614662565b60405180910390fd5b6001816003015f8773ffffffffffffffffffffffffffffffffffffffff1673ffffffffffffffffffffffffffffffffffffffff1681526020019081526020015f205f6101000a81548160ff0219169083151502179055505f60028111156137e8576137e7614bee565b5b60ff168460ff16036138125782815f015f8282546138069190615e48565b925050819055506138c3565b6001600281111561382657613825614bee565b5b60ff168460ff16036138515782816001015f8282546138459190615e48565b925050819055506138c2565b60028081111561386457613863614bee565b5b60ff168460ff160361388f5782816002015f8282546138839190615e48565b925050819055506138c1565b6040517f06b337c200000000000000000000000000000000000000000000000000000000815260040160405180910390fd5b5b5b505050505050565b5f5f82036138db575f90506139bc565b5f60016138e784614275565b901c6001901b90506001818481613901576139006160fa565b5b048201901c9050600181848161391a576139196160fa565b5b048201901c90506001818481613933576139326160fa565b5b048201901c9050600181848161394c5761394b6160fa565b5b048201901c90506001818481613965576139646160fa565b5b048201901c9050600181848161397e5761397d6160fa565b5b048201901c90506001818481613997576139966160fa565b5b048201901c90506139b8818285816139b2576139b16160fa565b5b0461434c565b9150505b919050565b5f825f528160205f2001905092915050565b5f5b81831015613a3d575f6139e88484614364565b90508465ffffffffffff166139fd87836139c1565b5f015f9054906101000a900465ffffffffffff1665ffffffffffff161115613a2757809250613a37565b600181613a349190615e48565b93505b506139d5565b819050949350505050565b5f5f5f8360f81c90508060ff16602f108015613a675750603a8160ff16105b15613a7c576001603082039250925050613ada565b8060ff166040108015613a92575060478160ff16105b15613aa7576001603782039250925050613ada565b8060ff166060108015613abd575060678160ff16105b15613ad2576001605782039250925050613ada565b5f5f92509250505b915091565b5f63ffffffff8016821115613b2e576020826040517f6dfcc650000000000000000000000000000000000000000000000000000000008152600401613b259291906163c1565b60405180910390fd5b819050919050565b606060ff5f1b8314613b5257613b4b83614389565b9050613bdd565b818054613b5e9061575c565b80601f0160208091040260200160405190810160405280929190818152602001828054613b8a9061575c565b8015613bd55780601f10613bac57610100808354040283529160200191613bd5565b820191905f5260205f20905b815481529060010190602001808311613bb857829003601f168201915b505050505090505b92915050565b5f81511115613bf55780518082602001fd5b6040517f1425ea4200000000000000000000000000000000000000000000000000000000815260040160405180910390fd5b5f5f5f858054905090505f811115613ea7575f613c5087600184613c4b91906158ff565b6139c1565b6040518060400160405290815f82015f9054906101000a900465ffffffffffff1665ffffffffffff1665ffffffffffff1681526020015f820160069054906101000a900479ffffffffffffffffffffffffffffffffffffffffffffffffffff1679ffffffffffffffffffffffffffffffffffffffffffffffffffff1679ffffffffffffffffffffffffffffffffffffffffffffffffffff168152505090508565ffffffffffff16815f015165ffffffffffff161115613d3b576040517f2520601d00000000000000000000000000000000000000000000000000000000815260040160405180910390fd5b8565ffffffffffff16815f015165ffffffffffff1603613dbd5784613d6c88600185613d6791906158ff565b6139c1565b5f0160066101000a81548179ffffffffffffffffffffffffffffffffffffffffffffffffffff021916908379ffffffffffffffffffffffffffffffffffffffffffffffffffff160217905550613e96565b8660405180604001604052808865ffffffffffff1681526020018779ffffffffffffffffffffffffffffffffffffffffffffffffffff16815250908060018154018082558091505060019003905f5260205f20015f909190919091505f820151815f015f6101000a81548165ffffffffffff021916908365ffffffffffff1602179055506020820151815f0160066101000a81548179ffffffffffffffffffffffffffffffffffffffffffffffffffff021916908379ffffffffffffffffffffffffffffffffffffffffffffffffffff16021790555050505b806020015185935093505050613f87565b8560405180604001604052808765ffffffffffff1681526020018679ffffffffffffffffffffffffffffffffffffffffffffffffffff16815250908060018154018082558091505060019003905f5260205f20015f909190919091505f820151815f015f6101000a81548165ffffffffffff021916908365ffffffffffff1602179055506020820151815f0160066101000a81548179ffffffffffffffffffffffffffffffffffffffffffffffffffff021916908379ffffffffffffffffffffffffffffffffffffffffffffffffffff16021790555050505f8492509250505b935093915050565b5f813060601b6bffffffffffffffffffffffff1916189050919050565b5f5f60075f8481526020019081526020015f20905080600201548160010154613fd59190615e48565b613fe6613fe1856110cd565b611c66565b1115915050919050565b5f5f60075f8481526020019081526020015f209050805f0154816001015411915050919050565b5f5f61402586868686611b08565b9050614089816140356007611ecc565b61403f6006611ecc565b6140496002611ecc565b60018060078081111561405f5761405e614bee565b5b61406991906163e8565b6002614075919061654b565b61407f91906158ff565b5f1b181818611ef0565b50600160045f8381526020019081526020015f205f01601f6101000a81548160ff0219169083151502179055507f789cf55be980739dad1d0699b93b58e806b51c9d96619bfa8fe0a28abaa7b30c816040516140e59190614525565b60405180910390a180915050949350505050565b5f7f8b73c3c69bb8fe3d512ecc4cf759cc79239f7b179b0ffacaa9a75d522b39400f7f00000000000000000000000000000000000000000000000000000000000000007f00000000000000000000000000000000000000000000000000000000000000004630604051602001614173959493929190616595565b60405160208183030381529060405280519060200120905090565b5f5f5f7f7fffffffffffffffffffffffffffffff5d576e7357a4501ddfe92f46681b20a0845f1c11156141ca575f60038592509250925061426b565b5f6001888888886040515f81526020016040526040516141ed94939291906165e6565b6020604051602081039080840390855afa15801561420d573d5f5f3e3d5ffd5b5050506020604051035190505f73ffffffffffffffffffffffffffffffffffffffff168173ffffffffffffffffffffffffffffffffffffffff160361425e575f60015f5f1b9350935093505061426b565b805f5f5f1b935093509350505b9450945094915050565b5f5f5f90505f608084901c111561429457608083901c92506080810190505b5f604084901c11156142ae57604083901c92506040810190505b5f602084901c11156142c857602083901c92506020810190505b5f601084901c11156142e257601083901c92506010810190505b5f600884901c11156142fc57600883901c92506008810190505b5f600484901c111561431657600483901c92506004810190505b5f600284901c111561433057600283901c92506002810190505b5f600184901c1115614343576001810190505b80915050919050565b5f81831061435a578161435c565b825b905092915050565b5f60028284186143749190616127565b8284166143819190615e48565b905092915050565b60605f614395836143fb565b90505f602067ffffffffffffffff8111156143b3576143b26146ad565b5b6040519080825280601f01601f1916602001820160405280156143e55781602001600182028036833780820191505090505b5090508181528360208201528092505050919050565b5f5f60ff835f1c169050601f811115614440576040517fb3512b0c00000000000000000000000000000000000000000000000000000000815260040160405180910390fd5b80915050919050565b5f604051905090565b5f5ffd5b5f5ffd5b5f7fffffffff0000000000000000000000000000000000000000000000000000000082169050919050565b61448e8161445a565b8114614498575f5ffd5b50565b5f813590506144a981614485565b92915050565b5f602082840312156144c4576144c3614452565b5b5f6144d18482850161449b565b91505092915050565b5f8115159050919050565b6144ee816144da565b82525050565b5f6020820190506145075f8301846144e5565b92915050565b5f819050919050565b61451f8161450d565b82525050565b5f6020820190506145385f830184614516565b92915050565b6145478161450d565b8114614551575f5ffd5b50565b5f813590506145628161453e565b92915050565b5f6020828403121561457d5761457c614452565b5b5f61458a84828501614554565b91505092915050565b5f81519050919050565b5f82825260208201905092915050565b8281835e5f83830152505050565b5f601f19601f8301169050919050565b5f6145d582614593565b6145df818561459d565b93506145ef8185602086016145ad565b6145f8816145bb565b840191505092915050565b5f6020820190508181035f83015261461b81846145cb565b905092915050565b5f73ffffffffffffffffffffffffffffffffffffffff82169050919050565b5f61464c82614623565b9050919050565b61465c81614642565b82525050565b5f6020820190506146755f830184614653565b92915050565b61468481614642565b811461468e575f5ffd5b50565b5f8135905061469f8161467b565b92915050565b5f5ffd5b5f5ffd5b7f4e487b71000000000000000000000000000000000000000000000000000000005f52604160045260245ffd5b6146e3826145bb565b810181811067ffffffffffffffff82111715614702576147016146ad565b5b80604052505050565b5f614714614449565b905061472082826146da565b919050565b5f67ffffffffffffffff82111561473f5761473e6146ad565b5b614748826145bb565b9050602081019050919050565b828183375f83830152505050565b5f61477561477084614725565b61470b565b905082815260208101848484011115614791576147906146a9565b5b61479c848285614755565b509392505050565b5f82601f8301126147b8576147b76146a5565b5b81356147c8848260208601614763565b91505092915050565b5f5f5f5f608085870312156147e9576147e8614452565b5b5f6147f687828801614691565b945050602061480787828801614691565b935050604061481887828801614554565b925050606085013567ffffffffffffffff81111561483957614838614456565b5b614845878288016147a4565b91505092959194509250565b61485a8161445a565b82525050565b5f6020820190506148735f830184614851565b92915050565b5f67ffffffffffffffff821115614893576148926146ad565b5b602082029050602081019050919050565b5f5ffd5b5f6148ba6148b584614879565b61470b565b905080838252602082019050602084028301858111156148dd576148dc6148a4565b5b835b8181101561490657806148f28882614691565b8452602084019350506020810190506148df565b5050509392505050565b5f82601f830112614924576149236146a5565b5b81356149348482602086016148a8565b91505092915050565b5f67ffffffffffffffff821115614957576149566146ad565b5b602082029050602081019050919050565b5f61497a6149758461493d565b61470b565b9050808382526020820190506020840283018581111561499d5761499c6148a4565b5b835b818110156149c657806149b28882614554565b84526020840193505060208101905061499f565b5050509392505050565b5f82601f8301126149e4576149e36146a5565b5b81356149f4848260208601614968565b91505092915050565b5f67ffffffffffffffff821115614a1757614a166146ad565b5b602082029050602081019050919050565b5f614a3a614a35846149fd565b61470b565b90508083825260208201905060208402830185811115614a5d57614a5c6148a4565b5b835b81811015614aa457803567ffffffffffffffff811115614a8257614a816146a5565b5b808601614a8f89826147a4565b85526020850194505050602081019050614a5f565b5050509392505050565b5f82601f830112614ac257614ac16146a5565b5b8135614ad2848260208601614a28565b91505092915050565b5f819050919050565b614aed81614adb565b8114614af7575f5ffd5b50565b5f81359050614b0881614ae4565b92915050565b5f5f5f5f60808587031215614b2657614b25614452565b5b5f85013567ffffffffffffffff811115614b4357614b42614456565b5b614b4f87828801614910565b945050602085013567ffffffffffffffff811115614b7057614b6f614456565b5b614b7c878288016149d0565b935050604085013567ffffffffffffffff811115614b9d57614b9c614456565b5b614ba987828801614aae565b9250506060614bba87828801614afa565b91505092959194509250565b614bcf81614adb565b82525050565b5f602082019050614be85f830184614bc6565b92915050565b7f4e487b71000000000000000000000000000000000000000000000000000000005f52602160045260245ffd5b60088110614c2c57614c2b614bee565b5b50565b5f819050614c3c82614c1b565b919050565b5f614c4b82614c2f565b9050919050565b614c5b81614c41565b82525050565b5f602082019050614c745f830184614c52565b92915050565b5f5f60408385031215614c9057614c8f614452565b5b5f614c9d85828601614554565b9250506020614cae85828601614691565b9150509250929050565b5f606082019050614ccb5f830186614516565b614cd86020830185614516565b614ce56040830184614516565b949350505050565b5f60ff82169050919050565b614d0281614ced565b8114614d0c575f5ffd5b50565b5f81359050614d1d81614cf9565b92915050565b5f5f60408385031215614d3957614d38614452565b5b5f614d4685828601614554565b9250506020614d5785828601614d0f565b9150509250929050565b5f5ffd5b5f5f83601f840112614d7a57614d796146a5565b5b8235905067ffffffffffffffff811115614d9757614d96614d61565b5b602083019150836001820283011115614db357614db26148a4565b5b9250929050565b5f5f5f5f5f5f5f60c0888a031215614dd557614dd4614452565b5b5f614de28a828b01614554565b9750506020614df38a828b01614d0f565b9650506040614e048a828b01614691565b955050606088013567ffffffffffffffff811115614e2557614e24614456565b5b614e318a828b01614d65565b9450945050608088013567ffffffffffffffff811115614e5457614e53614456565b5b614e608a828b016147a4565b92505060a088013567ffffffffffffffff811115614e8157614e80614456565b5b614e8d8a828b016147a4565b91505092959891949750929550565b5f5f5f5f5f60808688031215614eb557614eb4614452565b5b5f614ec288828901614554565b9550506020614ed388828901614d0f565b945050604086013567ffffffffffffffff811115614ef457614ef3614456565b5b614f0088828901614d65565b9350935050606086013567ffffffffffffffff811115614f2357614f22614456565b5b614f2f888289016147a4565b9150509295509295909350565b5f5f5f5f60608587031215614f5457614f53614452565b5b5f614f6187828801614554565b9450506020614f7287828801614d0f565b935050604085013567ffffffffffffffff811115614f9357614f92614456565b5b614f9f87828801614d65565b925092505092959194509250565b5f67ffffffffffffffff821115614fc757614fc66146ad565b5b614fd0826145bb565b9050602081019050919050565b5f614fef614fea84614fad565b61470b565b90508281526020810184848401111561500b5761500a6146a9565b5b615016848285614755565b509392505050565b5f82601f830112615032576150316146a5565b5b8135615042848260208601614fdd565b91505092915050565b5f5f5f5f6080858703121561506357615062614452565b5b5f85013567ffffffffffffffff8111156150805761507f614456565b5b61508c87828801614910565b945050602085013567ffffffffffffffff8111156150ad576150ac614456565b5b6150b9878288016149d0565b935050604085013567ffffffffffffffff8111156150da576150d9614456565b5b6150e687828801614aae565b925050606085013567ffffffffffffffff81111561510757615106614456565b5b6151138782880161501e565b91505092959194509250565b5f6020828403121561513457615133614452565b5b5f61514184828501614691565b91505092915050565b5f7fff0000000000000000000000000000000000000000000000000000000000000082169050919050565b61517e8161514a565b82525050565b5f81519050919050565b5f82825260208201905092915050565b5f819050602082019050919050565b6151b68161450d565b82525050565b5f6151c783836151ad565b60208301905092915050565b5f602082019050919050565b5f6151e982615184565b6151f3818561518e565b93506151fe8361519e565b805f5b8381101561522e57815161521588826151bc565b9750615220836151d3565b925050600181019050615201565b5085935050505092915050565b5f60e08201905061524e5f83018a615175565b818103602083015261526081896145cb565b9050818103604083015261527481886145cb565b90506152836060830187614516565b6152906080830186614653565b61529d60a0830185614bc6565b81810360c08301526152af81846151df565b905098975050505050505050565b5f5f5f5f608085870312156152d5576152d4614452565b5b5f6152e287828801614554565b94505060206152f387828801614d0f565b935050604061530487828801614691565b925050606085013567ffffffffffffffff81111561532557615324614456565b5b615331878288016147a4565b91505092959194509250565b5f65ffffffffffff82169050919050565b6153578161533d565b82525050565b5f6020820190506153705f83018461534e565b92915050565b5f5f5f6060848603121561538d5761538c614452565b5b5f61539a86828701614691565b93505060206153ab86828701614554565b925050604084013567ffffffffffffffff8111156153cc576153cb614456565b5b6153d8868287016147a4565b9150509250925092565b5f6153ec82614623565b9050919050565b5f6153fd826153e2565b9050919050565b61540d816153f3565b8114615417575f5ffd5b50565b5f8135905061542881615404565b92915050565b5f6020828403121561544357615442614452565b5b5f6154508482850161541a565b91505092915050565b5f5f5f5f5f60a0868803121561547257615471614452565b5b5f61547f88828901614691565b955050602061549088828901614691565b945050604086013567ffffffffffffffff8111156154b1576154b0614456565b5b6154bd888289016149d0565b935050606086013567ffffffffffffffff8111156154de576154dd614456565b5b6154ea888289016149d0565b925050608086013567ffffffffffffffff81111561550b5761550a614456565b5b615517888289016147a4565b9150509295509295909350565b5f5f83601f840112615539576155386146a5565b5b8235905067ffffffffffffffff81111561555657615555614d61565b5b602083019150836001820283011115615572576155716148a4565b5b9250929050565b5f5f5f5f6060858703121561559157615590614452565b5b5f61559e87828801614691565b94505060206155af87828801614554565b935050604085013567ffffffffffffffff8111156155d0576155cf614456565b5b6155dc87828801615524565b925092505092959194509250565b5f5f60408385031215615600576155ff614452565b5b5f61560d85828601614691565b925050602061561e85828601614554565b9150509250929050565b5f5f5f5f5f60a0868803121561564157615640614452565b5b5f61564e88828901614691565b955050602061565f88828901614691565b945050604061567088828901614554565b935050606061568188828901614554565b925050608086013567ffffffffffffffff8111156156a2576156a1614456565b5b6156ae888289016147a4565b9150509295509295909350565b5f819050919050565b5f6156de6156d96156d484614623565b6156bb565b614623565b9050919050565b5f6156ef826156c4565b9050919050565b5f615700826156e5565b9050919050565b615710816156f6565b82525050565b5f6020820190506157295f830184615707565b92915050565b7f4e487b71000000000000000000000000000000000000000000000000000000005f52602260045260245ffd5b5f600282049050600182168061577357607f821691505b6020821081036157865761578561572f565b5b50919050565b5f6157a66157a161579c8461533d565b6156bb565b61450d565b9050919050565b6157b68161578c565b82525050565b5f6040820190506157cf5f830185614516565b6157dc60208301846157ad565b9392505050565b7f4e487b71000000000000000000000000000000000000000000000000000000005f52603260045260245ffd5b5f81905092915050565b5f6158258385615810565b9350615832838584614755565b82840190509392505050565b5f61584a82848661581a565b91508190509392505050565b61585f81614ced565b82525050565b5f60e0820190506158785f83018a614bc6565b6158856020830189614516565b6158926040830188615856565b61589f6060830187614653565b6158ac6080830186614516565b6158b960a0830185614bc6565b6158c660c0830184614bc6565b98975050505050505050565b7f4e487b71000000000000000000000000000000000000000000000000000000005f52601160045260245ffd5b5f6159098261450d565b91506159148361450d565b925082820390508181111561592c5761592b6158d2565b5b92915050565b5f61593c8261533d565b91506159478361533d565b9250828203905065ffffffffffff811115615965576159646158d2565b5b92915050565b5f60608201905061597e5f830186614653565b61598b6020830185614516565b6159986040830184614516565b949350505050565b5f60a0820190506159b35f830188614bc6565b6159c06020830187614516565b6159cd6040830186615856565b6159da6060830185614653565b6159e76080830184614516565b9695505050505050565b5f6159fb8261533d565b9150615a068361533d565b9250828201905065ffffffffffff811115615a2457615a236158d2565b5b92915050565b5f81519050919050565b5f82825260208201905092915050565b5f819050602082019050919050565b615a5c81614642565b82525050565b5f615a6d8383615a53565b60208301905092915050565b5f602082019050919050565b5f615a8f82615a2a565b615a998185615a34565b9350615aa483615a44565b805f5b83811015615ad4578151615abb8882615a62565b9750615ac683615a79565b925050600181019050615aa7565b5085935050505092915050565b5f81519050919050565b5f82825260208201905092915050565b5f819050602082019050919050565b5f81519050919050565b5f82825260208201905092915050565b5f615b2e82615b0a565b615b388185615b14565b9350615b488185602086016145ad565b615b51816145bb565b840191505092915050565b5f615b678383615b24565b905092915050565b5f602082019050919050565b5f615b8582615ae1565b615b8f8185615aeb565b935083602082028501615ba185615afb565b805f5b85811015615bdc5784840389528151615bbd8582615b5c565b9450615bc883615b6f565b925060208a01995050600181019050615ba4565b50829750879550505050505092915050565b5f6080820190508181035f830152615c068187615a85565b90508181036020830152615c1a81866151df565b90508181036040830152615c2e8185615b7b565b9050615c3d6060830184614bc6565b95945050505050565b5f604082019050615c595f830185614516565b615c666020830184614516565b9392505050565b5f606082019050615c805f830186614516565b615c8d6020830185614c52565b615c9a6040830184614bc6565b949350505050565b615cab816144da565b8114615cb5575f5ffd5b50565b5f81519050615cc681615ca2565b92915050565b5f60208284031215615ce157615ce0614452565b5b5f615cee84828501615cb8565b91505092915050565b5f608082019050615d0a5f830187614516565b615d176020830186615856565b615d246040830185614516565b8181036060830152615d3681846145cb565b905095945050505050565b5f82825260208201905092915050565b5f615d5b82615b0a565b615d658185615d41565b9350615d758185602086016145ad565b615d7e816145bb565b840191505092915050565b5f60a082019050615d9c5f830188614516565b615da96020830187615856565b615db66040830186614516565b8181036060830152615dc881856145cb565b90508181036080830152615ddc8184615d51565b90509695505050505050565b5f819050919050565b5f615e0b615e06615e0184615de8565b6156bb565b614ced565b9050919050565b615e1b81615df1565b82525050565b5f604082019050615e345f830185615e12565b615e416020830184614516565b9392505050565b5f615e528261450d565b9150615e5d8361450d565b9250828201905080821115615e7557615e746158d2565b5b92915050565b5f81519050919050565b5f82825260208201905092915050565b5f819050602082019050919050565b5f82825260208201905092915050565b5f615ebe82614593565b615ec88185615ea4565b9350615ed88185602086016145ad565b615ee1816145bb565b840191505092915050565b5f615ef78383615eb4565b905092915050565b5f602082019050919050565b5f615f1582615e7b565b615f1f8185615e85565b935083602082028501615f3185615e95565b805f5b85811015615f6c5784840389528151615f4d8582615eec565b9450615f5883615eff565b925060208a01995050600181019050615f34565b50829750879550505050505092915050565b5f61012082019050615f925f83018c614516565b615f9f602083018b614653565b8181036040830152615fb1818a615a85565b90508181036060830152615fc581896151df565b90508181036080830152615fd98188615f0b565b905081810360a0830152615fed8187615b7b565b9050615ffc60c0830186614516565b61600960e0830185614516565b81810361010083015261601c81846145cb565b90509a9950505050505050505050565b5f60408201905061603f5f830185614653565b61604c6020830184614516565b9392505050565b5f815190506160618161453e565b92915050565b5f6020828403121561607c5761607b614452565b5b5f61608984828501616053565b91505092915050565b5f6040820190506160a55f830185614653565b6160b26020830184614653565b9392505050565b5f6160c38261450d565b91506160ce8361450d565b92508282026160dc8161450d565b915082820484148315176160f3576160f26158d2565b5b5092915050565b7f4e487b71000000000000000000000000000000000000000000000000000000005f52601260045260245ffd5b5f6161318261450d565b915061613c8361450d565b92508261614c5761614b6160fa565b5b828204905092915050565b5f819050919050565b5f61617a61617561617084616157565b6156bb565b614ced565b9050919050565b61618a81616160565b82525050565b5f6040820190506161a35f830185616181565b6161b06020830184614516565b9392505050565b5f819050919050565b5f815f1b9050919050565b5f6161e56161e06161db846161b7565b6161c0565b614adb565b9050919050565b6161f5816161cb565b82525050565b5f60a0820190508181035f8301526162138188615a85565b9050818103602083015261622781876151df565b9050818103604083015261623b8186615b7b565b905061624a60608301856161ec565b6162576080830184614bc6565b9695505050505050565b5f8151905061626f81614ae4565b92915050565b5f6020828403121561628a57616289614452565b5b5f61629784828501616261565b91505092915050565b5f60c0820190508181035f8301526162b88189615a85565b905081810360208301526162cc81886151df565b905081810360408301526162e08187615b7b565b90506162ef60608301866161ec565b6162fc6080830185614bc6565b61630960a0830184614516565b979650505050505050565b5f6040820190506163275f830185614bc6565b81810360208301526163398184615d51565b90509392505050565b5f61634c82615b0a565b6163568185615810565b93506163668185602086016145ad565b80840191505092915050565b5f61637d8284616342565b915081905092915050565b5f819050919050565b5f6163ab6163a66163a184616388565b6156bb565b614ced565b9050919050565b6163bb81616391565b82525050565b5f6040820190506163d45f8301856163b2565b6163e16020830184614516565b9392505050565b5f6163f282614ced565b91506163fd83614ced565b9250828201905060ff811115616416576164156158d2565b5b92915050565b5f8160011c9050919050565b5f5f8291508390505b60018511156164715780860481111561644d5761644c6158d2565b5b600185161561645c5780820291505b808102905061646a8561641c565b9450616431565b94509492505050565b5f826164895760019050616544565b81616496575f9050616544565b81600181146164ac57600281146164b6576164e5565b6001915050616544565b60ff8411156164c8576164c76158d2565b5b8360020a9150848211156164df576164de6158d2565b5b50616544565b5060208310610133831016604e8410600b841016171561651a5782820a905083811115616515576165146158d2565b5b616544565b6165278484846001616428565b9250905081840481111561653e5761653d6158d2565b5b81810290505b9392505050565b5f6165558261450d565b915061656083614ced565b925061658d7fffffffffffffffffffffffffffffffffffffffffffffffffffffffffffffffff848461647a565b905092915050565b5f60a0820190506165a85f830188614bc6565b6165b56020830187614bc6565b6165c26040830186614bc6565b6165cf6060830185614516565b6165dc6080830184614653565b9695505050505050565b5f6080820190506165f95f830187614bc6565b6166066020830186615856565b6166136040830185614bc6565b6166206060830184614bc6565b9594505050505056fea2646970667358221220d99b1a68a9a17ec6697f4a29c2e19cab7b9921c56d9e2d371a7ba073a052a1a864736f6c634300081e0033","linkReferences":{}},"methodIdentifiers":{"BALLOT_TYPEHASH()":"deaaa7cc","CLOCK_MODE()":"4bf5d7e9","COUNTING_MODE()":"dd4e2ba5","EXTENDED_BALLOT_TYPEHASH()":"2fe3e261","cancel(address[],uint256[],bytes[],bytes32)":"452115d6","castVote(uint256,uint8)":"56781388","castVoteBySig(uint256,uint8,address,bytes)":"8ff262e3","castVoteWithReason(uint256,uint8,string)":"7b3c71d3","castVoteWithReasonAndParams(uint256,uint8,string,bytes)":"5f398a14","castVoteWithReasonAndParamsBySig(uint256,uint8,address,string,bytes,bytes)":"5b8d0e0d","clock()":"91ddadf4","eip712Domain()":"84b0196e","execute(address[],uint256[],bytes[],bytes32)":"2656227d","getVotes(address,uint256)":"eb9019d4","getVotesWithParams(address,uint256,bytes)":"9a802a6d","hasVoted(uint256,address)":"43859632","hashProposal(address[],uint256[],bytes[],bytes32)":"c59057e4","name()":"06fdde03","nonces(address)":"7ecebe00","onERC1155BatchReceived(address,address,uint256[],uint256[],bytes)":"bc197c81","onERC1155Received(address,address,uint256,uint256,bytes)":"f23a6e61","onERC721Received(address,address,uint256,bytes)":"150b7a02","proposalDeadline(uint256)":"c01f9e37","proposalEta(uint256)":"ab58fb8e","proposalNeedsQueuing(uint256)":"a9a95294","proposalProposer(uint256)":"143489d0","proposalSnapshot(uint256)":"2d63f693","proposalThreshold()":"b58131b0","proposalVotes(uint256)":"544ffc9c","propose(address[],uint256[],bytes[],string)":"7d5e81e2","queue(address[],uint256[],bytes[],bytes32)":"160cbed7","quorum(uint256)":"f8ce560a","quorumDenominator()":"97c3d334","quorumNumerator()":"a7713a70","quorumNumerator(uint256)":"60c4247f","relay(address,uint256,bytes)":"c28bc2fa","state(uint256)":"3e4f49e6","supportsInterface(bytes4)":"01ffc9a7","timelock()":"d33219b4","token()":"fc0c546a","updateQuorumNumerator(uint256)":"06f3f9e6","updateTimelock(address)":"a890c910","version()":"54fd4d50","votingDelay()":"3932abb1","votingPeriod()":"02a251a3"},"id":68}