{"abi":[{"type":"constructor","inputs":[{"name":"initialHolder","type":"address","internalType":"address"},{"name":"initialSupply","type":"uint256","internalType":"uint256"}],"stateMutability":"nonpayable"},{"type":"function","name":"CLOCK_MODE","inputs":[],"outputs":[{"name":"","type":"string","internalType":"string"}],"stateMutability":"view"},{"type":"function","name":"DOMAIN_SEPARATOR","inputs":[],"outputs":[{"name":"","type":"bytes32","internalType":"bytes32"}],"stateMutability":"view"},{"type":"function","name":"allowance","inputs":[{"name":"owner","type":"address","internalType":"address"},{"name":"spender","type":"address","internalType":"address"}],"outputs":[{"name":"","type":"uint256","internalType":"uint256"}],"stateMutability":"view"},{"type":"function","name":"approve","inputs":[{"name":"spender","type":"address","internalType":"address"},{"name":"value","type":"uint256","internalType":"uint256"}],"outputs":[{"name":"","type":"bool","internalType":"bool"}],"stateMutability":"nonpayable"},{"type":"function","name":"balanceOf","inputs":[{"name":"account","type":"address","internalType":"address"}],"outputs":[{"name":"","type":"uint256","internalType":"uint256"}],"stateMutability":"view"},{"type":"function","name":"checkpoints","inputs":[{"name":"account","type":"address","internalType":"address"},{"name":"pos","type":"uint32","internalType":"uint32"}],"outputs":[{"name":"","type":"tuple","internalType":"struct Checkpoints.Checkpoint208","components":[{"name":"_key","type":"uint48","internalType":"uint48"},{"name":"_value","type":"uint208","internalType":"uint208"}]}],"stateMutability":"view"},{"type":"function","name":"clock","inputs":[],"outputs":[{"name":"","type":"uint48","internalType":"uint48"}],"stateMutability":"view"},{"type":"function","name":"decimals","inputs":[],"outputs":[{"name":"","type":"uint8","internalType":"uint8"}],"stateMutability":"view"},{"type":"function","name":"delegate","inputs":[{"name":"delegatee","type":"address","internalType":"address"}],"outputs":[],"stateMutability":"nonpayable"},{"type":"function","name":"delegateBySig","inputs":[{"name":"delegatee","type":"address","internalType":"address"},{"name":"nonce","type":"uint256","internalType":"uint256"},{"name":"expiry","type":"uint256","internalType":"uint256"},{"name":"v","type":"uint8","internalType":"uint8"},{"name":"r","type":"bytes32","internalType":"bytes32"},{"name":"s","type":"bytes32","internalType":"bytes32"}],"outputs":[],"stateMutability":"nonpayable"},{"type":"function","name":"delegates","inputs":[{"name":"account","type":"address","internalType":"address"}],"outputs":[{"name":"","type":"address","internalType":"address"}],"stateMutability":"view"},{"type":"function","name":"eip712Domain","inputs":[],"outputs":[{"name":"fields","type":"bytes1","internalType":"bytes1"},{"name":"name","type":"string","internalType":"string"},{"name":"version","type":"string","internalType":"string"},{"name":"chainId","type":"uint256","internalType":"uint256"},{"name":"verifyingContract","type":"address","internalType":"address"},{"name":"salt","type":"bytes32","internalType":"bytes32"},{"name":"extensions","type":"uint256[]","internalType":"uint256[]"}],"stateMutability":"view"},{"type":"function","name":"getPastTotalSupply","inputs":[{"name":"timepoint","type":"uint256","internalType":"uint256"}],"outputs":[{"name":"","type":"uint256","internalType":"uint256"}],"stateMutability":"view"},{"type":"function","name":"getPastVotes","inputs":[{"name":"account","type":"address","internalType":"address"},{"name":"timepoint","type":"uint256","internalType":"uint256"}],"outputs":[{"name":"","type":"uint256","internalType":"uint256"}],"stateMutability":"view"},{"type":"function","name":"getVotes","inputs":[{"name":"account","type":"address","internalType":"address"}],"outputs":[{"name":"","type":"uint256","internalType":"uint256"}],"stateMutability":"view"},{"type":"function","name":"name","inputs":[],"outputs":[{"name":"","type":"string","internalType":"string"}],"stateMutability":"view"},{"type":"function","name":"nonces","inputs":[{"name":"owner","type":"address","internalType":"address"}],"outputs":[{"name":"","type":"uint256","internalType":"uint256"}],"stateMutability":"view"},{"type":"function","name":"numCheckpoints","inputs":[{"name":"account","type":"address","internalType":"address"}],"outputs":[{"name":"","type":"uint32","internalType":"uint32"}],"stateMutability":"view"},{"type":"function","name":"permit","inputs":[{"name":"owner","type":"address","internalType":"address"},{"name":"spender","type":"address","internalType":"address"},{"name":"value","type":"uint256","internalType":"uint256"},{"name":"deadline","type":"uint256","internalType":"uint256"},{"name":"v","type":"uint8","internalType":"uint8"},{"name":"r","type":"bytes32","internalType":"bytes32"},{"name":"s","type":"bytes32","internalType":"bytes32"}],"outputs":[],"stateMutability":"nonpayable"},{"type":"function","name":"symbol","inputs":[],"outputs":[{"name":"","type":"string","internalType":"string"}],"stateMutability":"view"},{"type":"function","name":"totalSupply","inputs":[],"outputs":[{"name":"","type":"uint256","internalType":"uint256"}],"stateMutability":"view"},{"type":"function","name":"transfer","inputs":[{"name":"to","type":"address","internalType":"address"},{"name":"value","type":"uint256","internalType":"uint256"}],"outputs":[{"name":"","type":"bool","internalType":"bool"}],"stateMutability":"nonpayable"},{"type":"function","name":"transferFrom","inputs":[{"name":"from","type":"address","internalType":"address"},{"name":"to","type":"address","internalType":"address"},{"name":"value","type":"uint256","internalType":"uint256"}],"outputs":[{"name":"","type":"bool","internalType":"bool"}],"stateMutability":"nonpayable"},{"type":"event","name":"Approval","inputs":[{"name":"owner","type":"address","indexed":true,"internalType":"address"},{"name":"spender","type":"address","indexed":true,"internalType":"address"},{"name":"value","type":"uint256","indexed":false,"internalType":"uint256"}],"anonymous":false},{"type":"event","name":"DelegateChanged","inputs":[{"name":"delegator","type":"address","indexed":true,"internalType":"address"},{"name":"fromDelegate","type":"address","indexed":true,"internalType":"address"},{"name":"toDelegate","type":"address","indexed":true,"internalType":"address"}],"anonymous":false},{"type":"event","name":"DelegateVotesChanged","inputs":[{"name":"delegate","type":"address","indexed":true,"internalType":"address"},{"name":"previousVotes","type":"uint256","indexed":false,"internalType":"uint256"},{"name":"newVotes","type":"uint256","indexed":false,"internalType":"uint256"}],"anonymous":false},{"type":"event","name":"EIP712DomainChanged","inputs":[],"anonymous":false},{"type":"event","name":"Transfer","inputs":[{"name":"from","type":"address","indexed":true,"internalType":"address"},{"name":"to","type":"address","indexed":true,"internalType":"address"},{"name":"value","type":"uint256","indexed":false,"internalType":"uint256"}],"anonymous":false},{"type":"error","name":"CheckpointUnorderedInsertion","inputs":[]},{"type":"error","name":"ECDSAInvalidSignature","inputs":[]},{"type":"error","name":"ECDSAInvalidSignatureLength","inputs":[{"name":"length","type":"uint256","internalType":"uint256"}]},{"type":"error","name":"ECDSAInvalidSignatureS","inputs":[{"name":"s","type":"bytes32","internalType":"bytes32"}]},{"type":"error","name":"ERC20ExceededSafeSupply","inputs":[{"name":"increasedSupply","type":"uint256","internalType":"uint256"},{"name":"cap","type":"uint256","internalType":"uint256"}]},{"type":"error","name":"ERC20InsufficientAllowance","inputs":[{"name":"spender","type":"address","internalType":"address"},{"name":"allowance","type":"uint256","internalType":"uint256"},{"name":"needed","type":"uint256","internalType":"uint256"}]},{"type":"error","name":"ERC20InsufficientBalance","inputs":[{"name":"sender","type":"address","internalType":"address"},{"name":"balance","type":"uint256","internalType":"uint256"},{"name":"needed","type":"uint256","internalType":"uint256"}]},{"type":"error","name":"ERC20InvalidApprover","inputs":[{"name":"approver","type":"address","internalType":"address"}]},{"type":"error","name":"ERC20InvalidReceiver","inputs":[{"name":"receiver","type":"address","internalType":"address"}]},{"type":"error","name":"ERC20InvalidSender","inputs":[{"name":"sender","type":"address","internalType":"address"}]},{"type":"error","name":"ERC20InvalidSpender","inputs":[{"name":"spender","type":"address","internalType":"address"}]},{"type":"error","name":"ERC2612ExpiredSignature","inputs":[{"name":"deadline","type":"uint256","internalType":"uint256"}]},{"type":"error","name":"ERC2612InvalidSigner","inputs":[{"name":"signer","type":"address","internalType":"address"},{"name":"owner","type":"address","internalType":"address"}]},{"type":"error","name":"ERC5805FutureLookup","inputs":[{"name":"timepoint","type":"uint256","internalType":"uint256"},{"name":"clock","type":"uint48","internalType":"uint48"}]},{"type":"error","name":"ERC6372InconsistentClock","inputs":[]},{"type":"error","name":"InvalidAccountNonce","inputs":[{"name":"account","type":"address","internalType":"address"},{"name":"currentNonce","type":"uint256","internalType":"uint256"}]},{"type":"error","name":"InvalidShortString","inputs":[]},{"type":"error","name":"SafeCastOverflowedUintDowncast","inputs":[{"name":"bits","type":"uint8","internalType":"uint8"},{"name":"value","type":"uint256","internalType":"uint256"}]},{"type":"error","name":"StringTooLong","inputs":[{"name":"str","type":"string","internalType":"string"}]},{"type":"error","name":"VotesExpiredSignature","inputs":[{"name":"expiry","type":"uint256","internalType":"uint256"}]}],"bytecode":{"object":"0x610160604052348015610010575f5ffd5b50604051614f6b380380614f6b83398181016040528101906100329190611096565b6040518060400160405280600e81526020017f4d616c6120476f7620546f6b656e000000000000000000000000000000000000815250806040518060400160405280600181526020017f31000000000000000000000000000000000000000000000000000000000000008152506040518060400160405280600e81526020017f4d616c6120476f7620546f6b656e0000000000000000000000000000000000008152506040518060400160405280600381526020017f4d47540000000000000000000000000000000000000000000000000000000000815250816003908161011a9190611308565b50806004908161012a9190611308565b5050506101416005836101ef60201b90919060201c565b610120818152505061015d6006826101ef60201b90919060201c565b6101408181525050818051906020012060e08181525050808051906020012061010081815250504660a0818152505061019a61023c60201b60201c565b608081815250503073ffffffffffffffffffffffffffffffffffffffff1660c08173ffffffffffffffffffffffffffffffffffffffff16815250505050506101e8828261029660201b60201c565b5050611823565b5f602083511015610210576102098361031b60201b60201c565b9050610236565b826102208361038060201b60201c565b5f01908161022e9190611308565b5060ff5f1b90505b92915050565b5f7f8b73c3c69bb8fe3d512ecc4cf759cc79239f7b179b0ffacaa9a75d522b39400f60e05161010051463060405160200161027b95949392919061140d565b60405160208183030381529060405280519060200120905090565b5f73ffffffffffffffffffffffffffffffffffffffff168273ffffffffffffffffffffffffffffffffffffffff1603610306575f6040517fec442f050000000000000000000000000000000000000000000000000000000081526004016102fd919061145e565b60405180910390fd5b6103175f838361038960201b60201c565b5050565b5f5f829050601f8151111561036757826040517f305a27a900000000000000000000000000000000000000000000000000000000815260040161035e91906114dd565b60405180910390fd5b8051816103739061152a565b5f1c175f1b915050919050565b5f819050919050565b61039a83838361039f60201b60201c565b505050565b6103b083838361046560201b60201c565b5f73ffffffffffffffffffffffffffffffffffffffff168373ffffffffffffffffffffffffffffffffffffffff160361044f575f6103f261067e60201b60201c565b90505f61040361068760201b60201c565b90508082111561044c5781816040517f1cb15d26000000000000000000000000000000000000000000000000000000008152600401610443929190611590565b60405180910390fd5b50505b6104608383836106aa60201b60201c565b505050565b5f73ffffffffffffffffffffffffffffffffffffffff168373ffffffffffffffffffffffffffffffffffffffff16036104b5578060025f8282546104a991906115e4565b92505081905550610583565b5f5f5f8573ffffffffffffffffffffffffffffffffffffffff1673ffffffffffffffffffffffffffffffffffffffff1681526020019081526020015f205490508181101561053e578381836040517fe450d38c00000000000000000000000000000000000000000000000000000000815260040161053593929190611617565b60405180910390fd5b8181035f5f8673ffffffffffffffffffffffffffffffffffffffff1673ffffffffffffffffffffffffffffffffffffffff1681526020019081526020015f2081905550505b5f73ffffffffffffffffffffffffffffffffffffffff168273ffffffffffffffffffffffffffffffffffffffff16036105ca578060025f8282540392505081905550610614565b805f5f8473ffffffffffffffffffffffffffffffffffffffff1673ffffffffffffffffffffffffffffffffffffffff1681526020019081526020015f205f82825401925050819055505b8173ffffffffffffffffffffffffffffffffffffffff168373ffffffffffffffffffffffffffffffffffffffff167fddf252ad1be2c89b69c2b068fc378daa952ba7f163c4a11628f55a4df523b3ef83604051610671919061164c565b60405180910390a3505050565b5f600254905090565b5f79ffffffffffffffffffffffffffffffffffffffffffffffffffff8016905090565b5f73ffffffffffffffffffffffffffffffffffffffff168373ffffffffffffffffffffffffffffffffffffffff160361070957610706600a61079a60201b610d35176106fb846107af60201b60201c565b61081c60201b60201c565b50505b5f73ffffffffffffffffffffffffffffffffffffffff168273ffffffffffffffffffffffffffffffffffffffff160361076857610765600a61086460201b610d4a1761075a846107af60201b60201c565b61081c60201b60201c565b50505b61079561077a8461087960201b60201c565b6107898461087960201b60201c565b836108de60201b60201c565b505050565b5f81836107a7919061168a565b905092915050565b5f79ffffffffffffffffffffffffffffffffffffffffffffffffffff80168211156108145760d0826040517f6dfcc65000000000000000000000000000000000000000000000000000000000815260040161080b92919061171c565b60405180910390fd5b819050919050565b5f5f61085861082f610b7460201b60201c565b61084861084188610b8860201b60201c565b868860201c565b87610bf060201b9092919060201c565b91509150935093915050565b5f81836108719190611743565b905092915050565b5f60085f8373ffffffffffffffffffffffffffffffffffffffff1673ffffffffffffffffffffffffffffffffffffffff1681526020019081526020015f205f9054906101000a900473ffffffffffffffffffffffffffffffffffffffff169050919050565b8173ffffffffffffffffffffffffffffffffffffffff168373ffffffffffffffffffffffffffffffffffffffff161415801561091957505f81115b15610b6f575f73ffffffffffffffffffffffffffffffffffffffff168373ffffffffffffffffffffffffffffffffffffffff1614610a46575f5f6109b760095f8773ffffffffffffffffffffffffffffffffffffffff1673ffffffffffffffffffffffffffffffffffffffff1681526020019081526020015f2061086460201b610d4a176109ac866107af60201b60201c565b61081c60201b60201c565b79ffffffffffffffffffffffffffffffffffffffffffffffffffff16915079ffffffffffffffffffffffffffffffffffffffffffffffffffff1691508473ffffffffffffffffffffffffffffffffffffffff167fdec2bacdd2f05b59de34da9b523dff8be42e5e38e818c82fdb0bae774387a7248383604051610a3b929190611590565b60405180910390a250505b5f73ffffffffffffffffffffffffffffffffffffffff168273ffffffffffffffffffffffffffffffffffffffff1614610b6e575f5f610adf60095f8673ffffffffffffffffffffffffffffffffffffffff1673ffffffffffffffffffffffffffffffffffffffff1681526020019081526020015f2061079a60201b610d3517610ad4866107af60201b60201c565b61081c60201b60201c565b79ffffffffffffffffffffffffffffffffffffffffffffffffffff16915079ffffffffffffffffffffffffffffffffffffffffffffffffffff1691508373ffffffffffffffffffffffffffffffffffffffff167fdec2bacdd2f05b59de34da9b523dff8be42e5e38e818c82fdb0bae774387a7248383604051610b63929190611590565b60405180910390a250505b5b505050565b5f610b83610c1160201b60201c565b905090565b5f5f825f018054905090505f8114610be657610bb8835f01600183610bad9190611790565b610c2660201b60201c565b5f0160069054906101000a900479ffffffffffffffffffffffffffffffffffffffffffffffffffff16610be8565b5f5b915050919050565b5f5f610c05855f018585610c3860201b60201c565b91509150935093915050565b5f610c2143610fac60201b60201c565b905090565b5f825f528160205f2001905092915050565b5f5f5f858054905090505f811115610ec4575f610c6787600184610c5c9190611790565b610c2660201b60201c565b6040518060400160405290815f82015f9054906101000a900465ffffffffffff1665ffffffffffff1665ffffffffffff1681526020015f820160069054906101000a900479ffffffffffffffffffffffffffffffffffffffffffffffffffff1679ffffffffffffffffffffffffffffffffffffffffffffffffffff1679ffffffffffffffffffffffffffffffffffffffffffffffffffff168152505090508565ffffffffffff16815f015165ffffffffffff161115610d52576040517f2520601d00000000000000000000000000000000000000000000000000000000815260040160405180910390fd5b8565ffffffffffff16815f015165ffffffffffff1603610dda5784610d8988600185610d7e9190611790565b610c2660201b60201c565b5f0160066101000a81548179ffffffffffffffffffffffffffffffffffffffffffffffffffff021916908379ffffffffffffffffffffffffffffffffffffffffffffffffffff160217905550610eb3565b8660405180604001604052808865ffffffffffff1681526020018779ffffffffffffffffffffffffffffffffffffffffffffffffffff16815250908060018154018082558091505060019003905f5260205f20015f909190919091505f820151815f015f6101000a81548165ffffffffffff021916908365ffffffffffff1602179055506020820151815f0160066101000a81548179ffffffffffffffffffffffffffffffffffffffffffffffffffff021916908379ffffffffffffffffffffffffffffffffffffffffffffffffffff16021790555050505b806020015185935093505050610fa4565b8560405180604001604052808765ffffffffffff1681526020018679ffffffffffffffffffffffffffffffffffffffffffffffffffff16815250908060018154018082558091505060019003905f5260205f20015f909190919091505f820151815f015f6101000a81548165ffffffffffff021916908365ffffffffffff1602179055506020820151815f0160066101000a81548179ffffffffffffffffffffffffffffffffffffffffffffffffffff021916908379ffffffffffffffffffffffffffffffffffffffffffffffffffff16021790555050505f8492509250505b935093915050565b5f65ffffffffffff8016821115610ffd576030826040517f6dfcc650000000000000000000000000000000000000000000000000000000008152600401610ff49291906117fc565b60405180910390fd5b819050919050565b5f5ffd5b5f73ffffffffffffffffffffffffffffffffffffffff82169050919050565b5f61103282611009565b9050919050565b61104281611028565b811461104c575f5ffd5b50565b5f8151905061105d81611039565b92915050565b5f819050919050565b61107581611063565b811461107f575f5ffd5b50565b5f815190506110908161106c565b92915050565b5f5f604083850312156110ac576110ab611005565b5b5f6110b98582860161104f565b92505060206110ca85828601611082565b9150509250929050565b5f81519050919050565b7f4e487b71000000000000000000000000000000000000000000000000000000005f52604160045260245ffd5b7f4e487b71000000000000000000000000000000000000000000000000000000005f52602260045260245ffd5b5f600282049050600182168061114f57607f821691505b6020821081036111625761116161110b565b5b50919050565b5f819050815f5260205f209050919050565b5f6020601f8301049050919050565b5f82821b905092915050565b5f600883026111c47fffffffffffffffffffffffffffffffffffffffffffffffffffffffffffffffff82611189565b6111ce8683611189565b95508019841693508086168417925050509392505050565b5f819050919050565b5f6112096112046111ff84611063565b6111e6565b611063565b9050919050565b5f819050919050565b611222836111ef565b61123661122e82611210565b848454611195565b825550505050565b5f5f905090565b61124d61123e565b611258818484611219565b505050565b5b8181101561127b576112705f82611245565b60018101905061125e565b5050565b601f8211156112c05761129181611168565b61129a8461117a565b810160208510156112a9578190505b6112bd6112b58561117a565b83018261125d565b50505b505050565b5f82821c905092915050565b5f6112e05f19846008026112c5565b1980831691505092915050565b5f6112f883836112d1565b9150826002028217905092915050565b611311826110d4565b67ffffffffffffffff81111561132a576113296110de565b5b6113348254611138565b61133f82828561127f565b5f60209050601f831160018114611370575f841561135e578287015190505b61136885826112ed565b8655506113cf565b601f19841661137e86611168565b5f5b828110156113a557848901518255600182019150602085019450602081019050611380565b868310156113c257848901516113be601f8916826112d1565b8355505b6001600288020188555050505b505050505050565b5f819050919050565b6113e9816113d7565b82525050565b6113f881611063565b82525050565b61140781611028565b82525050565b5f60a0820190506114205f8301886113e0565b61142d60208301876113e0565b61143a60408301866113e0565b61144760608301856113ef565b61145460808301846113fe565b9695505050505050565b5f6020820190506114715f8301846113fe565b92915050565b5f82825260208201905092915050565b8281835e5f83830152505050565b5f601f19601f8301169050919050565b5f6114af826110d4565b6114b98185611477565b93506114c9818560208601611487565b6114d281611495565b840191505092915050565b5f6020820190508181035f8301526114f581846114a5565b905092915050565b5f81519050919050565b5f819050602082019050919050565b5f61152182516113d7565b80915050919050565b5f611534826114fd565b8261153e84611507565b905061154981611516565b92506020821015611589576115847fffffffffffffffffffffffffffffffffffffffffffffffffffffffffffffffff83602003600802611189565b831692505b5050919050565b5f6040820190506115a35f8301856113ef565b6115b060208301846113ef565b9392505050565b7f4e487b71000000000000000000000000000000000000000000000000000000005f52601160045260245ffd5b5f6115ee82611063565b91506115f983611063565b9250828201905080821115611611576116106115b7565b5b92915050565b5f60608201905061162a5f8301866113fe565b61163760208301856113ef565b61164460408301846113ef565b949350505050565b5f60208201905061165f5f8301846113ef565b92915050565b5f79ffffffffffffffffffffffffffffffffffffffffffffffffffff82169050919050565b5f61169482611665565b915061169f83611665565b9250828201905079ffffffffffffffffffffffffffffffffffffffffffffffffffff8111156116d1576116d06115b7565b5b92915050565b5f819050919050565b5f60ff82169050919050565b5f6117066117016116fc846116d7565b6111e6565b6116e0565b9050919050565b611716816116ec565b82525050565b5f60408201905061172f5f83018561170d565b61173c60208301846113ef565b9392505050565b5f61174d82611665565b915061175883611665565b9250828203905079ffffffffffffffffffffffffffffffffffffffffffffffffffff81111561178a576117896115b7565b5b92915050565b5f61179a82611063565b91506117a583611063565b92508282039050818111156117bd576117bc6115b7565b5b92915050565b5f819050919050565b5f6117e66117e16117dc846117c3565b6111e6565b6116e0565b9050919050565b6117f6816117cc565b82525050565b5f60408201905061180f5f8301856117ed565b61181c60208301846113ef565b9392505050565b60805160a05160c05160e0516101005161012051610140516136f76118745f395f6112c201525f61128701525f6116ca01525f6116a901525f610efd01525f610f5301525f610f7c01526136f75ff3fe608060405234801561000f575f5ffd5b506004361061014b575f3560e01c806370a08231116100c15780639ab24eb01161007a5780639ab24eb0146103e1578063a9059cbb14610411578063c3cda52014610441578063d505accf1461045d578063dd62ed3e14610479578063f1127ed8146104a95761014b565b806370a08231146102f15780637ecebe001461032157806384b0196e146103515780638e539e8c1461037557806391ddadf4146103a557806395d89b41146103c35761014b565b80633644e515116101135780633644e515146102095780633a46b1a8146102275780634bf5d7e914610257578063587cde1e146102755780635c19a95c146102a55780636fcfff45146102c15761014b565b806306fdde031461014f578063095ea7b31461016d57806318160ddd1461019d57806323b872dd146101bb578063313ce567146101eb575b5f5ffd5b6101576104d9565b6040516101649190612a1a565b60405180910390f35b61018760048036038101906101829190612acb565b610569565b6040516101949190612b23565b60405180910390f35b6101a561058b565b6040516101b29190612b4b565b60405180910390f35b6101d560048036038101906101d09190612b64565b610594565b6040516101e29190612b23565b60405180910390f35b6101f36105c2565b6040516102009190612bcf565b60405180910390f35b6102116105ca565b60405161021e9190612c00565b60405180910390f35b610241600480360381019061023c9190612acb565b6105d8565b60405161024e9190612b4b565b60405180910390f35b61025f6106ae565b60405161026c9190612a1a565b60405180910390f35b61028f600480360381019061028a9190612c19565b610742565b60405161029c9190612c53565b60405180910390f35b6102bf60048036038101906102ba9190612c19565b6107a7565b005b6102db60048036038101906102d69190612c19565b6107c0565b6040516102e89190612c8a565b60405180910390f35b61030b60048036038101906103069190612c19565b6107d1565b6040516103189190612b4b565b60405180910390f35b61033b60048036038101906103369190612c19565b610816565b6040516103489190612b4b565b60405180910390f35b610359610827565b60405161036c9796959493929190612d94565b60405180910390f35b61038f600480360381019061038a9190612e16565b6108cc565b60405161039c9190612b4b565b60405180910390f35b6103ad610966565b6040516103ba9190612e61565b60405180910390f35b6103cb610974565b6040516103d89190612a1a565b60405180910390f35b6103fb60048036038101906103f69190612c19565b610a04565b6040516104089190612b4b565b60405180910390f35b61042b60048036038101906104269190612acb565b610a6d565b6040516104389190612b23565b60405180910390f35b61045b60048036038101906104569190612ece565b610a8f565b005b61047760048036038101906104729190612f57565b610b54565b005b610493600480360381019061048e9190612ff4565b610c99565b6040516104a09190612b4b565b60405180910390f35b6104c360048036038101906104be919061305c565b610d1b565b6040516104d0919061310a565b60405180910390f35b6060600380546104e890613150565b80601f016020809104026020016040519081016040528092919081815260200182805461051490613150565b801561055f5780601f106105365761010080835404028352916020019161055f565b820191905f5260205f20905b81548152906001019060200180831161054257829003601f168201915b5050505050905090565b5f5f610573610d5f565b9050610580818585610d66565b600191505092915050565b5f600254905090565b5f5f61059e610d5f565b90506105ab858285610d78565b6105b6858585610e0a565b60019150509392505050565b5f6012905090565b5f6105d3610efa565b905090565b5f5f6105e2610966565b90508065ffffffffffff1683106106325782816040517fecd3f81e000000000000000000000000000000000000000000000000000000008152600401610629929190613180565b60405180910390fd5b61068961063e84610fb0565b60095f8773ffffffffffffffffffffffffffffffffffffffff1673ffffffffffffffffffffffffffffffffffffffff1681526020019081526020015f2061100990919063ffffffff16565b79ffffffffffffffffffffffffffffffffffffffffffffffffffff1691505092915050565b60606106b86110f9565b65ffffffffffff166106c8610966565b65ffffffffffff1614610707576040517f6ff0714000000000000000000000000000000000000000000000000000000000815260040160405180910390fd5b6040518060400160405280601d81526020017f6d6f64653d626c6f636b6e756d6265722666726f6d3d64656661756c74000000815250905090565b5f60085f8373ffffffffffffffffffffffffffffffffffffffff1673ffffffffffffffffffffffffffffffffffffffff1681526020019081526020015f205f9054906101000a900473ffffffffffffffffffffffffffffffffffffffff169050919050565b5f6107b0610d5f565b90506107bc8183611108565b5050565b5f6107ca82611218565b9050919050565b5f5f5f8373ffffffffffffffffffffffffffffffffffffffff1673ffffffffffffffffffffffffffffffffffffffff1681526020019081526020015f20549050919050565b5f6108208261126d565b9050919050565b5f6060805f5f5f606061083861127e565b6108406112b9565b46305f5f1b5f67ffffffffffffffff81111561085f5761085e6131a7565b5b60405190808252806020026020018201604052801561088d5781602001602082028036833780820191505090505b507f0f00000000000000000000000000000000000000000000000000000000000000959493929190965096509650965096509650965090919293949596565b5f5f6108d6610966565b90508065ffffffffffff1683106109265782816040517fecd3f81e00000000000000000000000000000000000000000000000000000000815260040161091d929190613180565b60405180910390fd5b61094261093284610fb0565b600a61100990919063ffffffff16565b79ffffffffffffffffffffffffffffffffffffffffffffffffffff16915050919050565b5f61096f6110f9565b905090565b60606004805461098390613150565b80601f01602080910402602001604051908101604052809291908181526020018280546109af90613150565b80156109fa5780601f106109d1576101008083540402835291602001916109fa565b820191905f5260205f20905b8154815290600101906020018083116109dd57829003601f168201915b5050505050905090565b5f610a4a60095f8473ffffffffffffffffffffffffffffffffffffffff1673ffffffffffffffffffffffffffffffffffffffff1681526020019081526020015f206112f4565b79ffffffffffffffffffffffffffffffffffffffffffffffffffff169050919050565b5f5f610a77610d5f565b9050610a84818585610e0a565b600191505092915050565b83421115610ad457836040517f4683af0e000000000000000000000000000000000000000000000000000000008152600401610acb9190612b4b565b60405180910390fd5b5f610b35610b2d7fe48329057bfd03d55e49b547132e39cffd9c1820ad7b9d4c5307691425d15adf898989604051602001610b1294939291906131d4565b60405160208183030381529060405280519060200120611356565b85858561136f565b9050610b41818761139d565b610b4b8188611108565b50505050505050565b83421115610b9957836040517f62791302000000000000000000000000000000000000000000000000000000008152600401610b909190612b4b565b60405180910390fd5b5f7f6e71edae12b1b97f4d1f60370fef10105fa2faae0126114a169c64845d6126c9888888610bc78c6113f4565b89604051602001610bdd96959493929190613217565b6040516020818303038152906040528051906020012090505f610bff82611356565b90505f610c0e8287878761136f565b90508973ffffffffffffffffffffffffffffffffffffffff168173ffffffffffffffffffffffffffffffffffffffff1614610c8257808a6040517f4b800e46000000000000000000000000000000000000000000000000000000008152600401610c79929190613276565b60405180910390fd5b610c8d8a8a8a610d66565b50505050505050505050565b5f60015f8473ffffffffffffffffffffffffffffffffffffffff1673ffffffffffffffffffffffffffffffffffffffff1681526020019081526020015f205f8373ffffffffffffffffffffffffffffffffffffffff1673ffffffffffffffffffffffffffffffffffffffff1681526020019081526020015f2054905092915050565b610d2361296e565b610d2d8383611447565b905092915050565b5f8183610d4291906132ca565b905092915050565b5f8183610d579190613317565b905092915050565b5f33905090565b610d7383838360016114a6565b505050565b5f610d838484610c99565b90507fffffffffffffffffffffffffffffffffffffffffffffffffffffffffffffffff8114610e045781811015610df5578281836040517ffb8f41b2000000000000000000000000000000000000000000000000000000008152600401610dec93929190613364565b60405180910390fd5b610e0384848484035f6114a6565b5b50505050565b5f73ffffffffffffffffffffffffffffffffffffffff168373ffffffffffffffffffffffffffffffffffffffff1603610e7a575f6040517f96c6fd1e000000000000000000000000000000000000000000000000000000008152600401610e719190612c53565b60405180910390fd5b5f73ffffffffffffffffffffffffffffffffffffffff168273ffffffffffffffffffffffffffffffffffffffff1603610eea575f6040517fec442f05000000000000000000000000000000000000000000000000000000008152600401610ee19190612c53565b60405180910390fd5b610ef5838383611675565b505050565b5f7f000000000000000000000000000000000000000000000000000000000000000073ffffffffffffffffffffffffffffffffffffffff163073ffffffffffffffffffffffffffffffffffffffff16148015610f7557507f000000000000000000000000000000000000000000000000000000000000000046145b15610fa2577f00000000000000000000000000000000000000000000000000000000000000009050610fad565b610faa611685565b90505b90565b5f65ffffffffffff8016821115611001576030826040517f6dfcc650000000000000000000000000000000000000000000000000000000008152600401610ff89291906133db565b60405180910390fd5b819050919050565b5f5f835f018054905090505f5f90505f829050600583111561108d575f61102f8461171a565b8461103a9190613402565b9050611048875f0182611810565b5f015f9054906101000a900465ffffffffffff1665ffffffffffff168665ffffffffffff16101561107b5780915061108b565b6001816110889190613435565b92505b505b5f61109c875f01878585611822565b90505f81146110eb576110bd875f016001836110b89190613402565b611810565b5f0160069054906101000a900479ffffffffffffffffffffffffffffffffffffffffffffffffffff166110ed565b5f5b94505050505092915050565b5f61110343610fb0565b905090565b5f61111283610742565b90508160085f8573ffffffffffffffffffffffffffffffffffffffff1673ffffffffffffffffffffffffffffffffffffffff1681526020019081526020015f205f6101000a81548173ffffffffffffffffffffffffffffffffffffffff021916908373ffffffffffffffffffffffffffffffffffffffff1602179055508173ffffffffffffffffffffffffffffffffffffffff168173ffffffffffffffffffffffffffffffffffffffff168473ffffffffffffffffffffffffffffffffffffffff167f3134e8a2e6d97e929a7e54011ea5485d7d196dd5f0ba4d4ef95803e8e3fc257f60405160405180910390a4611213818361120e86611897565b6118a8565b505050565b5f61126661126160095f8573ffffffffffffffffffffffffffffffffffffffff1673ffffffffffffffffffffffffffffffffffffffff1681526020019081526020015f20611b18565b611b27565b9050919050565b5f61127782611b7e565b9050919050565b60606112b460057f0000000000000000000000000000000000000000000000000000000000000000611bc490919063ffffffff16565b905090565b60606112ef60067f0000000000000000000000000000000000000000000000000000000000000000611bc490919063ffffffff16565b905090565b5f5f825f018054905090505f811461134c5761131e835f016001836113199190613402565b611810565b5f0160069054906101000a900479ffffffffffffffffffffffffffffffffffffffffffffffffffff1661134e565b5f5b915050919050565b5f611368611362610efa565b83611c71565b9050919050565b5f5f5f5f61137f88888888611cb1565b92509250925061138f8282611d98565b829350505050949350505050565b5f6113a7836113f4565b90508082146113ef5782816040517f752d88c00000000000000000000000000000000000000000000000000000000081526004016113e6929190613468565b60405180910390fd5b505050565b5f60075f8373ffffffffffffffffffffffffffffffffffffffff1673ffffffffffffffffffffffffffffffffffffffff1681526020019081526020015f205f815480929190600101919050559050919050565b61144f61296e565b61149e8260095f8673ffffffffffffffffffffffffffffffffffffffff1673ffffffffffffffffffffffffffffffffffffffff1681526020019081526020015f20611efa90919063ffffffff16565b905092915050565b5f73ffffffffffffffffffffffffffffffffffffffff168473ffffffffffffffffffffffffffffffffffffffff1603611516575f6040517fe602df0500000000000000000000000000000000000000000000000000000000815260040161150d9190612c53565b60405180910390fd5b5f73ffffffffffffffffffffffffffffffffffffffff168373ffffffffffffffffffffffffffffffffffffffff1603611586575f6040517f94280d6200000000000000000000000000000000000000000000000000000000815260040161157d9190612c53565b60405180910390fd5b8160015f8673ffffffffffffffffffffffffffffffffffffffff1673ffffffffffffffffffffffffffffffffffffffff1681526020019081526020015f205f8573ffffffffffffffffffffffffffffffffffffffff1673ffffffffffffffffffffffffffffffffffffffff1681526020019081526020015f2081905550801561166f578273ffffffffffffffffffffffffffffffffffffffff168473ffffffffffffffffffffffffffffffffffffffff167f8c5be1e5ebec7d5bd14f71427d1e84f3dd0314c0f7b2291e5b200ac8c7c3b925846040516116669190612b4b565b60405180910390a35b50505050565b611680838383611fc9565b505050565b5f7f8b73c3c69bb8fe3d512ecc4cf759cc79239f7b179b0ffacaa9a75d522b39400f7f00000000000000000000000000000000000000000000000000000000000000007f000000000000000000000000000000000000000000000000000000000000000046306040516020016116ff95949392919061348f565b60405160208183030381529060405280519060200120905090565b5f5f820361172a575f905061180b565b5f600161173684612077565b901c6001901b905060018184816117505761174f6134e0565b5b048201901c90506001818481611769576117686134e0565b5b048201901c90506001818481611782576117816134e0565b5b048201901c9050600181848161179b5761179a6134e0565b5b048201901c905060018184816117b4576117b36134e0565b5b048201901c905060018184816117cd576117cc6134e0565b5b048201901c905060018184816117e6576117e56134e0565b5b048201901c905061180781828581611801576118006134e0565b5b0461214e565b9150505b919050565b5f825f528160205f2001905092915050565b5f5b8183101561188c575f6118378484612166565b90508465ffffffffffff1661184c8783611810565b5f015f9054906101000a900465ffffffffffff1665ffffffffffff16111561187657809250611886565b6001816118839190613435565b93505b50611824565b819050949350505050565b5f6118a1826107d1565b9050919050565b8173ffffffffffffffffffffffffffffffffffffffff168373ffffffffffffffffffffffffffffffffffffffff16141580156118e357505f81115b15611b13575f73ffffffffffffffffffffffffffffffffffffffff168373ffffffffffffffffffffffffffffffffffffffff16146119fd575f5f61196e60095f8773ffffffffffffffffffffffffffffffffffffffff1673ffffffffffffffffffffffffffffffffffffffff1681526020019081526020015f20610d4a6119698661218b565b6121f8565b79ffffffffffffffffffffffffffffffffffffffffffffffffffff16915079ffffffffffffffffffffffffffffffffffffffffffffffffffff1691508473ffffffffffffffffffffffffffffffffffffffff167fdec2bacdd2f05b59de34da9b523dff8be42e5e38e818c82fdb0bae774387a72483836040516119f292919061350d565b60405180910390a250505b5f73ffffffffffffffffffffffffffffffffffffffff168273ffffffffffffffffffffffffffffffffffffffff1614611b12575f5f611a8360095f8673ffffffffffffffffffffffffffffffffffffffff1673ffffffffffffffffffffffffffffffffffffffff1681526020019081526020015f20610d35611a7e8661218b565b6121f8565b79ffffffffffffffffffffffffffffffffffffffffffffffffffff16915079ffffffffffffffffffffffffffffffffffffffffffffffffffff1691508373ffffffffffffffffffffffffffffffffffffffff167fdec2bacdd2f05b59de34da9b523dff8be42e5e38e818c82fdb0bae774387a7248383604051611b0792919061350d565b60405180910390a250505b5b505050565b5f815f01805490509050919050565b5f63ffffffff8016821115611b76576020826040517f6dfcc650000000000000000000000000000000000000000000000000000000008152600401611b6d92919061356d565b60405180910390fd5b819050919050565b5f60075f8373ffffffffffffffffffffffffffffffffffffffff1673ffffffffffffffffffffffffffffffffffffffff1681526020019081526020015f20549050919050565b606060ff5f1b8314611be057611bd983612237565b9050611c6b565b818054611bec90613150565b80601f0160208091040260200160405190810160405280929190818152602001828054611c1890613150565b8015611c635780601f10611c3a57610100808354040283529160200191611c63565b820191905f5260205f20905b815481529060010190602001808311611c4657829003601f168201915b505050505090505b92915050565b5f6040517f190100000000000000000000000000000000000000000000000000000000000081528360028201528260228201526042812091505092915050565b5f5f5f7f7fffffffffffffffffffffffffffffff5d576e7357a4501ddfe92f46681b20a0845f1c1115611ced575f600385925092509250611d8e565b5f6001888888886040515f8152602001604052604051611d109493929190613594565b6020604051602081039080840390855afa158015611d30573d5f5f3e3d5ffd5b5050506020604051035190505f73ffffffffffffffffffffffffffffffffffffffff168173ffffffffffffffffffffffffffffffffffffffff1603611d81575f60015f5f1b93509350935050611d8e565b805f5f5f1b935093509350505b9450945094915050565b5f6003811115611dab57611daa6135d7565b5b826003811115611dbe57611dbd6135d7565b5b0315611ef65760016003811115611dd857611dd76135d7565b5b826003811115611deb57611dea6135d7565b5b03611e22576040517ff645eedf00000000000000000000000000000000000000000000000000000000815260040160405180910390fd5b60026003811115611e3657611e356135d7565b5b826003811115611e4957611e486135d7565b5b03611e8d57805f1c6040517ffce698f7000000000000000000000000000000000000000000000000000000008152600401611e849190612b4b565b60405180910390fd5b600380811115611ea057611e9f6135d7565b5b826003811115611eb357611eb26135d7565b5b03611ef557806040517fd78bce0c000000000000000000000000000000000000000000000000000000008152600401611eec9190612c00565b60405180910390fd5b5b5050565b611f0261296e565b825f018263ffffffff1681548110611f1d57611f1c613604565b5b905f5260205f20016040518060400160405290815f82015f9054906101000a900465ffffffffffff1665ffffffffffff1665ffffffffffff1681526020015f820160069054906101000a900479ffffffffffffffffffffffffffffffffffffffffffffffffffff1679ffffffffffffffffffffffffffffffffffffffffffffffffffff1679ffffffffffffffffffffffffffffffffffffffffffffffffffff1681525050905092915050565b611fd48383836122a9565b5f73ffffffffffffffffffffffffffffffffffffffff168373ffffffffffffffffffffffffffffffffffffffff1603612067575f61201061058b565b90505f61201b6124c2565b9050808211156120645781816040517f1cb15d2600000000000000000000000000000000000000000000000000000000815260040161205b92919061350d565b60405180910390fd5b50505b6120728383836124e5565b505050565b5f5f5f90505f608084901c111561209657608083901c92506080810190505b5f604084901c11156120b057604083901c92506040810190505b5f602084901c11156120ca57602083901c92506020810190505b5f601084901c11156120e457601083901c92506010810190505b5f600884901c11156120fe57600883901c92506008810190505b5f600484901c111561211857600483901c92506004810190505b5f600284901c111561213257600283901c92506002810190505b5f600184901c1115612145576001810190505b80915050919050565b5f81831061215c578161215e565b825b905092915050565b5f60028284186121769190613631565b8284166121839190613435565b905092915050565b5f79ffffffffffffffffffffffffffffffffffffffffffffffffffff80168211156121f05760d0826040517f6dfcc6500000000000000000000000000000000000000000000000000000000081526004016121e792919061369a565b60405180910390fd5b819050919050565b5f5f61222b612205610966565b61221b612211886112f4565b868863ffffffff16565b8761259d9092919063ffffffff16565b91509150935093915050565b60605f612243836125b8565b90505f602067ffffffffffffffff811115612261576122606131a7565b5b6040519080825280601f01601f1916602001820160405280156122935781602001600182028036833780820191505090505b5090508181528360208201528092505050919050565b5f73ffffffffffffffffffffffffffffffffffffffff168373ffffffffffffffffffffffffffffffffffffffff16036122f9578060025f8282546122ed9190613435565b925050819055506123c7565b5f5f5f8573ffffffffffffffffffffffffffffffffffffffff1673ffffffffffffffffffffffffffffffffffffffff1681526020019081526020015f2054905081811015612382578381836040517fe450d38c00000000000000000000000000000000000000000000000000000000815260040161237993929190613364565b60405180910390fd5b8181035f5f8673ffffffffffffffffffffffffffffffffffffffff1673ffffffffffffffffffffffffffffffffffffffff1681526020019081526020015f2081905550505b5f73ffffffffffffffffffffffffffffffffffffffff168273ffffffffffffffffffffffffffffffffffffffff160361240e578060025f8282540392505081905550612458565b805f5f8473ffffffffffffffffffffffffffffffffffffffff1673ffffffffffffffffffffffffffffffffffffffff1681526020019081526020015f205f82825401925050819055505b8173ffffffffffffffffffffffffffffffffffffffff168373ffffffffffffffffffffffffffffffffffffffff167fddf252ad1be2c89b69c2b068fc378daa952ba7f163c4a11628f55a4df523b3ef836040516124b59190612b4b565b60405180910390a3505050565b5f79ffffffffffffffffffffffffffffffffffffffffffffffffffff8016905090565b5f73ffffffffffffffffffffffffffffffffffffffff168373ffffffffffffffffffffffffffffffffffffffff16036125315761252e600a610d356125298461218b565b6121f8565b50505b5f73ffffffffffffffffffffffffffffffffffffffff168273ffffffffffffffffffffffffffffffffffffffff160361257d5761257a600a610d4a6125758461218b565b6121f8565b50505b61259861258984610742565b61259284610742565b836118a8565b505050565b5f5f6125ac855f018585612606565b91509150935093915050565b5f5f60ff835f1c169050601f8111156125fd576040517fb3512b0c00000000000000000000000000000000000000000000000000000000815260040160405180910390fd5b80915050919050565b5f5f5f858054905090505f811115612886575f61262f8760018461262a9190613402565b611810565b6040518060400160405290815f82015f9054906101000a900465ffffffffffff1665ffffffffffff1665ffffffffffff1681526020015f820160069054906101000a900479ffffffffffffffffffffffffffffffffffffffffffffffffffff1679ffffffffffffffffffffffffffffffffffffffffffffffffffff1679ffffffffffffffffffffffffffffffffffffffffffffffffffff168152505090508565ffffffffffff16815f015165ffffffffffff16111561271a576040517f2520601d00000000000000000000000000000000000000000000000000000000815260040160405180910390fd5b8565ffffffffffff16815f015165ffffffffffff160361279c578461274b886001856127469190613402565b611810565b5f0160066101000a81548179ffffffffffffffffffffffffffffffffffffffffffffffffffff021916908379ffffffffffffffffffffffffffffffffffffffffffffffffffff160217905550612875565b8660405180604001604052808865ffffffffffff1681526020018779ffffffffffffffffffffffffffffffffffffffffffffffffffff16815250908060018154018082558091505060019003905f5260205f20015f909190919091505f820151815f015f6101000a81548165ffffffffffff021916908365ffffffffffff1602179055506020820151815f0160066101000a81548179ffffffffffffffffffffffffffffffffffffffffffffffffffff021916908379ffffffffffffffffffffffffffffffffffffffffffffffffffff16021790555050505b806020015185935093505050612966565b8560405180604001604052808765ffffffffffff1681526020018679ffffffffffffffffffffffffffffffffffffffffffffffffffff16815250908060018154018082558091505060019003905f5260205f20015f909190919091505f820151815f015f6101000a81548165ffffffffffff021916908365ffffffffffff1602179055506020820151815f0160066101000a81548179ffffffffffffffffffffffffffffffffffffffffffffffffffff021916908379ffffffffffffffffffffffffffffffffffffffffffffffffffff16021790555050505f8492509250505b935093915050565b60405180604001604052805f65ffffffffffff1681526020015f79ffffffffffffffffffffffffffffffffffffffffffffffffffff1681525090565b5f81519050919050565b5f82825260208201905092915050565b8281835e5f83830152505050565b5f601f19601f8301169050919050565b5f6129ec826129aa565b6129f681856129b4565b9350612a068185602086016129c4565b612a0f816129d2565b840191505092915050565b5f6020820190508181035f830152612a3281846129e2565b905092915050565b5f5ffd5b5f73ffffffffffffffffffffffffffffffffffffffff82169050919050565b5f612a6782612a3e565b9050919050565b612a7781612a5d565b8114612a81575f5ffd5b50565b5f81359050612a9281612a6e565b92915050565b5f819050919050565b612aaa81612a98565b8114612ab4575f5ffd5b50565b5f81359050612ac581612aa1565b92915050565b5f5f60408385031215612ae157612ae0612a3a565b5b5f612aee85828601612a84565b9250506020612aff85828601612ab7565b9150509250929050565b5f8115159050919050565b612b1d81612b09565b82525050565b5f602082019050612b365f830184612b14565b92915050565b612b4581612a98565b82525050565b5f602082019050612b5e5f830184612b3c565b92915050565b5f5f5f60608486031215612b7b57612b7a612a3a565b5b5f612b8886828701612a84565b9350506020612b9986828701612a84565b9250506040612baa86828701612ab7565b9150509250925092565b5f60ff82169050919050565b612bc981612bb4565b82525050565b5f602082019050612be25f830184612bc0565b92915050565b5f819050919050565b612bfa81612be8565b82525050565b5f602082019050612c135f830184612bf1565b92915050565b5f60208284031215612c2e57612c2d612a3a565b5b5f612c3b84828501612a84565b91505092915050565b612c4d81612a5d565b82525050565b5f602082019050612c665f830184612c44565b92915050565b5f63ffffffff82169050919050565b612c8481612c6c565b82525050565b5f602082019050612c9d5f830184612c7b565b92915050565b5f7fff0000000000000000000000000000000000000000000000000000000000000082169050919050565b612cd781612ca3565b82525050565b5f81519050919050565b5f82825260208201905092915050565b5f819050602082019050919050565b612d0f81612a98565b82525050565b5f612d208383612d06565b60208301905092915050565b5f602082019050919050565b5f612d4282612cdd565b612d4c8185612ce7565b9350612d5783612cf7565b805f5b83811015612d87578151612d6e8882612d15565b9750612d7983612d2c565b925050600181019050612d5a565b5085935050505092915050565b5f60e082019050612da75f83018a612cce565b8181036020830152612db981896129e2565b90508181036040830152612dcd81886129e2565b9050612ddc6060830187612b3c565b612de96080830186612c44565b612df660a0830185612bf1565b81810360c0830152612e088184612d38565b905098975050505050505050565b5f60208284031215612e2b57612e2a612a3a565b5b5f612e3884828501612ab7565b91505092915050565b5f65ffffffffffff82169050919050565b612e5b81612e41565b82525050565b5f602082019050612e745f830184612e52565b92915050565b612e8381612bb4565b8114612e8d575f5ffd5b50565b5f81359050612e9e81612e7a565b92915050565b612ead81612be8565b8114612eb7575f5ffd5b50565b5f81359050612ec881612ea4565b92915050565b5f5f5f5f5f5f60c08789031215612ee857612ee7612a3a565b5b5f612ef589828a01612a84565b9650506020612f0689828a01612ab7565b9550506040612f1789828a01612ab7565b9450506060612f2889828a01612e90565b9350506080612f3989828a01612eba565b92505060a0612f4a89828a01612eba565b9150509295509295509295565b5f5f5f5f5f5f5f60e0888a031215612f7257612f71612a3a565b5b5f612f7f8a828b01612a84565b9750506020612f908a828b01612a84565b9650506040612fa18a828b01612ab7565b9550506060612fb28a828b01612ab7565b9450506080612fc38a828b01612e90565b93505060a0612fd48a828b01612eba565b92505060c0612fe58a828b01612eba565b91505092959891949750929550565b5f5f6040838503121561300a57613009612a3a565b5b5f61301785828601612a84565b925050602061302885828601612a84565b9150509250929050565b61303b81612c6c565b8114613045575f5ffd5b50565b5f8135905061305681613032565b92915050565b5f5f6040838503121561307257613071612a3a565b5b5f61307f85828601612a84565b925050602061309085828601613048565b9150509250929050565b6130a381612e41565b82525050565b5f79ffffffffffffffffffffffffffffffffffffffffffffffffffff82169050919050565b6130d7816130a9565b82525050565b604082015f8201516130f15f85018261309a565b50602082015161310460208501826130ce565b50505050565b5f60408201905061311d5f8301846130dd565b92915050565b7f4e487b71000000000000000000000000000000000000000000000000000000005f52602260045260245ffd5b5f600282049050600182168061316757607f821691505b60208210810361317a57613179613123565b5b50919050565b5f6040820190506131935f830185612b3c565b6131a06020830184612e52565b9392505050565b7f4e487b71000000000000000000000000000000000000000000000000000000005f52604160045260245ffd5b5f6080820190506131e75f830187612bf1565b6131f46020830186612c44565b6132016040830185612b3c565b61320e6060830184612b3c565b95945050505050565b5f60c08201905061322a5f830189612bf1565b6132376020830188612c44565b6132446040830187612c44565b6132516060830186612b3c565b61325e6080830185612b3c565b61326b60a0830184612b3c565b979650505050505050565b5f6040820190506132895f830185612c44565b6132966020830184612c44565b9392505050565b7f4e487b71000000000000000000000000000000000000000000000000000000005f52601160045260245ffd5b5f6132d4826130a9565b91506132df836130a9565b9250828201905079ffffffffffffffffffffffffffffffffffffffffffffffffffff8111156133115761331061329d565b5b92915050565b5f613321826130a9565b915061332c836130a9565b9250828203905079ffffffffffffffffffffffffffffffffffffffffffffffffffff81111561335e5761335d61329d565b5b92915050565b5f6060820190506133775f830186612c44565b6133846020830185612b3c565b6133916040830184612b3c565b949350505050565b5f819050919050565b5f819050919050565b5f6133c56133c06133bb84613399565b6133a2565b612bb4565b9050919050565b6133d5816133ab565b82525050565b5f6040820190506133ee5f8301856133cc565b6133fb6020830184612b3c565b9392505050565b5f61340c82612a98565b915061341783612a98565b925082820390508181111561342f5761342e61329d565b5b92915050565b5f61343f82612a98565b915061344a83612a98565b92508282019050808211156134625761346161329d565b5b92915050565b5f60408201905061347b5f830185612c44565b6134886020830184612b3c565b9392505050565b5f60a0820190506134a25f830188612bf1565b6134af6020830187612bf1565b6134bc6040830186612bf1565b6134c96060830185612b3c565b6134d66080830184612c44565b9695505050505050565b7f4e487b71000000000000000000000000000000000000000000000000000000005f52601260045260245ffd5b5f6040820190506135205f830185612b3c565b61352d6020830184612b3c565b9392505050565b5f819050919050565b5f61355761355261354d84613534565b6133a2565b612bb4565b9050919050565b6135678161353d565b82525050565b5f6040820190506135805f83018561355e565b61358d6020830184612b3c565b9392505050565b5f6080820190506135a75f830187612bf1565b6135b46020830186612bc0565b6135c16040830185612bf1565b6135ce6060830184612bf1565b95945050505050565b7f4e487b71000000000000000000000000000000000000000000000000000000005f52602160045260245ffd5b7f4e487b71000000000000000000000000000000000000000000000000000000005f52603260045260245ffd5b5f61363b82612a98565b915061364683612a98565b925082613656576136556134e0565b5b828204905092915050565b5f819050919050565b5f61368461367f61367a84613661565b6133a2565b612bb4565b9050919050565b6136948161366a565b82525050565b5f6040820190506136ad5f83018561368b565b6136ba6020830184612b3c565b939250505056fea2646970667358221220a086232ceedc75f49d97d16b69d52054c824e3f1447cf655cc8d4e739a46745864736f6c634300081e0033","linkReferences":{}},"methodIdentifiers":{"CLOCK_MODE()":"4bf5d7e9","DOMAIN_SEPARATOR()":"3644e515","allowance(address,address)":"dd62ed3e","approve(address,uint256)":"095ea7b3","balanceOf(address)":"70a08231","checkpoints(address,uint32)":"f1127ed8","clock()":"91ddadf4","decimals()":"313ce567","delegate(address)":"5c19a95c","delegateBySig(address,uint256,uint256,uint8,bytes32,bytes32)":"c3cda520","delegates(address)":"587cde1e","eip712Domain()":"84b0196e","getPastTotalSupply(uint256)":"8e539e8c","getPastVotes(address,uint256)":"3a46b1a8","getVotes(address)":"9ab24eb0","name()":"06fdde03","nonces(address)":"7ecebe00","numCheckpoints(address)":"6fcfff45","permit(address,address,uint256,uint256,uint8,bytes32,bytes32)":"d505accf","symbol()":"95d89b41","totalSupply()":"18160ddd","transfer(address,uint256)":"a9059cbb","transferFrom(address,address,uint256)":"23b872dd"},"id":70}