{"abi":[{"type":"constructor","inputs":[{"name":"_token","type":"address","internalType":"contract IVotes"},{"name":"_timelock","type":"address","internalType":"contract TimelockController"}],"stateMutability":"nonpayable"},{"type":"receive","stateMutability":"payable"},{"type":"function","name":"BALLOT_TYPEHASH","inputs":[],"outputs":[{"name":"","type":"bytes32","internalType":"bytes32"}],"stateMutability":"view"},{"type":"function","name":"CLOCK_MODE","inputs":[],"outputs":[{"name":"","type":"string","internalType":"string"}],"stateMutability":"pure"},{"type":"function","name":"COUNTING_MODE","inputs":[],"outputs":[{"name":"","type":"string","internalType":"string"}],"stateMutability":"pure"},{"type":"function","name":"EXTENDED_BALLOT_TYPEHASH","inputs":[],"outputs":[{"name":"","type":"bytes32","internalType":"bytes32"}],"stateMutability":"view"},{"type":"function","name":"cancel","inputs":[{"name":"targets","type":"address[]","internalType":"address[]"},{"name":"values","type":"uint256[]","internalType":"uint256[]"},{"name":"calldatas","type":"bytes[]","internalType":"bytes[]"},{"name":"descriptionHash","type":"bytes32","internalType":"bytes32"}],"outputs":[{"name":"","type":"uint256","internalType":"uint256"}],"stateMutability":"nonpayable"},{"type":"function","name":"castVote","inputs":[{"name":"proposalId","type":"uint256","internalType":"uint256"},{"name":"support","type":"uint8","internalType":"uint8"}],"outputs":[{"name":"","type":"uint256","internalType":"uint256"}],"stateMutability":"nonpayable"},{"type":"function","name":"castVoteBySig","inputs":[{"name":"proposalId","type":"uint256","internalType":"uint256"},{"name":"support","type":"uint8","internalType":"uint8"},{"name":"voter","type":"address","internalType":"address"},{"name":"signature","type":"bytes","internalType":"bytes"}],"outputs":[{"name":"","type":"uint256","internalType":"uint256"}],"stateMutability":"nonpayable"},{"type":"function","name":"castVoteWithReason","inputs":[{"name":"proposalId","type":"uint256","internalType":"uint256"},{"name":"support","type":"uint8","internalType":"uint8"},{"name":"reason","type":"string","internalType":"string"}],"outputs":[{"name":"","type":"uint256","internalType":"uint256"}],"stateMutability":"nonpayable"},{"type":"function","name":"castVoteWithReasonAndParams","inputs":[{"name":"proposalId","type":"uint256","internalType":"uint256"},{"name":"support","type":"uint8","internalType":"uint8"},{"name":"reason","type":"string","internalType":"string"},{"name":"params","type":"bytes","internalType":"bytes"}],"outputs":[{"name":"","type":"uint256","internalType":"uint256"}],"stateMutability":"nonpayable"},{"type":"function","name":"castVoteWithReasonAndParamsBySig","inputs":[{"name":"proposalId","type":"uint256","internalType":"uint256"},{"name":"support","type":"uint8","internalType":"uint8"},{"name":"voter","type":"address","internalType":"address"},{"name":"reason","type":"string","internalType":"string"},{"name":"params","type":"bytes","internalType":"bytes"},{"name":"signature","type":"bytes","internalType":"bytes"}],"outputs":[{"name":"","type":"uint256","internalType":"uint256"}],"stateMutability":"nonpayable"},{"type":"function","name":"clock","inputs":[],"outputs":[{"name":"","type":"uint48","internalType":"uint48"}],"stateMutability":"view"},{"type":"function","name":"eip712Domain","inputs":[],"outputs":[{"name":"fields","type":"bytes1","internalType":"bytes1"},{"name":"name","type":"string","internalType":"string"},{"name":"version","type":"string","internalType":"string"},{"name":"chainId","type":"uint256","internalType":"uint256"},{"name":"verifyingContract","type":"address","internalType":"address"},{"name":"salt","type":"bytes32","internalType":"bytes32"},{"name":"extensions","type":"uint256[]","internalType":"uint256[]"}],"stateMutability":"view"},{"type":"function","name":"execute","inputs":[{"name":"targets","type":"address[]","internalType":"address[]"},{"name":"values","type":"uint256[]","internalType":"uint256[]"},{"name":"calldatas","type":"bytes[]","internalType":"bytes[]"},{"name":"descriptionHash","type":"bytes32","internalType":"bytes32"}],"outputs":[{"name":"","type":"uint256","internalType":"uint256"}],"stateMutability":"payable"},{"type":"function","name":"getVotes","inputs":[{"name":"account","type":"address","internalType":"address"},{"name":"timepoint","type":"uint256","internalType":"uint256"}],"outputs":[{"name":"","type":"uint256","internalType":"uint256"}],"stateMutability":"view"},{"type":"function","name":"getVotesWithParams","inputs":[{"name":"account","type":"address","internalType":"address"},{"name":"timepoint","type":"uint256","internalType":"uint256"},{"name":"params","type":"bytes","internalType":"bytes"}],"outputs":[{"name":"","type":"uint256","internalType":"uint256"}],"stateMutability":"view"},{"type":"function","name":"hasVoted","inputs":[{"name":"proposalId","type":"uint256","internalType":"uint256"},{"name":"account","type":"address","internalType":"address"}],"outputs":[{"name":"","type":"bool","internalType":"bool"}],"stateMutability":"view"},{"type":"function","name":"hashProposal","inputs":[{"name":"targets","type":"address[]","internalType":"address[]"},{"name":"values","type":"uint256[]","internalType":"uint256[]"},{"name":"calldatas","type":"bytes[]","internalType":"bytes[]"},{"name":"descriptionHash","type":"bytes32","internalType":"bytes32"}],"outputs":[{"name":"","type":"uint256","internalType":"uint256"}],"stateMutability":"pure"},{"type":"function","name":"name","inputs":[],"outputs":[{"name":"","type":"string","internalType":"string"}],"stateMutability":"view"},{"type":"function","name":"nonces","inputs":[{"name":"owner","type":"address","internalType":"address"}],"outputs":[{"name":"","type":"uint256","internalType":"uint256"}],"stateMutability":"view"},{"type":"function","name":"onERC1155BatchReceived","inputs":[{"name":"","type":"address","internalType":"address"},{"name":"","type":"address","internalType":"address"},{"name":"","type":"uint256[]","internalType":"uint256[]"},{"name":"","type":"uint256[]","internalType":"uint256[]"},{"name":"","type":"bytes","internalType":"bytes"}],"outputs":[{"name":"","type":"bytes4","internalType":"bytes4"}],"stateMutability":"nonpayable"},{"type":"function","name":"onERC1155Received","inputs":[{"name":"","type":"address","internalType":"address"},{"name":"","type":"address","internalType":"address"},{"name":"","type":"uint256","internalType":"uint256"},{"name":"","type":"uint256","internalType":"uint256"},{"name":"","type":"bytes","internalType":"bytes"}],"outputs":[{"name":"","type":"bytes4","internalType":"bytes4"}],"stateMutability":"nonpayable"},{"type":"function","name":"onERC721Received","inputs":[{"name":"","type":"address","internalType":"address"},{"name":"","type":"address","internalType":"address"},{"name":"","type":"uint256","internalType":"uint256"},{"name":"","type":"bytes","internalType":"bytes"}],"outputs":[{"name":"","type":"bytes4","internalType":"bytes4"}],"stateMutability":"nonpayable"},{"type":"function","name":"proposalDeadline","inputs":[{"name":"proposalId","type":"uint256","internalType":"uint256"}],"outputs":[{"name":"","type":"uint256","internalType":"uint256"}],"stateMutability":"view"},{"type":"function","name":"proposalEta","inputs":[{"name":"proposalId","type":"uint256","internalType":"uint256"}],"outputs":[{"name":"","type":"uint256","internalType":"uint256"}],"stateMutability":"view"},{"type":"function","name":"proposalNeedsQueuing","inputs":[{"name":"id","type":"uint256","internalType":"uint256"}],"outputs":[{"name":"","type":"bool","internalType":"bool"}],"stateMutability":"view"},{"type":"function","name":"proposalProposer","inputs":[{"name":"proposalId","type":"uint256","internalType":"uint256"}],"outputs":[{"name":"","type":"address","internalType":"address"}],"stateMutability":"view"},{"type":"function","name":"proposalSnapshot","inputs":[{"name":"proposalId","type":"uint256","internalType":"uint256"}],"outputs":[{"name":"","type":"uint256","internalType":"uint256"}],"stateMutability":"view"},{"type":"function","name":"proposalThreshold","inputs":[],"outputs":[{"name":"","type":"uint256","internalType":"uint256"}],"stateMutability":"pure"},{"type":"function","name":"proposalVotes","inputs":[{"name":"proposalId","type":"uint256","internalType":"uint256"}],"outputs":[{"name":"againstVotes","type":"uint256","internalType":"uint256"},{"name":"forVotes","type":"uint256","internalType":"uint256"},{"name":"abstainVotes","type":"uint256","internalType":"uint256"}],"stateMutability":"view"},{"type":"function","name":"propose","inputs":[{"name":"targets","type":"address[]","internalType":"address[]"},{"name":"values","type":"uint256[]","internalType":"uint256[]"},{"name":"calldatas","type":"bytes[]","internalType":"bytes[]"},{"name":"description","type":"string","internalType":"string"}],"outputs":[{"name":"","type":"uint256","internalType":"uint256"}],"stateMutability":"nonpayable"},{"type":"function","name":"queue","inputs":[{"name":"targets","type":"address[]","internalType":"address[]"},{"name":"values","type":"uint256[]","internalType":"uint256[]"},{"name":"calldatas","type":"bytes[]","internalType":"bytes[]"},{"name":"descriptionHash","type":"bytes32","internalType":"bytes32"}],"outputs":[{"name":"","type":"uint256","internalType":"uint256"}],"stateMutability":"nonpayable"},{"type":"function","name":"quorum","inputs":[{"name":"blockNumber","type":"uint256","internalType":"uint256"}],"outputs":[{"name":"","type":"uint256","internalType":"uint256"}],"stateMutability":"view"},{"type":"function","name":"quorumDenominator","inputs":[],"outputs":[{"name":"","type":"uint256","internalType":"uint256"}],"stateMutability":"view"},{"type":"function","name":"quorumNumerator","inputs":[{"name":"timepoint","type":"uint256","internalType":"uint256"}],"outputs":[{"name":"","type":"uint256","internalType":"uint256"}],"stateMutability":"view"},{"type":"function","name":"quorumNumerator","inputs":[],"outputs":[{"name":"","type":"uint256","internalType":"uint256"}],"stateMutability":"view"},{"type":"function","name":"relay","inputs":[{"name":"target","type":"address","internalType":"address"},{"name":"value","type":"uint256","internalType":"uint256"},{"name":"data","type":"bytes","internalType":"bytes"}],"outputs":[],"stateMutability":"payable"},{"type":"function","name":"state","inputs":[{"name":"id","type":"uint256","internalType":"uint256"}],"outputs":[{"name":"","type":"uint8","internalType":"enum IGovernor.ProposalState"}],"stateMutability":"view"},{"type":"function","name":"supportsInterface","inputs":[{"name":"interfaceId","type":"bytes4","internalType":"bytes4"}],"outputs":[{"name":"","type":"bool","internalType":"bool"}],"stateMutability":"view"},{"type":"function","name":"timelock","inputs":[],"outputs":[{"name":"","type":"address","internalType":"address"}],"stateMutability":"view"},{"type":"function","name":"token","inputs":[],"outputs":[{"name":"","type":"address","internalType":"contract IERC5805"}],"stateMutability":"view"},{"type":"function","name":"updateQuorumNumerator","inputs":[{"name":"newQuorumNumerator","type":"uint256","internalType":"uint256"}],"outputs":[],"stateMutability":"nonpayable"},{"type":"function","name":"updateTimelock","inputs":[{"name":"newTimelock","type":"address","internalType":"contract TimelockController"}],"outputs":[],"stateMutability":"nonpayable"},{"type":"function","name":"version","inputs":[],"outputs":[{"name":"","type":"string","internalType":"string"}],"stateMutability":"view"},{"type":"function","name":"votingDelay","inputs":[],"outputs":[{"name":"","type":"uint256","internalType":"uint256"}],"stateMutability":"pure"},{"type":"function","name":"votingPeriod","inputs":[],"outputs":[{"name":"","type":"uint256","internalType":"uint256"}],"stateMutability":"pure"},{"type":"event","name":"EIP712DomainChanged","inputs":[],"anonymous":false},{"type":"event","name":"ProposalCanceled","inputs":[{"name":"proposalId","type":"uint256","indexed":false,"internalType":"uint256"}],"anonymous":false},{"type":"event","name":"ProposalCreated","inputs":[{"name":"proposalId","type":"uint256","indexed":false,"internalType":"uint256"},{"name":"proposer","type":"address","indexed":false,"internalType":"address"},{"name":"targets","type":"address[]","indexed":false,"internalType":"address[]"},{"name":"values","type":"uint256[]","indexed":false,"internalType":"uint256[]"},{"name":"signatures","type":"string[]","indexed":false,"internalType":"string[]"},{"name":"calldatas","type":"bytes[]","indexed":false,"internalType":"bytes[]"},{"name":"voteStart","type":"uint256","indexed":false,"internalType":"uint256"},{"name":"voteEnd","type":"uint256","indexed":false,"internalType":"uint256"},{"name":"description","type":"string","indexed":false,"internalType":"string"}],"anonymous":false},{"type":"event","name":"ProposalExecuted","inputs":[{"name":"proposalId","type":"uint256","indexed":false,"internalType":"uint256"}],"anonymous":false},{"type":"event","name":"ProposalQueued","inputs":[{"name":"proposalId","type":"uint256","indexed":false,"internalType":"uint256"},{"name":"etaSeconds","type":"uint256","indexed":false,"internalType":"uint256"}],"anonymous":false},{"type":"event","name":"QuorumNumeratorUpdated","inputs":[{"name":"oldQuorumNumerator","type":"uint256","indexed":false,"internalType":"uint256"},{"name":"newQuorumNumerator","type":"uint256","indexed":false,"internalType":"uint256"}],"anonymous":false},{"type":"event","name":"TimelockChange","inputs":[{"name":"oldTimelock","type":"address","indexed":false,"internalType":"address"},{"name":"newTimelock","type":"address","indexed":false,"internalType":"address"}],"anonymous":false},{"type":"event","name":"VoteCast","inputs":[{"name":"voter","type":"address","indexed":true,"internalType":"address"},{"name":"proposalId","type":"uint256","indexed":false,"internalType":"uint256"},{"name":"support","type":"uint8","indexed":false,"internalType":"uint8"},{"name":"weight","type":"uint256","indexed":false,"internalType":"uint256"},{"name":"reason","type":"string","indexed":false,"internalType":"string"}],"anonymous":false},{"type":"event","name":"VoteCastWithParams","inputs":[{"name":"voter","type":"address","indexed":true,"internalType":"address"},{"name":"proposalId","type":"uint256","indexed":false,"internalType":"uint256"},{"name":"support","type":"uint8","indexed":false,"internalType":"uint8"},{"name":"weight","type":"uint256","indexed":false,"internalType":"uint256"},{"name":"reason","type":"string","indexed":false,"internalType":"string"},{"name":"params","type":"bytes","indexed":false,"internalType":"bytes"}],"anonymous":false},{"type":"error","name":"CheckpointUnorderedInsertion","inputs":[]},{"type":"error","name":"FailedInnerCall","inputs":[]},{"type":"error","name":"GovernorAlreadyCastVote","inputs":[{"name":"voter","type":"address","internalType":"address"}]},{"type":"error","name":"GovernorAlreadyQueuedProposal","inputs":[{"name":"proposalId","type":"uint256","internalType":"uint256"}]},{"type":"error","name":"GovernorDisabledDeposit","inputs":[]},{"type":"error","name":"GovernorInsufficientProposerVotes","inputs":[{"name":"proposer","type":"address","internalType":"address"},{"name":"votes","type":"uint256","internalType":"uint256"},{"name":"threshold","type":"uint256","internalType":"uint256"}]},{"type":"error","name":"GovernorInvalidProposalLength","inputs":[{"name":"targets","type":"uint256","internalType":"uint256"},{"name":"calldatas","type":"uint256","internalType":"uint256"},{"name":"values","type":"uint256","internalType":"uint256"}]},{"type":"error","name":"GovernorInvalidQuorumFraction","inputs":[{"name":"quorumNumerator","type":"uint256","internalType":"uint256"},{"name":"quorumDenominator","type":"uint256","internalType":"uint256"}]},{"type":"error","name":"GovernorInvalidSignature","inputs":[{"name":"voter","type":"address","internalType":"address"}]},{"type":"error","name":"GovernorInvalidVoteType","inputs":[]},{"type":"error","name":"GovernorInvalidVotingPeriod","inputs":[{"name":"votingPeriod","type":"uint256","internalType":"uint256"}]},{"type":"error","name":"GovernorNonexistentProposal","inputs":[{"name":"proposalId","type":"uint256","internalType":"uint256"}]},{"type":"error","name":"GovernorNotQueuedProposal","inputs":[{"name":"proposalId","type":"uint256","internalType":"uint256"}]},{"type":"error","name":"GovernorOnlyExecutor","inputs":[{"name":"account","type":"address","internalType":"address"}]},{"type":"error","name":"GovernorOnlyProposer","inputs":[{"name":"account","type":"address","internalType":"address"}]},{"type":"error","name":"GovernorQueueNotImplemented","inputs":[]},{"type":"error","name":"GovernorRestrictedProposer","inputs":[{"name":"proposer","type":"address","internalType":"address"}]},{"type":"error","name":"GovernorUnexpectedProposalState","inputs":[{"name":"proposalId","type":"uint256","internalType":"uint256"},{"name":"current","type":"uint8","internalType":"enum IGovernor.ProposalState"},{"name":"expectedStates","type":"bytes32","internalType":"bytes32"}]},{"type":"error","name":"InvalidAccountNonce","inputs":[{"name":"account","type":"address","internalType":"address"},{"name":"currentNonce","type":"uint256","internalType":"uint256"}]},{"type":"error","name":"InvalidShortString","inputs":[]},{"type":"error","name":"QueueEmpty","inputs":[]},{"type":"error","name":"QueueFull","inputs":[]},{"type":"error","name":"SafeCastOverflowedUintDowncast","inputs":[{"name":"bits","type":"uint8","internalType":"uint8"},{"name":"value","type":"uint256","internalType":"uint256"}]},{"type":"error","name":"StringTooLong","inputs":[{"name":"str","type":"string","internalType":"string"}]}],"bytecode":{"object":"0x610180604052346100a05761001b610015610102565b9061016e565b6040516136269081610931823960805181612dd3015260a05181612e8a015260c05181612d9d015260e05181612e2201526101005181612e48015261012051816112f9015261014051816113250152610160518181816115750152818161195901528181611a3a01528181611ad9015281816121fe0152818161276801526134ce0152f35b5f80fd5b634e487b7160e01b5f52604160045260245ffd5b601f909101601f19168101906001600160401b038211908210176100db57604052565b6100a4565b604051906100ef6040836100b8565b565b6001600160a01b038116036100a057565b613f779060408238039283825194859261011c82856100b8565b8339810103126100a0576020825192610134846100f1565b015191610140836100f1565b9190565b604051906101536040836100b8565b600c8252565b604051906101686040836100b8565b60018252565b906100ef9161023861017e610144565b602081016b26b0b630a3b7bb32b93737b960a11b815261019c610159565b906020820190603160f81b82526101b2846104c3565b610120526101bf836105b3565b6101405283519020918260e05251902080610100524660a0526040519060208201927f8b73c3c69bb8fe3d512ecc4cf759cc79239f7b179b0ffacaa9a75d522b39400f8452604083015260608201524660808201523060a082015260a0815261022960c0826100b8565b5190206080523060c0526102d9565b6001600160a01b03166101605261024d610411565b6103be565b90600182811c92168015610280575b602083101461026c57565b634e487b7160e01b5f52602260045260245ffd5b91607f1691610261565b601f821161029757505050565b5f5260205f20906020601f840160051c830193106102cf575b601f0160051c01905b8181106102c4575050565b5f81556001016102b9565b90915081906102b0565b80519091906001600160401b0381116100db57610302816102fb600354610252565b600361028a565b602092601f821160011461034257610332929382915f92610337575b50508160011b915f199060031b1c19161790565b600355565b015190505f8061031e565b60035f52601f198216937fc2575a0e9e593c00f959f8c92f12db2869c3395a3b0502d05e2516446f71f85b915f5b8681106103a6575083600195961061038e575b505050811b01600355565b01515f1960f88460031b161c191690555f8080610383565b91926020600181928685015181550194019201610370565b600954604080516001600160a01b03808416825290931660208401819052927f08f74ea46ef7894f65eabfb5e6e695de773a000b47c529ab559178069b2264019190a16001600160a01b03191617600955565b6008548061046457505f516020613f575f395f51905f52600a5f5b6001600160d01b03166104504365ffffffffffff1661044a846106a5565b906107ec565b5050604080519182526020820192909252a1565b805f198101116104af5760085f527ff3f7a9fe364faab93b216da50a3214154f22a0a2b415b23a84c8169e8b636ee201545f516020613f575f395f51905f5290600a9060301c61042c565b634e487b7160e01b5f52601160045260245ffd5b908151602081105f146104de5750906104db906106d6565b90565b6001600160401b0381116100db57610500816104fa5f54610252565b5f61028a565b602092601f82116001146105365761052f929382915f926103375750508160011b915f199060031b1c19161790565b5f5560ff90565b5f8052601f198216937f290decd9548b62a8d60345a988386fc84ba6bc95484008f6362f93160ef3e563915f5b86811061059b5750836001959610610583575b505050811b015f5560ff90565b01515f1960f88460031b161c191690555f8080610576565b91926020600181928685015181550194019201610563565b908151602081105f146105cb5750906104db906106d6565b6001600160401b0381116100db576105ef816105e8600154610252565b600161028a565b602092601f82116001146106265761061e929382915f926103375750508160011b915f199060031b1c19161790565b60015560ff90565b60015f52601f198216937fb10e2d527612073b26eecdfd717e6a320cf44b4afac2b0732d9fcbe2b7fa0cf6915f5b86811061068d5750836001959610610675575b505050811b0160015560ff90565b01515f1960f88460031b161c191690555f8080610667565b91926020600181928685015181550194019201610654565b6001600160d01b0381116106bf576001600160d01b031690565b6306dfcc6560e41b5f5260d060045260245260445ffd5b601f8151116107015760208151910151602082106106f2571790565b5f198260200360031b1b161790565b604460209160405192839163305a27a960e01b83528160048401528051918291826024860152018484015e5f828201840152601f01601f19168101030190fd5b5f198101919082116104af57565b908154680100000000000000008110156100db57600181018084558110156107a2575f9283526020928390208251929093015160301b65ffffffffffff191665ffffffffffff9290921691909117910155565b634e487b7160e01b5f52603260045260245ffd5b604080519192919081016001600160401b038111828210176100db57604052915465ffffffffffff8116835260301c6020830152565b600854919291908115610907578161083e61083961081065ffffffffffff95610741565b60085f527ff3f7a9fe364faab93b216da50a3214154f22a0a2b415b23a84c8169e8b636ee30190565b6107b6565b9061084f825165ffffffffffff1690565b84841694859116116108f8578560209361014095610881610876865165ffffffffffff1690565b65ffffffffffff1690565b036108bd57506108966108106108af93610741565b9065ffffffffffff82549181199060301b169116179055565b01516001600160d01b031690565b90506108f391506108dd6108cf6100e0565b65ffffffffffff9092168252565b6001600160d01b038716818501525b600861074f565b6108af565b632520601d60e01b5f5260045ffd5b61092b91506109176108cf6100e0565b6001600160d01b03841660208201526108ec565b5f919056fe6080604052600436101561001a575b3615610018575f80fd5b005b5f3560e01c806301ffc9a7146102e957806302a251a3146102e457806306f3f9e6146102df57806306fdde03146102da578063143489d0146102d5578063150b7a02146102d0578063160cbed7146102cb5780632656227d146102c65780632d63f693146102c15780632fe3e261146102bc5780633932abb1146102b75780633e4f49e6146102b257806343859632146102ad578063452115d6146102a85780634bf5d7e9146102a3578063544ffc9c1461029e57806354fd4d501461029957806356781388146102945780635b8d0e0d1461028f5780635f398a141461028a57806360c4247f146102855780637b3c71d3146102805780637d5e81e21461027b5780637ecebe001461027657806384b0196e146102715780638ff262e31461026c57806391ddadf41461026757806397c3d334146102625780639a802a6d1461025d578063a7713a7014610258578063a890c91014610253578063a9a952941461024e578063ab58fb8e14610249578063b58131b014610244578063bc197c811461023f578063c01f9e371461023a578063c28bc2fa14610235578063c59057e414610230578063d33219b41461022b578063dd4e2ba514610226578063deaaa7cc14610221578063eb9019d41461021c578063f23a6e6114610217578063f8ce560a146102125763fc0c546a0361000e57611ac4565b611a09565b61199c565b6118f7565b6118bd565b61185e565b611836565b61181a565b6117af565b611791565b6116e4565b6116ca565b611697565b61167b565b611603565b6115d8565b611503565b6114e8565b6114c6565b6113b1565b6112e1565b611273565b6111c5565b611170565b611152565b6110dd565b611037565b610fc9565b610f76565b610f35565b610ed6565b610d7b565b610d26565b610cf7565b610cab565b610c71565b610c3c565b610adc565b610895565b610651565b610557565b61047d565b610381565b610365565b346103575760203660031901126103575760043563ffffffff60e01b8116809103610357576020906332a2ad4360e11b8114908115610346575b8115610335575b506040519015158152f35b6301ffc9a760e01b1490505f61032a565b630271189760e51b81149150610323565b5f80fd5b5f91031261035757565b34610357575f36600319011261035757602060405161b2fa8152f35b346103575760203660031901126103575760043561039d61224a565b6064811161042e576001600160d01b036103b5612a83565b166001600160d01b038211610416577f0553476bf02ef2726e8ce5ced78d63e26e602e4a2257b1f559418e24b463399791906104026001600160d01b0383164365ffffffffffff16613373565b5050604080519182526020820192909252a1005b506306dfcc6560e41b5f5260d060045260245260445ffd5b63243e544560e01b5f52600452606460245260445ffd5b805180835260209291819084018484015e5f828201840152601f01601f1916010190565b90602061047a928181520190610445565b90565b34610357575f366003190112610357576040515f60035461049d81611b08565b808452906001811690811561053357506001146104d5575b6104d1836104c5818503826105ae565b60405191829182610469565b0390f35b60035f9081527fc2575a0e9e593c00f959f8c92f12db2869c3395a3b0502d05e2516446f71f85b939250905b808210610519575090915081016020016104c56104b5565b919260018160209254838588010152019101909291610501565b60ff191660208086019190915291151560051b840190910191506104c590506104b5565b34610357576020366003190112610357576004355f526004602052602060018060a01b0360405f205416604051908152f35b6001600160a01b0381160361035757565b634e487b7160e01b5f52604160045260245ffd5b90601f801991011681019081106001600160401b038211176105cf57604052565b61059a565b604051906105e36040836105ae565b565b6001600160401b0381116105cf57601f01601f191660200190565b92919261060c826105e5565b9161061a60405193846105ae565b829481845281830111610357578281602093845f960137010152565b9080601f830112156103575781602061047a93359101610600565b346103575760803660031901126103575761066d600435610589565b610678602435610589565b6064356001600160401b03811161035757610697903690600401610636565b50600954306001600160a01b03909116036106be57604051630a85bd0160e11b8152602090f35b637485328f60e11b5f5260045ffd5b6001600160401b0381116105cf5760051b60200190565b9080601f830112156103575781356106fb816106cd565b9261070960405194856105ae565b81845260208085019260051b82010192831161035757602001905b8282106107315750505090565b60208091833561074081610589565b815201910190610724565b9080601f83011215610357578135610762816106cd565b9261077060405194856105ae565b81845260208085019260051b82010192831161035757602001905b8282106107985750505090565b813581526020918201910161078b565b9080601f830112156103575781356107bf816106cd565b926107cd60405194856105ae565b81845260208085019260051b820101918383116103575760208201905b8382106107f957505050505090565b81356001600160401b0381116103575760209161081b87848094880101610636565b8152019101906107ea565b6080600319820112610357576004356001600160401b0381116103575781610850916004016106e4565b916024356001600160401b038111610357578261086f9160040161074b565b91604435906001600160401b0382116103575761088e916004016107a8565b9060643590565b34610357576108a336610826565b90926108b182858584612154565b936108bb856122f2565b506009546108d9906001600160a01b03165b6001600160a01b031690565b936040519363793d064960e11b8552602085600481895afa948515610a87575f95610abb575b503060601b6bffffffffffffffffffffffff191618946020604051809263b1c5f42760e01b825281806109388b89898c60048601612b72565b03915afa908115610a87575f91610a8c575b5061095d875f52600a60205260405f2090565b55600954610973906001600160a01b03166108cd565b90813b15610357575f809461099f87604051998a97889687956308f2a0bb60e41b875260048701612bb7565b03925af1908115610a87576109c3926109be92610a6d575b504261288a565b61283e565b9065ffffffffffff821615610a5e577f9a2e42fd6722813d69113e7d0079d3d940171428df7373df9c7f7617cfda2892610a4b83610a2c6104d1956001610a12875f52600460205260405f2090565b019065ffffffffffff1665ffffffffffff19825416179055565b6040805185815265ffffffffffff909216602083015290918291820190565b0390a16040519081529081906020820190565b634844252360e11b5f5260045ffd5b80610a7b5f610a81936105ae565b8061035b565b5f6109b7565b612467565b610aae915060203d602011610ab4575b610aa681836105ae565b810190612a74565b5f61094a565b503d610a9c565b610ad591955060203d602011610ab457610aa681836105ae565b935f6108ff565b610ae536610826565b91610af283838387612154565b936020610b006030876123b2565b50610b29610b16875f52600460205260405f2090565b805460ff60f01b1916600160f01b179055565b600954306001600160a01b0390911603610bd4575b5091849391610b50936104d196612c04565b6009543090610b67906001600160a01b03166108cd565b141580610baf575b610ba6575b6040518181527f712ae1383f79ac853f8d882153778e0260ef8f03b504e2866e0593e04d2b291f908060208101610a4b565b5f600555610b74565b50610bcf610bcb6005546001600160801b0381169060801c1490565b1590565b610b6f565b949091935f5b8351811015610c2e5760019030610c046108cd610bf78489611bd5565b516001600160a01b031690565b14610c10575b01610bda565b610c29610c1d8288611bd5565b518981519101206123f0565b610c0a565b5090945092906104d1610b3e565b34610357576020366003190112610357576004355f526004602052602065ffffffffffff60405f205460a01c16604051908152f35b34610357575f3660031901126103575760206040517f3e83946653575f9a39005e1545185629e92736b7528ab20ca3816f315424a8118152f35b34610357575f36600319011261035757602060405160018152f35b634e487b7160e01b5f52602160045260245ffd5b60081115610ce457565b610cc6565b6008811015610ce457602452565b3461035757602036600319011261035757610d13600435612472565b6040516008821015610ce4576020918152f35b3461035757604036600319011261035757602060ff610d6f602435600435610d4d82610589565b5f5260078452600360405f20019060018060a01b03165f5260205260405f2090565b54166040519015158152f35b3461035757610d8936610826565b91610d9683838387612154565b610d9f81612332565b505f908152600460205260409020546001600160a01b03163303610ec357610dc693612154565b610dd1603b826123b2565b50610dfc610de7825f52600460205260405f2090565b80546001600160f81b0316600160f81b179055565b6040518181527f789cf55be980739dad1d0699b93b58e806b51c9d96619bfa8fe0a28abaa7b30c90602090a1610e3a815f52600a60205260405f2090565b549081610e4d575b604051908152602090f35b600954610e62906001600160a01b03166108cd565b803b156103575760405163c4d252f560e01b815260048101939093525f908390602490829084905af1918215610a87576104d192610eaf575b505f818152600a6020526040812055610e42565b80610a7b5f610ebd936105ae565b5f610e9b565b63233d98e360e01b5f523360045260245ffd5b34610357575f366003190112610357576104d1604051610ef76040826105ae565b601d81527f6d6f64653d626c6f636b6e756d6265722666726f6d3d64656661756c740000006020820152604051918291602083526020830190610445565b34610357576020366003190112610357576004355f526007602052606060405f20805490600260018201549101549060405192835260208301526040820152f35b34610357575f366003190112610357576104d1604051610f976040826105ae565b60018152603160f81b6020820152604051918291602083526020830190610445565b6024359060ff8216820361035757565b34610357576040366003190112610357576020611002600435610fea610fb9565b60405191610ff885846105ae565b5f8352339061257f565b604051908152f35b9181601f84011215610357578235916001600160401b038311610357576020838186019501011161035757565b346103575760c036600319011261035757600435611053610fb9565b906044359061106182610589565b6064356001600160401b0381116103575761108090369060040161100a565b6084356001600160401b0381116103575761109f903690600401610636565b9160a435946001600160401b038611610357576104d1966110c76110cd973690600401610636565b95611c02565b6040519081529081906020820190565b34610357576080366003190112610357576004356110f9610fb9565b906044356001600160401b0381116103575761111990369060040161100a565b9190926064356001600160401b03811161035757610e429461114261114a923690600401610636565b943691610600565b9133906126ff565b34610357576020366003190112610357576020611002600435611d25565b346103575760603660031901126103575760043561118c610fb9565b90604435906001600160401b038211610357576020926111bd6111b661100294369060040161100a565b3691610600565b91339061257f565b34610357576080366003190112610357576004356001600160401b038111610357576111f59036906004016106e4565b6024356001600160401b0381116103575761121490369060040161074b565b906044356001600160401b038111610357576112349036906004016107a8565b90606435916001600160401b0383116103575736602384011215610357576104d19361126d6110cd943690602481600401359101610600565b92611e65565b346103575760203660031901126103575760043561129081610589565b60018060a01b03165f526002602052602060405f2054604051908152f35b90602080835192838152019201905f5b8181106112cb5750505090565b82518452602093840193909201916001016112be565b34610357575f3660031901126103575761138361131d7f0000000000000000000000000000000000000000000000000000000000000000613232565b6104d16113497f0000000000000000000000000000000000000000000000000000000000000000613291565b6113916040519161135b6020846105ae565b5f808452366020850137604051958695600f60f81b875260e0602088015260e0870190610445565b908582036040870152610445565b904660608501523060808501525f60a085015283820360c08501526112ae565b34610357576080366003190112610357576004356113cd610fb9565b90604435916113db83610589565b6064356001600160401b03811161035757610bcb61140061148e923690600401610636565b6001600160a01b0386165f9081526002602052604090208054600181019091556114889060405160208101917ff2aad550cf55f045cb27e9c559f9889fdfb6e6cdaa032301d6ea397784ae51d7835288604083015260ff8816606083015260018060a01b038a16608083015260a082015260a0815261148060c0826105ae565b51902061259c565b866125c2565b6114a957906110cd916104d1936114a3611bee565b9261257f565b6394ab6c0760e01b5f526001600160a01b03831660045260245b5ffd5b34610357575f36600319011261035757602060405165ffffffffffff43168152f35b34610357575f36600319011261035757602060405160648152f35b346103575760603660031901126103575760043561152081610589565b6024356044356001600160401b03811161035757611542903690600401610636565b50604051630748d63560e31b81526001600160a01b039283166004820152602481019190915290602090829060449082907f0000000000000000000000000000000000000000000000000000000000000000165afa8015610a87576104d1915f916115b9575b506040519081529081906020820190565b6115d2915060203d602011610ab457610aa681836105ae565b5f6115a8565b34610357575f3660031901126103575760206001600160d01b036115fa612a83565b16604051908152f35b346103575760203660031901126103575760043561162081610589565b61162861224a565b600954604080516001600160a01b03808416825290931660208401819052927f08f74ea46ef7894f65eabfb5e6e695de773a000b47c529ab559178069b2264019190a16001600160a01b03191617600955005b3461035757602036600319011261035757602060405160018152f35b346103575760203660031901126103575760206110026004355f52600460205265ffffffffffff600160405f2001541690565b34610357575f3660031901126103575760206040515f8152f35b346103575760a036600319011261035757611700600435610589565b61170b602435610589565b6044356001600160401b0381116103575761172a90369060040161074b565b506064356001600160401b0381116103575761174a90369060040161074b565b506084356001600160401b0381116103575761176a903690600401610636565b506104d161177661202b565b6040516001600160e01b031990911681529081906020820190565b3461035757602036600319011261035757602061100260043561204a565b6060366003190112610357576004356117c781610589565b6024356044356001600160401b03811161035757610018925f926117f08493369060040161100a565b91906117fa61224a565b826040519384928337810185815203925af1611814612091565b90612ac7565b3461035757602061100261182d36610826565b92919091612154565b34610357575f366003190112610357576009546040516001600160a01b039091168152602090f35b34610357575f366003190112610357576104d160405161187f6040826105ae565b602081527f737570706f72743d627261766f2671756f72756d3d666f722c6162737461696e6020820152604051918291602083526020830190610445565b34610357575f3660031901126103575760206040517ff2aad550cf55f045cb27e9c559f9889fdfb6e6cdaa032301d6ea397784ae51d78152f35b346103575760403660031901126103575760043561191481610589565b6024355f6040516119266020826105ae565b52604051630748d63560e31b81526001600160a01b039283166004820152602481019190915290602090829060449082907f0000000000000000000000000000000000000000000000000000000000000000165afa8015610a87576104d1915f916115b957506040519081529081906020820190565b346103575760a0366003190112610357576119b8600435610589565b6119c3602435610589565b6084356001600160401b038111610357576119e2903690600401610636565b50600954306001600160a01b03909116036106be5760405163f23a6e6160e01b8152602090f35b3461035757602036600319011261035757600435604051632394e7a360e21b815260048101829052906020826024817f00000000000000000000000000000000000000000000000000000000000000006001600160a01b03165afa918215610a87575f92611a9f575b50611a7c90611d25565b90818102918183041490151715611a9a576104d190606490046110cd565b611cf4565b611a7c919250611abd9060203d602011610ab457610aa681836105ae565b9190611a72565b34610357575f366003190112610357576040517f00000000000000000000000000000000000000000000000000000000000000006001600160a01b03168152602090f35b90600182811c92168015611b36575b6020831014611b2257565b634e487b7160e01b5f52602260045260245ffd5b91607f1691611b17565b5f9291815491611b4f83611b08565b8083529260018116908115611ba45750600114611b6b57505050565b5f9081526020812093945091925b838310611b8a575060209250010190565b600181602092949394548385870101520191019190611b79565b915050602093945060ff929192191683830152151560051b010190565b634e487b7160e01b5f52603260045260245ffd5b8051821015611be95760209160051b010190565b611bc1565b60405190611bfd6020836105ae565b5f8252565b939092919695610bcb611cbd91611cb78a611c368160018060a01b03165f52600260205260405f2080549060018201905590565b611c4136888a610600565b602081519101208b5160208d0120906040519260208401947f3e83946653575f9a39005e1545185629e92736b7528ab20ca3816f315424a81186528d604086015260ff8d16606086015260018060a01b0316608085015260a084015260c083015260e082015260e08152611480610100826105ae565b8a6125c2565b611cd85761047a959691611cd2913691610600565b926126ff565b6394ab6c0760e01b5f526001600160a01b03871660045260245ffd5b634e487b7160e01b5f52601160045260245ffd5b5f19810191908211611a9a57565b602719810191908211611a9a57565b600854905f198201828111611a9a57821115611be95760085f527ff3f7a9fe364faab93b216da50a3214154f22a0a2b415b23a84c8169e8b636ee28201548165ffffffffffff82161115611e5c5750611d7d9061283e565b5f829160058411611deb575b611d93935061313c565b80611d9d57505f90565b611ddf611dd8611daf61047a93611d08565b60085f527ff3f7a9fe364faab93b216da50a3214154f22a0a2b415b23a84c8169e8b636ee30190565b5460301c90565b6001600160d01b031690565b9192611df681612fc9565b8103908111611a9a57611d939360085f5265ffffffffffff827ff3f7a9fe364faab93b216da50a3214154f22a0a2b415b23a84c8169e8b636ee301541665ffffffffffff8516105f14611e4a575091611d89565b929150611e569061286d565b90611d89565b91505060301c90565b909192611e7281336128a8565b156120185765ffffffffffff4316935f19850165ffffffffffff8111611a9a5765ffffffffffff611ea49116336121bb565b50611eb782516020840120828686612154565b94835185519081811480159061200d575b8015612005575b611fe857505065ffffffffffff611f00611ef1885f52600460205260405f2090565b5460a01c65ffffffffffff1690565b16611fcb5791611fc591611f367f7d84a6263ae0d98d3329bd7b46bb4e8d6f98cd35a7adb45c274c8b7fd5ebd5e096959461286d565b611fa2611f4b895f52600460205260405f2090565b80546001600160a01b03191633178155611f8b611f678461283e565b825465ffffffffffff60a01b191660a09190911b65ffffffffffff60a01b16178255565b805463ffffffff60d01b191661597d60d11b179055565b611fac855161295f565b91611fb68261287b565b92604051978897338c8a6129a8565b0390a190565b6114c386611fd881612472565b6331b75e4d60e01b5f52906122d9565b8351630447b05d60e41b5f5260049190915260245260445260645ffd5b508015611ecf565b508351811415611ec8565b63d9b3955760e01b5f523360045260245ffd5b600954306001600160a01b03909116036106be5763bc197c8160e01b90565b805f52600460205265ffffffffffff60405f205460a01c16905f52600460205263ffffffff60405f205460d01c160165ffffffffffff8111611a9a5765ffffffffffff1690565b3d156120bb573d906120a2826105e5565b916120b060405193846105ae565b82523d5f602084013e565b606090565b90602080835192838152019201905f5b8181106120dd5750505090565b82516001600160a01b03168452602093840193909201916001016120d0565b9080602083519182815201916020808360051b8301019401925f915b83831061212757505050505090565b9091929394602080612145600193601f198682030187528951610445565b97019301930191939290612118565b92906121b5916121a161218f9460405195869461217d602087019960808b5260a08801906120c0565b868103601f19016040880152906112ae565b848103601f19016060860152906120fc565b90608083015203601f1981018352826105ae565b51902090565b905f6040516121cb6020826105ae565b52604051630748d63560e31b81526001600160a01b039283166004820152602481019190915290602090829060449082907f0000000000000000000000000000000000000000000000000000000000000000165afa908115610a87575f91612231575090565b61047a915060203d602011610ab457610aa681836105ae565b600954336001600160a01b03909116036122b357600954306001600160a01b039091160361227457565b61227d366105e5565b61228a60405191826105ae565b3681526020810190365f83375f602036830101525190205b806122ab612b0b565b036122a25750565b6347096e4760e01b5f523360045260245ffd5b6008811015610ce45760ff600191161b90565b600452606491906008811015610ce4576024525f604452565b6122fb81612472565b906010612307836122c6565b1615612311575090565b6331b75e4d60e01b5f526004526123289150610ce9565b601060445260645ffd5b61233b81612472565b906001612347836122c6565b1615612351575090565b6331b75e4d60e01b5f526004526123689150610ce9565b600160445260645ffd5b61237b81612472565b906002612387836122c6565b1615612391575090565b6331b75e4d60e01b5f526004526123a89150610ce9565b600260445260645ffd5b906123bc82612472565b91816123c7846122c6565b16156123d257505090565b6331b75e4d60e01b5f526004526123e882610ce9565b60445260645ffd5b600554908160801c6001600160801b036001820193166001600160801b03841614612440575f52600660205260405f20556001600160801b036005549181199082199060801b1616911617600555565b638acb5f2760e01b5f5260045ffd5b90816020910312610357575180151581036103575790565b6040513d5f823e3d90fd5b61247b81612c91565b9061248582610cda565b6005820361257b576124a091505f52600a60205260405f2090565b546009546124b6906001600160a01b03166108cd565b604051632c258a9f60e11b815260048101839052602081602481855afa908115610a87575f9161255c575b50156124ee575050600590565b604051632ab0f52960e01b81526004810192909252602090829060249082905afa908115610a87575f9161252d575b501561252857600790565b600290565b61254f915060203d602011612555575b61254781836105ae565b81019061244f565b5f61251d565b503d61253d565b612575915060203d6020116125555761254781836105ae565b5f6124e1565b5090565b9161047a9391604051936125946020866105ae565b5f85526126ff565b6042906125a7612d9a565b906040519161190160f01b8352600283015260228201522090565b906125cd8382612eb0565b506004819592951015610ce457159384612689575b5083156125f0575b50505090565b5f9350906126286126368594936040519283916020830195630b135d3f60e11b87526024840152604060448401526064830190610445565b03601f1981018352826105ae565b51915afa612642612091565b8161267b575b81612657575b505f80806125ea565b9050612674630b135d3f60e11b9160208082518301019101612a74565b145f61264e565b905060208151101590612648565b6001600160a01b0384811691161493505f6125e2565b93909260ff6126cb9361047a97958752166020860152604085015260a0606085015260a0840190610445565b916080818403910152610445565b909260ff60809361047a9695845216602083015260408201528160608201520190610445565b939291909361270d81612372565b50805f52600460205265ffffffffffff61273460405f2065ffffffffffff905460a01c1690565b169360405195630748d63560e31b875260018060a01b03811695866004890152602488015260208760448160018060a01b037f0000000000000000000000000000000000000000000000000000000000000000165afa968715610a87575f97612817575b5086846127a59285612eea565b80516127e457506127de7fb8e138887d0aa13bab447e82de9d5c1777041ecd21ca36ba824ff1e6c07ddda49386604051948594856126d9565b0390a290565b6127de907fe2babfbac5889a709b63bb7f598b324e08bc5a4fb9ec647fb3cbc9ec07eb871294876040519586958661269f565b849750906128366127a59260203d602011610ab457610aa681836105ae565b975090612798565b65ffffffffffff81116128565765ffffffffffff1690565b6306dfcc6560e41b5f52603060045260245260445ffd5b9060018201809211611a9a57565b9061b2fa8201809211611a9a57565b91908201809211611a9a57565b908151811015611be9570160200190565b8151603481106129575760131981840101516001600160a01b0319166b1b91f1b211f2119351b859f160a31b0161295757915f926128e581611d16565b915b818310612902575050506001600160a01b0391821691161490565b9091936129286129236129158785612897565b516001600160f81b03191690565b6131b5565b901561294c5760019160ff9060041b6010600160a01b0316911617940191906128e7565b505050505050600190565b505050600190565b90612969826106cd565b61297660405191826105ae565b8281528092612987601f19916106cd565b01905f5b82811061299757505050565b80606060208093850101520161298b565b9599989697949391926129e9936129db92885260018060a01b0316602088015261012060408801526101208701906120c0565b9085820360608701526112ae565b968388036080850152815180895260208901906020808260051b8c01019401915f905b828210612a48575050505061047a96975090612a2f9184820360a08601526120fc565b9360c083015260e0820152610100818403910152610445565b90919294602080612a666001938f601f199082030186528951610445565b970192019201909291612a0c565b90816020910312610357575190565b60085480612a9057505f90565b805f19810111611a9a5760085f527ff3f7a9fe364faab93b216da50a3214154f22a0a2b415b23a84c8169e8b636ee2015460301c90565b9091906105e35750805115612ade57805190602001fd5b630a12f52160e11b5f5260045ffd5b8115612af7570490565b634e487b7160e01b5f52601260045260245ffd5b600554906001600160801b0382169160801c8214612b63575f8281526006602052604081208054919055600580546fffffffffffffffffffffffffffffffff191660019094016001600160801b031693909317909255565b6375e52f4f60e01b5f5260045ffd5b949392612b9e608093612b90612bac9460a08a5260a08a01906120c0565b9088820360208a01526112ae565b9086820360408801526120fc565b935f60608201520152565b9192612be660a094612bd8612bf4949998979960c0875260c08701906120c0565b9085820360208701526112ae565b9083820360408501526120fc565b945f606083015260808201520152565b60095490949192916001600160a01b03909116906bffffffffffffffffffffffff193060601b16823b1561035757612c565f956040519788968795869563e38335e560e01b8752189260048601612b72565b039134905af18015610a8757612c78575b505f908152600a6020526040812055565b80612c845f80936105ae565b800312610357575f612c67565b612ca3815f52600460205260405f2090565b5460f881901c9060f01c60ff16612d9357612d8d57612cdb612cd0611ef1835f52600460205260405f2090565b65ffffffffffff1690565b8015612d795765ffffffffffff431680911015612d7357612cfb8261204a565b10612d065750600190565b612d12610bcb82613487565b8015612d50575b15612d245750600390565b612d42905f52600460205265ffffffffffff600160405f2001541690565b612d4b57600490565b600590565b50612d6e610bcb825f52600760205260405f20600181015490541090565b612d19565b50505f90565b636ad0607560e01b5f52600482905260245ffd5b50600290565b5050600790565b307f00000000000000000000000000000000000000000000000000000000000000006001600160a01b03161480612e87575b15612df5577f000000000000000000000000000000000000000000000000000000000000000090565b60405160208101907f8b73c3c69bb8fe3d512ecc4cf759cc79239f7b179b0ffacaa9a75d522b39400f82527f000000000000000000000000000000000000000000000000000000000000000060408201527f000000000000000000000000000000000000000000000000000000000000000060608201524660808201523060a082015260a081526121b560c0826105ae565b507f00000000000000000000000000000000000000000000000000000000000000004614612dcc565b8151919060418303612ee057612ed99250602082015190606060408401519301515f1a9061355c565b9192909190565b50505f9160029190565b612eff909291925f52600760205260405f2090565b9160038301612f28612f2183839060018060a01b03165f5260205260405f2090565b5460ff1690565b612fad57612f4c60ff9392612f59929060018060a01b03165f5260205260405f2090565b805460ff19166001179055565b1680612f70575090612f6c90825461288a565b9055565b60018103612f8857506001612f6c910191825461288a565b600203612f9e576002612f6c910191825461288a565b6303599be160e11b5f5260045ffd5b6371c6af4960e01b5f526001600160a01b03821660045260245ffd5b80156131375761047a906130cd6130c66130bc6130b26130a861309e61309461308a60016130785f8b608081901c80613129575b508061300c61306e9260401c90565b8061311c575b5061301d8160201c90565b8061310f575b5061302e8160101c90565b80613102575b5061303f8160081c90565b806130f5575b506130508160041c90565b806130e8575b506130618160021c90565b806130db575b5060011c90565b6130d35760011c90565b1b613083818b612aed565b0160011c90565b613083818a612aed565b6130838189612aed565b6130838188612aed565b6130838187612aed565b6130838186612aed565b6130838185612aed565b8092612aed565b906135de565b820160011c90565b600291509201915f613067565b600491509201915f613056565b600891509201915f613045565b601091509201915f613034565b602091509201915f613023565b604091509201915f613012565b60809250905061306e612ffd565b505f90565b905b82811061314a57505090565b90918082169080831860011c8201809211611a9a5760085f527ff3f7a9fe364faab93b216da50a3214154f22a0a2b415b23a84c8169e8b636ee382015465ffffffffffff90811690851610156131a35750915b9061313e565b9291506131af9061286d565b9061319d565b60f81c9081602f1080613228575b156131d557600191602f190160ff1690565b816040108061321e575b156131f1576001916036190160ff1690565b8160601080613214575b1561320d576001916056190160ff1690565b5f91508190565b50606782106131fb565b50604782106131df565b50603a82106131c3565b60ff81146132785760ff811690601f821161326957604051916132566040846105ae565b6020808452838101919036833783525290565b632cd44ac360e21b5f5260045ffd5b5060405161047a8161328a815f611b40565b03826105ae565b60ff81146132b55760ff811690601f821161326957604051916132566040846105ae565b5060405161047a8161328a816001611b40565b908154680100000000000000008110156105cf5760018101808455811015611be9576105e3925f5260205f20019061331d65ffffffffffff825116839065ffffffffffff1665ffffffffffff19825416179055565b60200151815465ffffffffffff1660309190911b65ffffffffffff1916179055565b90604051604081018181106001600160401b038211176105cf57604052915465ffffffffffff8116835260301c6020830152565b60085491929190811561345e578161339c613397611daf65ffffffffffff95611d08565b61333f565b906133ad825165ffffffffffff1690565b848416948591161161344f5785602093613410956133d4612cd0865165ffffffffffff1690565b0361341457506133e9611daf61340293611d08565b9065ffffffffffff82549181199060301b169116179055565b01516001600160d01b031690565b9190565b905061344a91506134346134266105d4565b65ffffffffffff9092168252565b6001600160d01b038716818501525b60086132c8565b613402565b632520601d60e01b5f5260045ffd5b613482915061346e6134266105d4565b6001600160d01b0384166020820152613443565b5f9190565b805f52600760205260405f20905f52600460205265ffffffffffff60405f205460a01c1660405190632394e7a360e21b825280600483015260208260248160018060a01b037f0000000000000000000000000000000000000000000000000000000000000000165afa918215610a87575f92613537575b5061350890611d25565b90818102918183041490151715611a9a57613532906064900491600260018201549101549061288a565b101590565b6135089192506135559060203d602011610ab457610aa681836105ae565b91906134fe565b91907f7fffffffffffffffffffffffffffffff5d576e7357a4501ddfe92f46681b20a084116135d3579160209360809260ff5f9560405194855216868401526040830152606082015282805260015afa15610a87575f516001600160a01b038116156135c957905f905f90565b505f906001905f90565b5050505f9160039190565b90808210156135eb575090565b90509056fea2646970667358221220dbe74dc5a77872603fc6194f4a0365dbaead772d1e43f435aa853b5a840debdd64736f6c634300081e00330553476bf02ef2726e8ce5ced78d63e26e602e4a2257b1f559418e24b4633997","linkReferences":{}},"methodIdentifiers":{"BALLOT_TYPEHASH()":"deaaa7cc","CLOCK_MODE()":"4bf5d7e9","COUNTING_MODE()":"dd4e2ba5","EXTENDED_BALLOT_TYPEHASH()":"2fe3e261","cancel(address[],uint256[],bytes[],bytes32)":"452115d6","castVote(uint256,uint8)":"56781388","castVoteBySig(uint256,uint8,address,bytes)":"8ff262e3","castVoteWithReason(uint256,uint8,string)":"7b3c71d3","castVoteWithReasonAndParams(uint256,uint8,string,bytes)":"5f398a14","castVoteWithReasonAndParamsBySig(uint256,uint8,address,string,bytes,bytes)":"5b8d0e0d","clock()":"91ddadf4","eip712Domain()":"84b0196e","execute(address[],uint256[],bytes[],bytes32)":"2656227d","getVotes(address,uint256)":"eb9019d4","getVotesWithParams(address,uint256,bytes)":"9a802a6d","hasVoted(uint256,address)":"43859632","hashProposal(address[],uint256[],bytes[],bytes32)":"c59057e4","name()":"06fdde03","nonces(address)":"7ecebe00","onERC1155BatchReceived(address,address,uint256[],uint256[],bytes)":"bc197c81","onERC1155Received(address,address,uint256,uint256,bytes)":"f23a6e61","onERC721Received(address,address,uint256,bytes)":"150b7a02","proposalDeadline(uint256)":"c01f9e37","proposalEta(uint256)":"ab58fb8e","proposalNeedsQueuing(uint256)":"a9a95294","proposalProposer(uint256)":"143489d0","proposalSnapshot(uint256)":"2d63f693","proposalThreshold()":"b58131b0","proposalVotes(uint256)":"544ffc9c","propose(address[],uint256[],bytes[],string)":"7d5e81e2","queue(address[],uint256[],bytes[],bytes32)":"160cbed7","quorum(uint256)":"f8ce560a","quorumDenominator()":"97c3d334","quorumNumerator()":"a7713a70","quorumNumerator(uint256)":"60c4247f","relay(address,uint256,bytes)":"c28bc2fa","state(uint256)":"3e4f49e6","supportsInterface(bytes4)":"01ffc9a7","timelock()":"d33219b4","token()":"fc0c546a","updateQuorumNumerator(uint256)":"06f3f9e6","updateTimelock(address)":"a890c910","version()":"54fd4d50","votingDelay()":"3932abb1","votingPeriod()":"02a251a3"},"id":68}