{"abi":[{"type":"constructor","inputs":[{"name":"initialHolder","type":"address","internalType":"address"},{"name":"initialSupply","type":"uint256","internalType":"uint256"}],"stateMutability":"nonpayable"},{"type":"function","name":"CLOCK_MODE","inputs":[],"outputs":[{"name":"","type":"string","internalType":"string"}],"stateMutability":"view"},{"type":"function","name":"DOMAIN_SEPARATOR","inputs":[],"outputs":[{"name":"","type":"bytes32","internalType":"bytes32"}],"stateMutability":"view"},{"type":"function","name":"allowance","inputs":[{"name":"owner","type":"address","internalType":"address"},{"name":"spender","type":"address","internalType":"address"}],"outputs":[{"name":"","type":"uint256","internalType":"uint256"}],"stateMutability":"view"},{"type":"function","name":"approve","inputs":[{"name":"spender","type":"address","internalType":"address"},{"name":"value","type":"uint256","internalType":"uint256"}],"outputs":[{"name":"","type":"bool","internalType":"bool"}],"stateMutability":"nonpayable"},{"type":"function","name":"balanceOf","inputs":[{"name":"account","type":"address","internalType":"address"}],"outputs":[{"name":"","type":"uint256","internalType":"uint256"}],"stateMutability":"view"},{"type":"function","name":"checkpoints","inputs":[{"name":"account","type":"address","internalType":"address"},{"name":"pos","type":"uint32","internalType":"uint32"}],"outputs":[{"name":"","type":"tuple","internalType":"struct Checkpoints.Checkpoint208","components":[{"name":"_key","type":"uint48","internalType":"uint48"},{"name":"_value","type":"uint208","internalType":"uint208"}]}],"stateMutability":"view"},{"type":"function","name":"clock","inputs":[],"outputs":[{"name":"","type":"uint48","internalType":"uint48"}],"stateMutability":"view"},{"type":"function","name":"decimals","inputs":[],"outputs":[{"name":"","type":"uint8","internalType":"uint8"}],"stateMutability":"view"},{"type":"function","name":"delegate","inputs":[{"name":"delegatee","type":"address","internalType":"address"}],"outputs":[],"stateMutability":"nonpayable"},{"type":"function","name":"delegateBySig","inputs":[{"name":"delegatee","type":"address","internalType":"address"},{"name":"nonce","type":"uint256","internalType":"uint256"},{"name":"expiry","type":"uint256","internalType":"uint256"},{"name":"v","type":"uint8","internalType":"uint8"},{"name":"r","type":"bytes32","internalType":"bytes32"},{"name":"s","type":"bytes32","internalType":"bytes32"}],"outputs":[],"stateMutability":"nonpayable"},{"type":"function","name":"delegates","inputs":[{"name":"account","type":"address","internalType":"address"}],"outputs":[{"name":"","type":"address","internalType":"address"}],"stateMutability":"view"},{"type":"function","name":"eip712Domain","inputs":[],"outputs":[{"name":"fields","type":"bytes1","internalType":"bytes1"},{"name":"name","type":"string","internalType":"string"},{"name":"version","type":"string","internalType":"string"},{"name":"chainId","type":"uint256","internalType":"uint256"},{"name":"verifyingContract","type":"address","internalType":"address"},{"name":"salt","type":"bytes32","internalType":"bytes32"},{"name":"extensions","type":"uint256[]","internalType":"uint256[]"}],"stateMutability":"view"},{"type":"function","name":"getPastTotalSupply","inputs":[{"name":"timepoint","type":"uint256","internalType":"uint256"}],"outputs":[{"name":"","type":"uint256","internalType":"uint256"}],"stateMutability":"view"},{"type":"function","name":"getPastVotes","inputs":[{"name":"account","type":"address","internalType":"address"},{"name":"timepoint","type":"uint256","internalType":"uint256"}],"outputs":[{"name":"","type":"uint256","internalType":"uint256"}],"stateMutability":"view"},{"type":"function","name":"getVotes","inputs":[{"name":"account","type":"address","internalType":"address"}],"outputs":[{"name":"","type":"uint256","internalType":"uint256"}],"stateMutability":"view"},{"type":"function","name":"name","inputs":[],"outputs":[{"name":"","type":"string","internalType":"string"}],"stateMutability":"view"},{"type":"function","name":"nonces","inputs":[{"name":"owner","type":"address","internalType":"address"}],"outputs":[{"name":"","type":"uint256","internalType":"uint256"}],"stateMutability":"view"},{"type":"function","name":"numCheckpoints","inputs":[{"name":"account","type":"address","internalType":"address"}],"outputs":[{"name":"","type":"uint32","internalType":"uint32"}],"stateMutability":"view"},{"type":"function","name":"permit","inputs":[{"name":"owner","type":"address","internalType":"address"},{"name":"spender","type":"address","internalType":"address"},{"name":"value","type":"uint256","internalType":"uint256"},{"name":"deadline","type":"uint256","internalType":"uint256"},{"name":"v","type":"uint8","internalType":"uint8"},{"name":"r","type":"bytes32","internalType":"bytes32"},{"name":"s","type":"bytes32","internalType":"bytes32"}],"outputs":[],"stateMutability":"nonpayable"},{"type":"function","name":"symbol","inputs":[],"outputs":[{"name":"","type":"string","internalType":"string"}],"stateMutability":"view"},{"type":"function","name":"totalSupply","inputs":[],"outputs":[{"name":"","type":"uint256","internalType":"uint256"}],"stateMutability":"view"},{"type":"function","name":"transfer","inputs":[{"name":"to","type":"address","internalType":"address"},{"name":"value","type":"uint256","internalType":"uint256"}],"outputs":[{"name":"","type":"bool","internalType":"bool"}],"stateMutability":"nonpayable"},{"type":"function","name":"transferFrom","inputs":[{"name":"from","type":"address","internalType":"address"},{"name":"to","type":"address","internalType":"address"},{"name":"value","type":"uint256","internalType":"uint256"}],"outputs":[{"name":"","type":"bool","internalType":"bool"}],"stateMutability":"nonpayable"},{"type":"event","name":"Approval","inputs":[{"name":"owner","type":"address","indexed":true,"internalType":"address"},{"name":"spender","type":"address","indexed":true,"internalType":"address"},{"name":"value","type":"uint256","indexed":false,"internalType":"uint256"}],"anonymous":false},{"type":"event","name":"DelegateChanged","inputs":[{"name":"delegator","type":"address","indexed":true,"internalType":"address"},{"name":"fromDelegate","type":"address","indexed":true,"internalType":"address"},{"name":"toDelegate","type":"address","indexed":true,"internalType":"address"}],"anonymous":false},{"type":"event","name":"DelegateVotesChanged","inputs":[{"name":"delegate","type":"address","indexed":true,"internalType":"address"},{"name":"previousVotes","type":"uint256","indexed":false,"internalType":"uint256"},{"name":"newVotes","type":"uint256","indexed":false,"internalType":"uint256"}],"anonymous":false},{"type":"event","name":"EIP712DomainChanged","inputs":[],"anonymous":false},{"type":"event","name":"Transfer","inputs":[{"name":"from","type":"address","indexed":true,"internalType":"address"},{"name":"to","type":"address","indexed":true,"internalType":"address"},{"name":"value","type":"uint256","indexed":false,"internalType":"uint256"}],"anonymous":false},{"type":"error","name":"CheckpointUnorderedInsertion","inputs":[]},{"type":"error","name":"ECDSAInvalidSignature","inputs":[]},{"type":"error","name":"ECDSAInvalidSignatureLength","inputs":[{"name":"length","type":"uint256","internalType":"uint256"}]},{"type":"error","name":"ECDSAInvalidSignatureS","inputs":[{"name":"s","type":"bytes32","internalType":"bytes32"}]},{"type":"error","name":"ERC20ExceededSafeSupply","inputs":[{"name":"increasedSupply","type":"uint256","internalType":"uint256"},{"name":"cap","type":"uint256","internalType":"uint256"}]},{"type":"error","name":"ERC20InsufficientAllowance","inputs":[{"name":"spender","type":"address","internalType":"address"},{"name":"allowance","type":"uint256","internalType":"uint256"},{"name":"needed","type":"uint256","internalType":"uint256"}]},{"type":"error","name":"ERC20InsufficientBalance","inputs":[{"name":"sender","type":"address","internalType":"address"},{"name":"balance","type":"uint256","internalType":"uint256"},{"name":"needed","type":"uint256","internalType":"uint256"}]},{"type":"error","name":"ERC20InvalidApprover","inputs":[{"name":"approver","type":"address","internalType":"address"}]},{"type":"error","name":"ERC20InvalidReceiver","inputs":[{"name":"receiver","type":"address","internalType":"address"}]},{"type":"error","name":"ERC20InvalidSender","inputs":[{"name":"sender","type":"address","internalType":"address"}]},{"type":"error","name":"ERC20InvalidSpender","inputs":[{"name":"spender","type":"address","internalType":"address"}]},{"type":"error","name":"ERC2612ExpiredSignature","inputs":[{"name":"deadline","type":"uint256","internalType":"uint256"}]},{"type":"error","name":"ERC2612InvalidSigner","inputs":[{"name":"signer","type":"address","internalType":"address"},{"name":"owner","type":"address","internalType":"address"}]},{"type":"error","name":"ERC5805FutureLookup","inputs":[{"name":"timepoint","type":"uint256","internalType":"uint256"},{"name":"clock","type":"uint48","internalType":"uint48"}]},{"type":"error","name":"ERC6372InconsistentClock","inputs":[]},{"type":"error","name":"InvalidAccountNonce","inputs":[{"name":"account","type":"address","internalType":"address"},{"name":"currentNonce","type":"uint256","internalType":"uint256"}]},{"type":"error","name":"InvalidShortString","inputs":[]},{"type":"error","name":"SafeCastOverflowedUintDowncast","inputs":[{"name":"bits","type":"uint8","internalType":"uint8"},{"name":"value","type":"uint256","internalType":"uint256"}]},{"type":"error","name":"StringTooLong","inputs":[{"name":"str","type":"string","internalType":"string"}]},{"type":"error","name":"VotesExpiredSignature","inputs":[{"name":"expiry","type":"uint256","internalType":"uint256"}]}],"bytecode":{"object":"0x610160604052346100985760406128e4803803809161001d826100b0565b610160391261009857610160516001600160a01b0381168103610098576101805161004791610166565b604051611b419081610d63823960805181610f3d015260a05181610ffa015260c05181610f07015260e05181610f8c01526101005181610fb201526101205181610668015261014051816106910152f35b5f80fd5b634e487b7160e01b5f52604160045260245ffd5b610160601f91909101601f19168101906001600160401b038211908210176100d757604052565b61009c565b601f909101601f19168101906001600160401b038211908210176100d757604052565b6040519061010e6040836100dc565b565b6040519061011f6040836100dc565b60038252565b604051906101346040836100dc565b60018252565b604051906101496040836100dc565b600e82526d26b0b6309023b7bb102a37b5b2b760911b6020830152565b919061017061013a565b9261017961013a565b93610182610110565b90621351d560ea1b6020830152610197610125565b906020820192603160f81b8452875160018060401b0381116100d7576101c7816101c26003546102de565b610316565b6020601f8211600114610254578161020693926101fe9261010e9b9c5f92610249575b50508160011b915f199060031b1c19161790565b6003556103b5565b61020f8161053a565b6101205261021c8261062f565b610140526020815191012060e052519020610100524660a05261023d610721565b6080523060c05261048e565b015190505f806101ea565b60035f52601f198216997fc2575a0e9e593c00f959f8c92f12db2869c3395a3b0502d05e2516446f71f85b9a5f5b8181106102c657509a6001928492610206969561010e9d9e106102ae575b505050811b016003556103b5565b01515f1960f88460031b161c191690555f80806102a0565b838301518d556001909c019b60209384019301610282565b90600182811c9216801561030c575b60208310146102f857565b634e487b7160e01b5f52602260045260245ffd5b91607f16916102ed565b601f8111610322575050565b60035f5260205f20906020601f840160051c8301931061035c575b601f0160051c01905b818110610351575050565b5f8155600101610346565b909150819061033d565b601f821161037357505050565b5f5260205f20906020601f840160051c830193106103ab575b601f0160051c01905b8181106103a0575050565b5f8155600101610395565b909150819061038c565b80519091906001600160401b0381116100d7576103de816103d76004546102de565b6004610366565b602092601f82116001146104125761040d929382915f926102495750508160011b915f199060031b1c19161790565b600455565b60045f52601f198216937f8a35acfbc15ff81a39ae7d344fd709f28e8600b4aa8c65c6b64bfe7fe36bd19b915f5b868110610476575083600195961061045e575b505050811b01600455565b01515f1960f88460031b161c191690555f8080610453565b91926020600181928685015181550194019201610440565b91906001600160a01b038316801561052757600254828101809111610522576002555f81815260208181526040808320805486019055518481527fddf252ad1be2c89b69c2b068fc378daa952ba7f163c4a11628f55a4df523b3ef9190a3600254926001600160d01b0380851161050b575061010e9293506107fe565b630e58ae9360e11b5f52600485905260245260445ffd5b6107ea565b63ec442f0560e01b5f525f60045260245ffd5b908151602081105f146105555750906105529061077f565b90565b6001600160401b0381116100d757610579816105726005546102de565b6005610366565b602092601f82116001146105b0576105a8929382915f926102495750508160011b915f199060031b1c19161790565b60055560ff90565b60055f52601f198216937f036b6384b5eca791c62761152d0c79bb0604c104a5fb6f4eb0703f3154bb3db0915f5b86811061061757508360019596106105ff575b505050811b0160055560ff90565b01515f1960f88460031b161c191690555f80806105f1565b919260206001819286850151815501940192016105de565b908151602081105f146106475750906105529061077f565b6001600160401b0381116100d75761066b816106646006546102de565b6006610366565b602092601f82116001146106a25761069a929382915f926102495750508160011b915f199060031b1c19161790565b60065560ff90565b60065f52601f198216937ff652222313e28459528d920b65115c16c04f3efc82aaedc97be59f3f377c0d3f915f5b86811061070957508360019596106106f1575b505050811b0160065560ff90565b01515f1960f88460031b161c191690555f80806106e3565b919260206001819286850151815501940192016106d0565b60e051610100516040519060208201927f8b73c3c69bb8fe3d512ecc4cf759cc79239f7b179b0ffacaa9a75d522b39400f8452604083015260608201524660808201523060a082015260a0815261077960c0826100dc565b51902090565b601f8151116107aa57602081519101516020821061079b571790565b5f198260200360031b1b161790565b604460209160405192839163305a27a960e01b83528160048401528051918291826024860152018484015e5f828201840152601f01601f19168101030190fd5b634e487b7160e01b5f52601160045260245ffd5b90610808816108fd565b9165ffffffffffff43116108e557600a54806108af575061084261083261010e945f5b6001610d06565b65ffffffffffff4316600a610bd3565b50506001600160a01b03168015610897575b60086020527f5eff886ea0ce6ca488a3d6e336d6c0f75f46d19b42c06ce5ee98e42c96d256c7545f9182526040909120546001600160a01b039081169116610a2c565b6108a86108a3836108fd565b61092e565b5050610854565b92835f1981011161052257600a5f525f5160206128a45f395f51905f529093015461010e9361084291610832919060301c61082b565b6306dfcc6560e41b5f5260306004524360245260445ffd5b6001600160d01b038111610917576001600160d01b031690565b6306dfcc6560e41b5f5260d060045260245260445ffd5b65ffffffffffff43116108e557600a54806109585750610832610954915f5b6002610d06565b9091565b805f1981011161052257600a5f525f5160206128a45f395f51905f520154610954916108329160301c61094d565b65ffffffffffff43116108e5578054806109ba57506109aa610954925f6002610d06565b9065ffffffffffff431690610bd3565b805f19810111610522575f82815260209020015f190154610954926109aa9160301c61094d565b65ffffffffffff43116108e557805480610a0557506109aa610954925f6001610d06565b805f19810111610522575f82815260209020015f190154610954926109aa9160301c61082b565b6001600160a01b03808316939291908116908185141580610b1f575b610a54575b5050505050565b81610ac5575b505082610a69575b8080610a4d565b6001600160a01b03165f9081526009602052604090205f5160206128c45f395f51905f5291610aa291610a9c90916108fd565b906109e1565b604080516001600160d01b039384168152919092166020820152a25f8080610a62565b6001600160a01b03165f9081526009602052604090205f5160206128c45f395f51905f5290610afd90610af7866108fd565b90610986565b604080516001600160d01b039384168152919092166020820152a25f80610a5a565b50831515610a48565b5f1981019190821161052257565b908154680100000000000000008110156100d75760018101808455811015610b89575f9283526020928390208251929093015160301b65ffffffffffff191665ffffffffffff9290921691909117910155565b634e487b7160e01b5f52603260045260245ffd5b604080519192919081016001600160401b038111828210176100d757604052915465ffffffffffff8116835260301c6020830152565b805492939291908215610cdd57610bff610bfa610bef85610b28565b835f5260205f200190565b610b9d565b9065ffffffffffff610c17835165ffffffffffff1690565b8185169182911611610cce57610c92946020948892610c4a610c3f875165ffffffffffff1690565b65ffffffffffff1690565b03610c965750610c8492610c60610c6b92610b28565b905f5260205f200190565b9065ffffffffffff82549181199060301b169116179055565b01516001600160d01b031690565b9190565b915050610cc991610cb6610ca86100ff565b65ffffffffffff9093168352565b6001600160d01b03881682860152610b36565b610c84565b632520601d60e01b5f5260045ffd5b610d019250610ced610ca86100ff565b6001600160d01b0385166020830152610b36565b5f9190565b91909180600114610d4857600214610d2c57634e487b7160e01b5f52605160045260245ffd5b6001600160d01b03908116918116919091039081116105225790565b506001600160d01b0391821690821601908111610522579056fe60806040526004361015610011575f80fd5b5f3560e01c806306fdde0314610184578063095ea7b31461017f57806318160ddd1461017a57806323b872dd14610175578063313ce567146101705780633644e5151461016b5780633a46b1a8146101665780634bf5d7e914610161578063587cde1e1461015c5780635c19a95c146101575780636fcfff451461015257806370a082311461014d5780637ecebe001461014857806384b0196e146101435780638e539e8c1461013e57806391ddadf41461013957806395d89b41146101345780639ab24eb01461012f578063a9059cbb1461012a578063c3cda52014610125578063d505accf14610120578063dd62ed3e1461011b5763f1127ed814610116575f80fd5b610c2d565b610bd6565b610ab2565b6109a3565b61095d565b610916565b610871565b610846565b61074d565b610650565b610618565b6105e0565b61057e565b61055a565b61051a565b61048a565b6103f5565b6103d3565b6103b8565b610319565b6102fc565b6102cb565b6101c1565b805180835260209291819084018484015e5f828201840152601f01601f1916010190565b9060206101be928181520190610189565b90565b3461029b575f36600319011261029b576040515f6003546101e181610cd8565b80845290600181169081156102775750600114610219575b6102158361020981850382610dc6565b604051918291826101ad565b0390f35b60035f9081527fc2575a0e9e593c00f959f8c92f12db2869c3395a3b0502d05e2516446f71f85b939250905b80821061025d575090915081016020016102096101f9565b919260018160209254838588010152019101909291610245565b60ff191660208086019190915291151560051b8401909101915061020990506101f9565b5f80fd5b600435906001600160a01b038216820361029b57565b602435906001600160a01b038216820361029b57565b3461029b57604036600319011261029b576102f16102e761029f565b60243590336111dc565b602060405160018152f35b3461029b575f36600319011261029b576020600254604051908152f35b3461029b57606036600319011261029b5761033261029f565b61033a6102b5565b6001600160a01b0382165f908152600160208181526040808420338552909152909120549260443592918401610381575b6103759350610e11565b60405160018152602090f35b82841061039d576103988361037595033383611277565b61036b565b8284637dc7a0d960e11b5f523360045260245260445260645ffd5b3461029b575f36600319011261029b57602060405160128152f35b3461029b575f36600319011261029b5760206103ed610f04565b604051908152f35b3461029b57604036600319011261029b5761040e61029f565b60243565ffffffffffff61042143611020565b169182821015610474576001600160a01b03165f90815260096020526040902061021592506001600160d01b0391610463919061045d90611020565b9061106b565b604051911681529081906020820190565b50637669fc0f60e11b5f5260045260245260445ffd5b3461029b575f36600319011261029b576104a343611020565b65ffffffffffff806104b443611020565b1691160361050b576102156040516104cd604082610dc6565b601d81527f6d6f64653d626c6f636b6e756d6265722666726f6d3d64656661756c740000006020820152604051918291602083526020830190610189565b6301bfc1c560e61b5f5260045ffd5b3461029b57602036600319011261029b576001600160a01b0361053b61029f565b165f526008602052602060018060a01b0360405f205416604051908152f35b3461029b57602036600319011261029b5761057c61057661029f565b336110fc565b005b3461029b57602036600319011261029b576001600160a01b0361059f61029f565b165f52600960205260405f205463ffffffff81116105c95760405163ffffffff9091168152602090f35b6306dfcc6560e41b5f52602060045260245260445ffd5b3461029b57602036600319011261029b5760206103ed6105fe61029f565b6001600160a01b03165f9081526020819052604090205490565b3461029b57602036600319011261029b576001600160a01b0361063961029f565b165f526007602052602060405f2054604051908152f35b3461029b575f36600319011261029b576106f461068c7f00000000000000000000000000000000000000000000000000000000000000006115d4565b6106b57f0000000000000000000000000000000000000000000000000000000000000000611634565b60206040516106c48282610dc6565b5f81528161070281830194601f198301368737604051978897600f60f81b895260e0858a015260e0890190610189565b908782036040890152610189565b914660608701523060808701525f60a087015285830360c087015251918281520192915f5b82811061073657505050500390f35b835185528695509381019392810192600101610727565b3461029b57602036600319011261029b5760043565ffffffffffff61077143611020565b1690818110156108315761078490611020565b600a54905f8291600584116107d8575b6107a09350600a61144e565b806107bc575060205f5b6040516001600160d01b039091168152f35b6107c760209161104f565b600a5f52815f20015460301c6107aa565b91926107e3816112db565b810390811161082c576107a093600a5f5265ffffffffffff8260205f2001541665ffffffffffff8516105f1461081a575091610794565b9291506108269061105d565b90610794565b610cc4565b637669fc0f60e11b5f5260045260245260445ffd5b3461029b575f36600319011261029b57602061086143611020565b65ffffffffffff60405191168152f35b3461029b575f36600319011261029b576040515f60045461089181610cd8565b808452906001811690811561027757506001146108b8576102158361020981850382610dc6565b60045f9081527f8a35acfbc15ff81a39ae7d344fd709f28e8600b4aa8c65c6b64bfe7fe36bd19b939250905b8082106108fc575090915081016020016102096101f9565b9192600181602092548385880101520191019092916108e4565b3461029b57602036600319011261029b576001600160a01b0361093761029f565b165f526009602052602060018060d01b0361095460405f2061117d565b16604051908152f35b3461029b57604036600319011261029b576102f161097961029f565b6024359033610e11565b6064359060ff8216820361029b57565b6084359060ff8216820361029b57565b3461029b5760c036600319011261029b576109bc61029f565b602435906044356109cb610983565b6084359060a43592804211610aa05791610a509391610a42610a479460405160208101917fe48329057bfd03d55e49b547132e39cffd9c1820ad7b9d4c5307691425d15adf835260018060a01b038a1660408301528a6060830152608082015260808152610a3a60a082610dc6565b5190206111a7565b61166b565b90929192611716565b6001600160a01b0381165f908152600760205260409020805460018101909155809303610a815761057c92506110fc565b90506301d4b62360e61b5f5260018060a01b031660045260245260445ffd5b632341d78760e11b5f5260045260245ffd5b3461029b5760e036600319011261029b57610acb61029f565b610ad36102b5565b6044359060643592610ae3610993565b60a43560c43590864211610bc3576001600160a01b0384165f908152600760205260409020805460018101909155610b889390610b83909860405160208101917f6e71edae12b1b97f4d1f60370fef10105fa2faae0126114a169c64845d6126c9835260018060a01b0389169b8c604084015260018060a01b038b1660608401528b608084015260a083015260c082015260c08152610a3a60e082610dc6565b6111cd565b936001600160a01b03851603610ba25761057c93506111dc565b6325c0072360e11b5f526001600160a01b038085166004521660245260445ffd5b8663313c898160e11b5f5260045260245ffd5b3461029b57604036600319011261029b576020610c24610bf461029f565b610bfc6102b5565b6001600160a01b039182165f9081526001855260408082209290931681526020919091522090565b54604051908152f35b3461029b57604036600319011261029b57610c4661029f565b6024359063ffffffff8216820361029b57610c9b91610c9591610c67610df9565b50610c70610df9565b506001600160a01b03165f908152600960205260409020610c8f610df9565b50611792565b506117bb565b60408051825165ffffffffffff1681526020928301516001600160d01b03169281019290925290f35b634e487b7160e01b5f52601160045260245ffd5b90600182811c92168015610d06575b6020831014610cf257565b634e487b7160e01b5f52602260045260245ffd5b91607f1691610ce7565b5f9291815491610d1f83610cd8565b8083529260018116908115610d745750600114610d3b57505050565b5f9081526020812093945091925b838310610d5a575060209250010190565b600181602092949394548385870101520191019190610d49565b915050602093945060ff929192191683830152151560051b010190565b634e487b7160e01b5f52604160045260245ffd5b6040810190811067ffffffffffffffff821117610dc157604052565b610d91565b90601f8019910116810190811067ffffffffffffffff821117610dc157604052565b60405190610df7604083610dc6565b565b60405190610e0682610da5565b5f6020838281520152565b6001600160a01b038116939291908415610ef1576001600160a01b0382168015610ede576001600160a01b0382165f90815260208190526040902054848110610ec3579584610df7969703610e758460018060a01b03165f525f60205260405f2090565b556001600160a01b0384165f908152602081815260409182902080548801905590518681527fddf252ad1be2c89b69c2b068fc378daa952ba7f163c4a11628f55a4df523b3ef9190a36118c3565b84908763391434e360e21b5f5260045260245260445260645ffd5b63ec442f0560e01b5f525f60045260245ffd5b634b637e8f60e11b5f525f60045260245ffd5b307f00000000000000000000000000000000000000000000000000000000000000006001600160a01b03161480610ff7575b15610f5f577f000000000000000000000000000000000000000000000000000000000000000090565b60405160208101907f8b73c3c69bb8fe3d512ecc4cf759cc79239f7b179b0ffacaa9a75d522b39400f82527f000000000000000000000000000000000000000000000000000000000000000060408201527f000000000000000000000000000000000000000000000000000000000000000060608201524660808201523060a082015260a08152610ff160c082610dc6565b51902090565b507f00000000000000000000000000000000000000000000000000000000000000004614610f36565b65ffffffffffff81116110385765ffffffffffff1690565b6306dfcc6560e41b5f52603060045260245260445ffd5b5f1981019190821161082c57565b906001820180921161082c57565b908154905f8291600584116110a9575b61108693508461144e565b806110915750505f90565b61109a9061104f565b905f5260205f20015460301c90565b91926110b4816112db565b810390811161082c5761108693855f5265ffffffffffff8260205f2001541665ffffffffffff8516105f146110ea57509161107b565b9291506110f69061105d565b9061107b565b6001600160a01b038181165f81815260086020526040812080548685166001600160a01b031982168117909255610df7969416946111779390928691907f3134e8a2e6d97e929a7e54011ea5485d7d196dd5f0ba4d4ef95803e8e3fc257f9080a46001600160a01b03165f9081526020819052604090205490565b916114b2565b8054908161118b5750505f90565b815f1981011161082c575f525f199060205f2001015460301c90565b6042906111b2610f04565b906040519161190160f01b8352600283015260228201522090565b916101be9391610a479361166b565b6001600160a01b0316908115611264576001600160a01b03811692831561125157806112447f8c5be1e5ebec7d5bd14f71427d1e84f3dd0314c0f7b2291e5b200ac8c7c3b92593855f52600160205260405f209060018060a01b03165f5260205260405f2090565b55604051908152602090a3565b634a1406b160e11b5f525f60045260245ffd5b63e602df0560e01b5f525f60045260245ffd5b6001600160a01b0316908115611264576001600160a01b03811615611251576112ba915f52600160205260405f209060018060a01b03165f5260205260405f2090565b55565b81156112c7570490565b634e487b7160e01b5f52601260045260245ffd5b8015611449576101be906113df6113d86113ce6113c46113ba6113b06113a661139c600161138a5f8b608081901c8061143b575b508061131e6113809260401c90565b8061142e575b5061132f8160201c90565b80611421575b506113408160101c90565b80611414575b506113518160081c90565b80611407575b506113628160041c90565b806113fa575b506113738160021c90565b806113ed575b5060011c90565b6113e55760011c90565b1b611395818b6112bd565b0160011c90565b611395818a6112bd565b61139581896112bd565b61139581886112bd565b61139581876112bd565b61139581866112bd565b61139581856112bd565b80926112bd565b906117df565b820160011c90565b600291509201915f611379565b600491509201915f611368565b600891509201915f611357565b601091509201915f611346565b602091509201915f611335565b604091509201915f611324565b60809250905061138061130f565b505f90565b91905b83821061145e5750505090565b9091928083169080841860011c820180921161082c57845f5265ffffffffffff8260205f2001541665ffffffffffff8416105f146114a05750925b9190611451565b9392506114ac9061105d565b91611499565b6001600160a01b038083169392919081169081851415806115cb575b6114da575b5050505050565b8161155e575b5050826114ef575b80806114d3565b6001600160a01b03165f9081526009602052604090207fdec2bacdd2f05b59de34da9b523dff8be42e5e38e818c82fdb0bae774387a7249161153b9161153590916117f1565b9061185a565b604080516001600160d01b039384168152919092166020820152a25f80806114e8565b6001600160a01b03165f9081526009602052604090207fdec2bacdd2f05b59de34da9b523dff8be42e5e38e818c82fdb0bae774387a724906115a9906115a3866117f1565b90611822565b604080516001600160d01b039384168152919092166020820152a25f806114e0565b508315156114ce565b60ff811461161a5760ff811690601f821161160b57604051916115f8604084610dc6565b6020808452838101919036833783525290565b632cd44ac360e21b5f5260045ffd5b506040516101be8161162d816005610d10565b0382610dc6565b60ff81146116585760ff811690601f821161160b57604051916115f8604084610dc6565b506040516101be8161162d816006610d10565b91907f7fffffffffffffffffffffffffffffff5d576e7357a4501ddfe92f46681b20a084116116ed579160209360809260ff5f9560405194855216868401526040830152606082015282805260015afa156116e2575f516001600160a01b038116156116d857905f905f90565b505f906001905f90565b6040513d5f823e3d90fd5b5050505f9160039190565b6004111561170257565b634e487b7160e01b5f52602160045260245ffd5b61171f816116f8565b80611728575050565b611731816116f8565b600181036117485763f645eedf60e01b5f5260045ffd5b611751816116f8565b6002810361176c575063fce698f760e01b5f5260045260245ffd5b806117786003926116f8565b146117805750565b6335e2f38360e21b5f5260045260245ffd5b80548210156117a7575f5260205f2001905f90565b634e487b7160e01b5f52603260045260245ffd5b906040516117c881610da5565b915465ffffffffffff8116835260301c6020830152565b90808210156117ec575090565b905090565b6001600160d01b03811161180b576001600160d01b031690565b6306dfcc6560e41b5f5260d060045260245260445ffd5b9061182c43611020565b906118368361117d565b6001600160d01b03918216908216039190821161082c57611856926119d8565b9091565b9061186443611020565b9061186e8361117d565b6001600160d01b03918216908216019190821161082c57611856926119d8565b61189743611020565b906118a2600a61117d565b6001600160d01b039182169082160390811161082c5761185691600a6119d8565b9091906001600160a01b0316801561192a575b610df7926001600160a01b0316908115611912575b5f90815260086020526040808220549282529020546001600160a01b0390811691166114b2565b61192361191e846117f1565b61188e565b50506118eb565b611933826117f1565b9261193d43611020565b93611948600a61117d565b6001600160d01b03918216908216019490851161082c57610df79461196e91600a6119d8565b90505092506118d6565b805468010000000000000000811015610dc15761199a91600182018155611792565b6119c557815160209092015160301b65ffffffffffff191665ffffffffffff92909216919091179055565b634e487b7160e01b5f525f60045260245ffd5b805492939291908215611ae257611a046119ff6119f48561104f565b835f5260205f200190565b6117bb565b9065ffffffffffff611a1c835165ffffffffffff1690565b8185169182911611611ad357611a97946020948892611a4f611a44875165ffffffffffff1690565b65ffffffffffff1690565b03611a9b5750611a8992611a65611a709261104f565b905f5260205f200190565b9065ffffffffffff82549181199060301b169116179055565b01516001600160d01b031690565b9190565b915050611ace91611abb611aad610de8565b65ffffffffffff9093168352565b6001600160d01b03881682860152611978565b611a89565b632520601d60e01b5f5260045ffd5b611b069250611af2611aad610de8565b6001600160d01b0385166020830152611978565b5f919056fea26469706673582212207ad02072b432f50b1585d690f85d044ff9295a5d08c53344fe9dd8aec5ce7ccd64736f6c634300081e0033c65a7bb8d6351c1cf70c95a316cc6a92839c986682d98bc35f958f4883f9d2a7dec2bacdd2f05b59de34da9b523dff8be42e5e38e818c82fdb0bae774387a724","linkReferences":{}},"methodIdentifiers":{"CLOCK_MODE()":"4bf5d7e9","DOMAIN_SEPARATOR()":"3644e515","allowance(address,address)":"dd62ed3e","approve(address,uint256)":"095ea7b3","balanceOf(address)":"70a08231","checkpoints(address,uint32)":"f1127ed8","clock()":"91ddadf4","decimals()":"313ce567","delegate(address)":"5c19a95c","delegateBySig(address,uint256,uint256,uint8,bytes32,bytes32)":"c3cda520","delegates(address)":"587cde1e","eip712Domain()":"84b0196e","getPastTotalSupply(uint256)":"8e539e8c","getPastVotes(address,uint256)":"3a46b1a8","getVotes(address)":"9ab24eb0","name()":"06fdde03","nonces(address)":"7ecebe00","numCheckpoints(address)":"6fcfff45","permit(address,address,uint256,uint256,uint8,bytes32,bytes32)":"d505accf","symbol()":"95d89b41","totalSupply()":"18160ddd","transfer(address,uint256)":"a9059cbb","transferFrom(address,address,uint256)":"23b872dd"},"id":70}